{
  "_format": "hh-sol-artifact-1",
  "contractName": "MyGovernor",
  "sourceName": "contracts/Governance/Governance.sol",
  "abi": [
    {
      "inputs": [
        {
          "internalType": "contract IVotes",
          "name": "_token",
          "type": "address"
        },
        {
          "internalType": "contract TimelockController",
          "name": "_timelock",
          "type": "address"
        }
      ],
      "stateMutability": "nonpayable",
      "type": "constructor"
    },
    {
      "inputs": [],
      "name": "Empty",
      "type": "error"
    },
    {
      "anonymous": false,
      "inputs": [
        {
          "indexed": false,
          "internalType": "uint256",
          "name": "proposalId",
          "type": "uint256"
        }
      ],
      "name": "ProposalCanceled",
      "type": "event"
    },
    {
      "anonymous": false,
      "inputs": [
        {
          "indexed": false,
          "internalType": "uint256",
          "name": "proposalId",
          "type": "uint256"
        },
        {
          "indexed": false,
          "internalType": "address",
          "name": "proposer",
          "type": "address"
        },
        {
          "indexed": false,
          "internalType": "address[]",
          "name": "targets",
          "type": "address[]"
        },
        {
          "indexed": false,
          "internalType": "uint256[]",
          "name": "values",
          "type": "uint256[]"
        },
        {
          "indexed": false,
          "internalType": "string[]",
          "name": "signatures",
          "type": "string[]"
        },
        {
          "indexed": false,
          "internalType": "bytes[]",
          "name": "calldatas",
          "type": "bytes[]"
        },
        {
          "indexed": false,
          "internalType": "uint256",
          "name": "startBlock",
          "type": "uint256"
        },
        {
          "indexed": false,
          "internalType": "uint256",
          "name": "endBlock",
          "type": "uint256"
        },
        {
          "indexed": false,
          "internalType": "string",
          "name": "description",
          "type": "string"
        }
      ],
      "name": "ProposalCreated",
      "type": "event"
    },
    {
      "anonymous": false,
      "inputs": [
        {
          "indexed": false,
          "internalType": "uint256",
          "name": "proposalId",
          "type": "uint256"
        }
      ],
      "name": "ProposalExecuted",
      "type": "event"
    },
    {
      "anonymous": false,
      "inputs": [
        {
          "indexed": false,
          "internalType": "uint256",
          "name": "proposalId",
          "type": "uint256"
        },
        {
          "indexed": false,
          "internalType": "uint256",
          "name": "eta",
          "type": "uint256"
        }
      ],
      "name": "ProposalQueued",
      "type": "event"
    },
    {
      "anonymous": false,
      "inputs": [
        {
          "indexed": false,
          "internalType": "uint256",
          "name": "oldProposalThreshold",
          "type": "uint256"
        },
        {
          "indexed": false,
          "internalType": "uint256",
          "name": "newProposalThreshold",
          "type": "uint256"
        }
      ],
      "name": "ProposalThresholdSet",
      "type": "event"
    },
    {
      "anonymous": false,
      "inputs": [
        {
          "indexed": false,
          "internalType": "uint256",
          "name": "oldQuorumNumerator",
          "type": "uint256"
        },
        {
          "indexed": false,
          "internalType": "uint256",
          "name": "newQuorumNumerator",
          "type": "uint256"
        }
      ],
      "name": "QuorumNumeratorUpdated",
      "type": "event"
    },
    {
      "anonymous": false,
      "inputs": [
        {
          "indexed": false,
          "internalType": "address",
          "name": "oldTimelock",
          "type": "address"
        },
        {
          "indexed": false,
          "internalType": "address",
          "name": "newTimelock",
          "type": "address"
        }
      ],
      "name": "TimelockChange",
      "type": "event"
    },
    {
      "anonymous": false,
      "inputs": [
        {
          "indexed": true,
          "internalType": "address",
          "name": "voter",
          "type": "address"
        },
        {
          "indexed": false,
          "internalType": "uint256",
          "name": "proposalId",
          "type": "uint256"
        },
        {
          "indexed": false,
          "internalType": "uint8",
          "name": "support",
          "type": "uint8"
        },
        {
          "indexed": false,
          "internalType": "uint256",
          "name": "weight",
          "type": "uint256"
        },
        {
          "indexed": false,
          "internalType": "string",
          "name": "reason",
          "type": "string"
        }
      ],
      "name": "VoteCast",
      "type": "event"
    },
    {
      "anonymous": false,
      "inputs": [
        {
          "indexed": true,
          "internalType": "address",
          "name": "voter",
          "type": "address"
        },
        {
          "indexed": false,
          "internalType": "uint256",
          "name": "proposalId",
          "type": "uint256"
        },
        {
          "indexed": false,
          "internalType": "uint8",
          "name": "support",
          "type": "uint8"
        },
        {
          "indexed": false,
          "internalType": "uint256",
          "name": "weight",
          "type": "uint256"
        },
        {
          "indexed": false,
          "internalType": "string",
          "name": "reason",
          "type": "string"
        },
        {
          "indexed": false,
          "internalType": "bytes",
          "name": "params",
          "type": "bytes"
        }
      ],
      "name": "VoteCastWithParams",
      "type": "event"
    },
    {
      "anonymous": false,
      "inputs": [
        {
          "indexed": false,
          "internalType": "uint256",
          "name": "oldVotingDelay",
          "type": "uint256"
        },
        {
          "indexed": false,
          "internalType": "uint256",
          "name": "newVotingDelay",
          "type": "uint256"
        }
      ],
      "name": "VotingDelaySet",
      "type": "event"
    },
    {
      "anonymous": false,
      "inputs": [
        {
          "indexed": false,
          "internalType": "uint256",
          "name": "oldVotingPeriod",
          "type": "uint256"
        },
        {
          "indexed": false,
          "internalType": "uint256",
          "name": "newVotingPeriod",
          "type": "uint256"
        }
      ],
      "name": "VotingPeriodSet",
      "type": "event"
    },
    {
      "inputs": [],
      "name": "BALLOT_TYPEHASH",
      "outputs": [
        {
          "internalType": "bytes32",
          "name": "",
          "type": "bytes32"
        }
      ],
      "stateMutability": "view",
      "type": "function"
    },
    {
      "inputs": [],
      "name": "COUNTING_MODE",
      "outputs": [
        {
          "internalType": "string",
          "name": "",
          "type": "string"
        }
      ],
      "stateMutability": "pure",
      "type": "function"
    },
    {
      "inputs": [],
      "name": "EXTENDED_BALLOT_TYPEHASH",
      "outputs": [
        {
          "internalType": "bytes32",
          "name": "",
          "type": "bytes32"
        }
      ],
      "stateMutability": "view",
      "type": "function"
    },
    {
      "inputs": [
        {
          "internalType": "uint256",
          "name": "proposalId",
          "type": "uint256"
        },
        {
          "internalType": "uint8",
          "name": "support",
          "type": "uint8"
        }
      ],
      "name": "castVote",
      "outputs": [
        {
          "internalType": "uint256",
          "name": "",
          "type": "uint256"
        }
      ],
      "stateMutability": "nonpayable",
      "type": "function"
    },
    {
      "inputs": [
        {
          "internalType": "uint256",
          "name": "proposalId",
          "type": "uint256"
        },
        {
          "internalType": "uint8",
          "name": "support",
          "type": "uint8"
        },
        {
          "internalType": "uint8",
          "name": "v",
          "type": "uint8"
        },
        {
          "internalType": "bytes32",
          "name": "r",
          "type": "bytes32"
        },
        {
          "internalType": "bytes32",
          "name": "s",
          "type": "bytes32"
        }
      ],
      "name": "castVoteBySig",
      "outputs": [
        {
          "internalType": "uint256",
          "name": "",
          "type": "uint256"
        }
      ],
      "stateMutability": "nonpayable",
      "type": "function"
    },
    {
      "inputs": [
        {
          "internalType": "uint256",
          "name": "proposalId",
          "type": "uint256"
        },
        {
          "internalType": "uint8",
          "name": "support",
          "type": "uint8"
        },
        {
          "internalType": "string",
          "name": "reason",
          "type": "string"
        }
      ],
      "name": "castVoteWithReason",
      "outputs": [
        {
          "internalType": "uint256",
          "name": "",
          "type": "uint256"
        }
      ],
      "stateMutability": "nonpayable",
      "type": "function"
    },
    {
      "inputs": [
        {
          "internalType": "uint256",
          "name": "proposalId",
          "type": "uint256"
        },
        {
          "internalType": "uint8",
          "name": "support",
          "type": "uint8"
        },
        {
          "internalType": "string",
          "name": "reason",
          "type": "string"
        },
        {
          "internalType": "bytes",
          "name": "params",
          "type": "bytes"
        }
      ],
      "name": "castVoteWithReasonAndParams",
      "outputs": [
        {
          "internalType": "uint256",
          "name": "",
          "type": "uint256"
        }
      ],
      "stateMutability": "nonpayable",
      "type": "function"
    },
    {
      "inputs": [
        {
          "internalType": "uint256",
          "name": "proposalId",
          "type": "uint256"
        },
        {
          "internalType": "uint8",
          "name": "support",
          "type": "uint8"
        },
        {
          "internalType": "string",
          "name": "reason",
          "type": "string"
        },
        {
          "internalType": "bytes",
          "name": "params",
          "type": "bytes"
        },
        {
          "internalType": "uint8",
          "name": "v",
          "type": "uint8"
        },
        {
          "internalType": "bytes32",
          "name": "r",
          "type": "bytes32"
        },
        {
          "internalType": "bytes32",
          "name": "s",
          "type": "bytes32"
        }
      ],
      "name": "castVoteWithReasonAndParamsBySig",
      "outputs": [
        {
          "internalType": "uint256",
          "name": "",
          "type": "uint256"
        }
      ],
      "stateMutability": "nonpayable",
      "type": "function"
    },
    {
      "inputs": [
        {
          "internalType": "address[]",
          "name": "targets",
          "type": "address[]"
        },
        {
          "internalType": "uint256[]",
          "name": "values",
          "type": "uint256[]"
        },
        {
          "internalType": "bytes[]",
          "name": "calldatas",
          "type": "bytes[]"
        },
        {
          "internalType": "bytes32",
          "name": "descriptionHash",
          "type": "bytes32"
        }
      ],
      "name": "execute",
      "outputs": [
        {
          "internalType": "uint256",
          "name": "",
          "type": "uint256"
        }
      ],
      "stateMutability": "payable",
      "type": "function"
    },
    {
      "inputs": [],
      "name": "getExecutor",
      "outputs": [
        {
          "internalType": "address",
          "name": "",
          "type": "address"
        }
      ],
      "stateMutability": "view",
      "type": "function"
    },
    {
      "inputs": [
        {
          "internalType": "address",
          "name": "account",
          "type": "address"
        },
        {
          "internalType": "uint256",
          "name": "blockNumber",
          "type": "uint256"
        }
      ],
      "name": "getVotes",
      "outputs": [
        {
          "internalType": "uint256",
          "name": "",
          "type": "uint256"
        }
      ],
      "stateMutability": "view",
      "type": "function"
    },
    {
      "inputs": [
        {
          "internalType": "address",
          "name": "account",
          "type": "address"
        },
        {
          "internalType": "uint256",
          "name": "blockNumber",
          "type": "uint256"
        },
        {
          "internalType": "bytes",
          "name": "params",
          "type": "bytes"
        }
      ],
      "name": "getVotesWithParams",
      "outputs": [
        {
          "internalType": "uint256",
          "name": "",
          "type": "uint256"
        }
      ],
      "stateMutability": "view",
      "type": "function"
    },
    {
      "inputs": [
        {
          "internalType": "uint256",
          "name": "proposalId",
          "type": "uint256"
        },
        {
          "internalType": "address",
          "name": "account",
          "type": "address"
        }
      ],
      "name": "hasVoted",
      "outputs": [
        {
          "internalType": "bool",
          "name": "",
          "type": "bool"
        }
      ],
      "stateMutability": "view",
      "type": "function"
    },
    {
      "inputs": [
        {
          "internalType": "address[]",
          "name": "targets",
          "type": "address[]"
        },
        {
          "internalType": "uint256[]",
          "name": "values",
          "type": "uint256[]"
        },
        {
          "internalType": "bytes[]",
          "name": "calldatas",
          "type": "bytes[]"
        },
        {
          "internalType": "bytes32",
          "name": "descriptionHash",
          "type": "bytes32"
        }
      ],
      "name": "hashProposal",
      "outputs": [
        {
          "internalType": "uint256",
          "name": "",
          "type": "uint256"
        }
      ],
      "stateMutability": "pure",
      "type": "function"
    },
    {
      "inputs": [],
      "name": "name",
      "outputs": [
        {
          "internalType": "string",
          "name": "",
          "type": "string"
        }
      ],
      "stateMutability": "view",
      "type": "function"
    },
    {
      "inputs": [
        {
          "internalType": "address",
          "name": "",
          "type": "address"
        },
        {
          "internalType": "address",
          "name": "",
          "type": "address"
        },
        {
          "internalType": "uint256[]",
          "name": "",
          "type": "uint256[]"
        },
        {
          "internalType": "uint256[]",
          "name": "",
          "type": "uint256[]"
        },
        {
          "internalType": "bytes",
          "name": "",
          "type": "bytes"
        }
      ],
      "name": "onERC1155BatchReceived",
      "outputs": [
        {
          "internalType": "bytes4",
          "name": "",
          "type": "bytes4"
        }
      ],
      "stateMutability": "nonpayable",
      "type": "function"
    },
    {
      "inputs": [
        {
          "internalType": "address",
          "name": "",
          "type": "address"
        },
        {
          "internalType": "address",
          "name": "",
          "type": "address"
        },
        {
          "internalType": "uint256",
          "name": "",
          "type": "uint256"
        },
        {
          "internalType": "uint256",
          "name": "",
          "type": "uint256"
        },
        {
          "internalType": "bytes",
          "name": "",
          "type": "bytes"
        }
      ],
      "name": "onERC1155Received",
      "outputs": [
        {
          "internalType": "bytes4",
          "name": "",
          "type": "bytes4"
        }
      ],
      "stateMutability": "nonpayable",
      "type": "function"
    },
    {
      "inputs": [
        {
          "internalType": "address",
          "name": "",
          "type": "address"
        },
        {
          "internalType": "address",
          "name": "",
          "type": "address"
        },
        {
          "internalType": "uint256",
          "name": "",
          "type": "uint256"
        },
        {
          "internalType": "bytes",
          "name": "",
          "type": "bytes"
        }
      ],
      "name": "onERC721Received",
      "outputs": [
        {
          "internalType": "bytes4",
          "name": "",
          "type": "bytes4"
        }
      ],
      "stateMutability": "nonpayable",
      "type": "function"
    },
    {
      "inputs": [
        {
          "internalType": "uint256",
          "name": "proposalId",
          "type": "uint256"
        }
      ],
      "name": "proposalDeadline",
      "outputs": [
        {
          "internalType": "uint256",
          "name": "",
          "type": "uint256"
        }
      ],
      "stateMutability": "view",
      "type": "function"
    },
    {
      "inputs": [
        {
          "internalType": "uint256",
          "name": "proposalId",
          "type": "uint256"
        }
      ],
      "name": "proposalEta",
      "outputs": [
        {
          "internalType": "uint256",
          "name": "",
          "type": "uint256"
        }
      ],
      "stateMutability": "view",
      "type": "function"
    },
    {
      "inputs": [
        {
          "internalType": "uint256",
          "name": "proposalId",
          "type": "uint256"
        }
      ],
      "name": "proposalSnapshot",
      "outputs": [
        {
          "internalType": "uint256",
          "name": "",
          "type": "uint256"
        }
      ],
      "stateMutability": "view",
      "type": "function"
    },
    {
      "inputs": [],
      "name": "proposalThreshold",
      "outputs": [
        {
          "internalType": "uint256",
          "name": "",
          "type": "uint256"
        }
      ],
      "stateMutability": "view",
      "type": "function"
    },
    {
      "inputs": [
        {
          "internalType": "uint256",
          "name": "proposalId",
          "type": "uint256"
        }
      ],
      "name": "proposalVotes",
      "outputs": [
        {
          "internalType": "uint256",
          "name": "againstVotes",
          "type": "uint256"
        },
        {
          "internalType": "uint256",
          "name": "forVotes",
          "type": "uint256"
        },
        {
          "internalType": "uint256",
          "name": "abstainVotes",
          "type": "uint256"
        }
      ],
      "stateMutability": "view",
      "type": "function"
    },
    {
      "inputs": [
        {
          "internalType": "address[]",
          "name": "targets",
          "type": "address[]"
        },
        {
          "internalType": "uint256[]",
          "name": "values",
          "type": "uint256[]"
        },
        {
          "internalType": "bytes[]",
          "name": "calldatas",
          "type": "bytes[]"
        },
        {
          "internalType": "string",
          "name": "description",
          "type": "string"
        }
      ],
      "name": "propose",
      "outputs": [
        {
          "internalType": "uint256",
          "name": "",
          "type": "uint256"
        }
      ],
      "stateMutability": "nonpayable",
      "type": "function"
    },
    {
      "inputs": [
        {
          "internalType": "address[]",
          "name": "targets",
          "type": "address[]"
        },
        {
          "internalType": "uint256[]",
          "name": "values",
          "type": "uint256[]"
        },
        {
          "internalType": "bytes[]",
          "name": "calldatas",
          "type": "bytes[]"
        },
        {
          "internalType": "bytes32",
          "name": "descriptionHash",
          "type": "bytes32"
        }
      ],
      "name": "queue",
      "outputs": [
        {
          "internalType": "uint256",
          "name": "",
          "type": "uint256"
        }
      ],
      "stateMutability": "nonpayable",
      "type": "function"
    },
    {
      "inputs": [
        {
          "internalType": "uint256",
          "name": "blockNumber",
          "type": "uint256"
        }
      ],
      "name": "quorum",
      "outputs": [
        {
          "internalType": "uint256",
          "name": "",
          "type": "uint256"
        }
      ],
      "stateMutability": "view",
      "type": "function"
    },
    {
      "inputs": [],
      "name": "quorumDenominator",
      "outputs": [
        {
          "internalType": "uint256",
          "name": "",
          "type": "uint256"
        }
      ],
      "stateMutability": "view",
      "type": "function"
    },
    {
      "inputs": [
        {
          "internalType": "uint256",
          "name": "blockNumber",
          "type": "uint256"
        }
      ],
      "name": "quorumNumerator",
      "outputs": [
        {
          "internalType": "uint256",
          "name": "",
          "type": "uint256"
        }
      ],
      "stateMutability": "view",
      "type": "function"
    },
    {
      "inputs": [],
      "name": "quorumNumerator",
      "outputs": [
        {
          "internalType": "uint256",
          "name": "",
          "type": "uint256"
        }
      ],
      "stateMutability": "view",
      "type": "function"
    },
    {
      "inputs": [
        {
          "internalType": "address",
          "name": "target",
          "type": "address"
        },
        {
          "internalType": "uint256",
          "name": "value",
          "type": "uint256"
        },
        {
          "internalType": "bytes",
          "name": "data",
          "type": "bytes"
        }
      ],
      "name": "relay",
      "outputs": [],
      "stateMutability": "payable",
      "type": "function"
    },
    {
      "inputs": [
        {
          "internalType": "uint256",
          "name": "newProposalThreshold",
          "type": "uint256"
        }
      ],
      "name": "setProposalThreshold",
      "outputs": [],
      "stateMutability": "nonpayable",
      "type": "function"
    },
    {
      "inputs": [
        {
          "internalType": "uint256",
          "name": "newVotingDelay",
          "type": "uint256"
        }
      ],
      "name": "setVotingDelay",
      "outputs": [],
      "stateMutability": "nonpayable",
      "type": "function"
    },
    {
      "inputs": [
        {
          "internalType": "uint256",
          "name": "newVotingPeriod",
          "type": "uint256"
        }
      ],
      "name": "setVotingPeriod",
      "outputs": [],
      "stateMutability": "nonpayable",
      "type": "function"
    },
    {
      "inputs": [
        {
          "internalType": "uint256",
          "name": "proposalId",
          "type": "uint256"
        }
      ],
      "name": "state",
      "outputs": [
        {
          "internalType": "enum IGovernor.ProposalState",
          "name": "",
          "type": "uint8"
        }
      ],
      "stateMutability": "view",
      "type": "function"
    },
    {
      "inputs": [
        {
          "internalType": "bytes4",
          "name": "interfaceId",
          "type": "bytes4"
        }
      ],
      "name": "supportsInterface",
      "outputs": [
        {
          "internalType": "bool",
          "name": "",
          "type": "bool"
        }
      ],
      "stateMutability": "view",
      "type": "function"
    },
    {
      "inputs": [],
      "name": "timelock",
      "outputs": [
        {
          "internalType": "address",
          "name": "",
          "type": "address"
        }
      ],
      "stateMutability": "view",
      "type": "function"
    },
    {
      "inputs": [],
      "name": "token",
      "outputs": [
        {
          "internalType": "contract IVotes",
          "name": "",
          "type": "address"
        }
      ],
      "stateMutability": "view",
      "type": "function"
    },
    {
      "inputs": [
        {
          "internalType": "uint256",
          "name": "newQuorumNumerator",
          "type": "uint256"
        }
      ],
      "name": "updateQuorumNumerator",
      "outputs": [],
      "stateMutability": "nonpayable",
      "type": "function"
    },
    {
      "inputs": [
        {
          "internalType": "contract TimelockController",
          "name": "newTimelock",
          "type": "address"
        }
      ],
      "name": "updateTimelock",
      "outputs": [],
      "stateMutability": "nonpayable",
      "type": "function"
    },
    {
      "inputs": [],
      "name": "version",
      "outputs": [
        {
          "internalType": "string",
          "name": "",
          "type": "string"
        }
      ],
      "stateMutability": "view",
      "type": "function"
    },
    {
      "inputs": [],
      "name": "votingDelay",
      "outputs": [
        {
          "internalType": "uint256",
          "name": "",
          "type": "uint256"
        }
      ],
      "stateMutability": "view",
      "type": "function"
    },
    {
      "inputs": [],
      "name": "votingPeriod",
      "outputs": [
        {
          "internalType": "uint256",
          "name": "",
          "type": "uint256"
        }
      ],
      "stateMutability": "view",
      "type": "function"
    },
    {
      "stateMutability": "payable",
      "type": "receive"
    }
  ],
  "bytecode": "0x6101606040523480156200001257600080fd5b5060405162004a1838038062004a188339810160408190526200003591620007d4565b80600483611c2061c4e060006040518060400160405280601381526020017f467265656c616e6365476f7665726e616e63650000000000000000000000000081525080620000886200017960201b60201c565b815160209283012081519183019190912060e08290526101008190524660a0818152604080517f8b73c3c69bb8fe3d512ecc4cf759cc79239f7b179b0ffacaa9a75d522b39400f818801819052818301969096526060810194909452608080850193909352308483018190528151808603909301835260c094850190915281519190950120905291909152610120526000620001258282620008b8565b506200013390508362000194565b6200013e82620001d5565b62000149816200027c565b5050506001600160a01b0316610140526200016481620002bd565b50620001708162000414565b505050620009ac565b6040805180820190915260018152603160f81b602082015290565b60045460408051918252602082018390527fc565b045403dc03c2eea82b81a0465edad9e2e7fc4d97e11421c209da93d7a93910160405180910390a1600455565b600081116200023b5760405162461bcd60e51b815260206004820152602760248201527f476f7665726e6f7253657474696e67733a20766f74696e6720706572696f6420604482015266746f6f206c6f7760c81b60648201526084015b60405180910390fd5b60055460408051918252602082018390527f7e3f7f0708a84de9203036abaa450dccc85ad5ff52f78c170f3edb55cf5e8828910160405180910390a1600555565b60065460408051918252602082018390527fccb45da8d5717e6c4544694297c4ba5cf151d455c9bb0ed4fc7a38411bc05461910160405180910390a1600655565b6064811115620003425760405162461bcd60e51b815260206004820152604360248201527f476f7665726e6f72566f74657351756f72756d4672616374696f6e3a2071756f60448201527f72756d4e756d657261746f72206f7665722071756f72756d44656e6f6d696e616064820152623a37b960e91b608482015260a40162000232565b60006200034e6200047d565b90508015801590620003605750600954155b15620003c8576040805180820190915260008152600990602081016200038684620004aa565b6001600160e01b0390811690915282546001810184556000938452602093849020835194909301519091166401000000000263ffffffff909316929092179101555b620003d560098362000519565b505060408051828152602081018490527f0553476bf02ef2726e8ce5ced78d63e26e602e4a2257b1f559418e24b4633997910160405180910390a15050565b600a54604080516001600160a01b03928316815291831660208301527f08f74ea46ef7894f65eabfb5e6e695de773a000b47c529ab559178069b226401910160405180910390a1600a80546001600160a01b0319166001600160a01b0392909216919091179055565b60095460009015620004a35762000495600962000553565b6001600160e01b0316905090565b5060085490565b60006001600160e01b03821115620005155760405162461bcd60e51b815260206004820152602760248201527f53616665436173743a2076616c756520646f65736e27742066697420696e20326044820152663234206269747360c81b606482015260840162000232565b5090565b6000806200053d846200052c43620005a1565b6200053786620004aa565b62000608565b6001600160e01b03918216969116945092505050565b8054600090801562000597576200057f836200057160018462000984565b600091825260209091200190565b5464010000000090046001600160e01b03166200059a565b60005b9392505050565b600063ffffffff821115620005155760405162461bcd60e51b815260206004820152602660248201527f53616665436173743a2076616c756520646f65736e27742066697420696e203360448201526532206269747360d01b606482015260840162000232565b8254600090819080156200075d5760006200062a876200057160018562000984565b60408051808201909152905463ffffffff8082168084526401000000009092046001600160e01b031660208401529192509087161015620006ae5760405162461bcd60e51b815260206004820152601760248201527f436865636b706f696e743a20696e76616c6964206b6579000000000000000000604482015260640162000232565b805163ffffffff808816911603620006fc5784620006d3886200057160018662000984565b80546001600160e01b03929092166401000000000263ffffffff9092169190911790556200074c565b6040805180820190915263ffffffff80881682526001600160e01b0380881660208085019182528b54600181018d5560008d81529190912094519151909216640100000000029216919091179101555b602001519250839150620007b39050565b50506040805180820190915263ffffffff80851682526001600160e01b0380851660208085019182528854600181018a5560008a8152918220955192519093166401000000000291909316179201919091559050815b935093915050565b6001600160a01b0381168114620007d157600080fd5b50565b60008060408385031215620007e857600080fd5b8251620007f581620007bb565b60208401519092506200080881620007bb565b809150509250929050565b634e487b7160e01b600052604160045260246000fd5b600181811c908216806200083e57607f821691505b6020821081036200085f57634e487b7160e01b600052602260045260246000fd5b50919050565b601f821115620008b357600081815260208120601f850160051c810160208610156200088e5750805b601f850160051c820191505b81811015620008af578281556001016200089a565b5050505b505050565b81516001600160401b03811115620008d457620008d462000813565b620008ec81620008e5845462000829565b8462000865565b602080601f8311600181146200092457600084156200090b5750858301515b600019600386901b1c1916600185901b178555620008af565b600085815260208120601f198616915b82811015620009555788860151825594840194600190910190840162000934565b5085821015620009745787850151600019600388901b60f8161c191681555b5050505050600190811b01905550565b81810381811115620009a657634e487b7160e01b600052601160045260246000fd5b92915050565b60805160a05160c05160e05161010051610120516101405161400362000a15600039600081816109740152818161233d01526125a901526000612789015260006127d8015260006127b30152600061270c015260006127360152600061276001526140036000f3fe6080604052600436106102d55760003560e01c80637b3c71d311610179578063c28bc2fa116100d6578063ea0217cf1161008a578063f23a6e6111610064578063f23a6e61146108fd578063f8ce560a14610942578063fc0c546a1461096257600080fd5b8063ea0217cf1461089d578063eb9019d4146108bd578063ece40cc1146108dd57600080fd5b8063d33219b4116100bb578063d33219b414610805578063dd4e2ba514610823578063deaaa7cc1461086957600080fd5b8063c28bc2fa146107d2578063c59057e4146107e557600080fd5b8063a890c9101161012d578063b58131b011610112578063b58131b014610758578063bc197c811461076d578063c01f9e37146107b257600080fd5b8063a890c91014610718578063ab58fb8e1461073857600080fd5b806397c3d3341161015e57806397c3d334146106cf5780639a802a6d146106e3578063a7713a701461070357600080fd5b80637b3c71d31461068f5780637d5e81e2146106af57600080fd5b80633932abb11161023257806354fd4d50116101e657806360c4247f116101c057806360c4247f146106225780636c1032af1461064257806370b0f6601461066f57600080fd5b806354fd4d501461059c57806356781388146105e25780635f398a141461060257600080fd5b80633e4f49e6116102175780633e4f49e6146104d057806343859632146104fd578063544ffc9c1461054757600080fd5b80633932abb11461049b5780633bccf4fd146104b057600080fd5b8063150b7a02116102895780632656227d1161026e5780632656227d146104345780632d63f693146104475780632fe3e2611461046757600080fd5b8063150b7a02146103b7578063160cbed71461041457600080fd5b806303420181116102ba578063034201811461035557806306f3f9e61461037557806306fdde031461039557600080fd5b806301ffc9a7146102fd57806302a251a31461033257600080fd5b366102f857306102e3610996565b6001600160a01b0316146102f657600080fd5b005b600080fd5b34801561030957600080fd5b5061031d6103183660046131fe565b6109af565b60405190151581526020015b60405180910390f35b34801561033e57600080fd5b506103476109c0565b604051908152602001610329565b34801561036157600080fd5b5061034761037036600461333f565b6109cb565b34801561038157600080fd5b506102f66103903660046133e6565b610ac3565b3480156103a157600080fd5b506103aa610b82565b6040516103299190613445565b3480156103c357600080fd5b506103fb6103d236600461346d565b7f150b7a0200000000000000000000000000000000000000000000000000000000949350505050565b6040516001600160e01b03199091168152602001610329565b34801561042057600080fd5b5061034761042f36600461364c565b610c14565b61034761044236600461364c565b610e99565b34801561045357600080fd5b506103476104623660046133e6565b610fc0565b34801561047357600080fd5b506103477fb3b3f3b703cd84ce352197dcff232b1b5d3cfb2025ce47cf04742d0651f1af8881565b3480156104a757600080fd5b50610347610ff9565b3480156104bc57600080fd5b506103476104cb3660046136dc565b611004565b3480156104dc57600080fd5b506104f06104eb3660046133e6565b61107a565b6040516103299190613740565b34801561050957600080fd5b5061031d610518366004613768565b60008281526007602090815260408083206001600160a01b038516845260030190915290205460ff1692915050565b34801561055357600080fd5b506105816105623660046133e6565b6000908152600760205260409020805460018201546002909201549092565b60408051938452602084019290925290820152606001610329565b3480156105a857600080fd5b5060408051808201909152600181527f310000000000000000000000000000000000000000000000000000000000000060208201526103aa565b3480156105ee57600080fd5b506103476105fd366004613798565b611085565b34801561060e57600080fd5b5061034761061d3660046137c4565b6110ae565b34801561062e57600080fd5b5061034761063d3660046133e6565b6110f8565b34801561064e57600080fd5b50610657611190565b6040516001600160a01b039091168152602001610329565b34801561067b57600080fd5b506102f661068a3660046133e6565b61119a565b34801561069b57600080fd5b506103476106aa366004613848565b611251565b3480156106bb57600080fd5b506103476106ca3660046138a2565b6112a3565b3480156106db57600080fd5b506064610347565b3480156106ef57600080fd5b506103476106fe366004613957565b6112ba565b34801561070f57600080fd5b506103476112d1565b34801561072457600080fd5b506102f66107333660046139b0565b6112fb565b34801561074457600080fd5b506103476107533660046133e6565b6113b2565b34801561076457600080fd5b50610347611465565b34801561077957600080fd5b506103fb6107883660046139cd565b7fbc197c810000000000000000000000000000000000000000000000000000000095945050505050565b3480156107be57600080fd5b506103476107cd3660046133e6565b611470565b6102f66107e0366004613a61565b6114a0565b3480156107f157600080fd5b5061034761080036600461364c565b6115df565b34801561081157600080fd5b50600a546001600160a01b0316610657565b34801561082f57600080fd5b506040805180820190915260208082527f737570706f72743d627261766f2671756f72756d3d666f722c6162737461696e908201526103aa565b34801561087557600080fd5b506103477f150214d74d59b7d1e90c73fc22ef3d991dd0a76b046543d4d80ab92d2a50328f81565b3480156108a957600080fd5b506102f66108b83660046133e6565b611619565b3480156108c957600080fd5b506103476108d8366004613aa5565b6116d0565b3480156108e957600080fd5b506102f66108f83660046133e6565b6116f1565b34801561090957600080fd5b506103fb610918366004613ad1565b7ff23a6e610000000000000000000000000000000000000000000000000000000095945050505050565b34801561094e57600080fd5b5061034761095d3660046133e6565b6117a8565b34801561096e57600080fd5b506106577f000000000000000000000000000000000000000000000000000000000000000081565b60006109aa600a546001600160a01b031690565b905090565b60006109ba826117b3565b92915050565b60006109aa60055490565b600080610a6f610a677fb3b3f3b703cd84ce352197dcff232b1b5d3cfb2025ce47cf04742d0651f1af888c8c8c8c604051610a07929190613b3a565b60405180910390208b80519060200120604051602001610a4c959493929190948552602085019390935260ff9190911660408401526060830152608082015260a00190565b604051602081830303815290604052805190602001206117f1565b86868661185a565b9050610ab58a828b8b8b8080601f0160208091040260200160405190810160405280939291908181526020018383808284376000920191909152508d9250611878915050565b9a9950505050505050505050565b610acb610996565b6001600160a01b0316336001600160a01b031614610b305760405162461bcd60e51b815260206004820152601860248201527f476f7665726e6f723a206f6e6c79476f7665726e616e6365000000000000000060448201526064015b60405180910390fd5b30610b39610996565b6001600160a01b031614610b765760008036604051610b59929190613b3a565b604051809103902090505b80610b6f60026119f8565b03610b6457505b610b7f81611aa8565b50565b606060008054610b9190613b4a565b80601f0160208091040260200160405190810160405280929190818152602001828054610bbd90613b4a565b8015610c0a5780601f10610bdf57610100808354040283529160200191610c0a565b820191906000526020600020905b815481529060010190602001808311610bed57829003601f168201915b5050505050905090565b600080610c23868686866115df565b90506004610c308261107a565b6007811115610c4157610c4161372a565b14610c985760405162461bcd60e51b815260206004820152602160248201527f476f7665726e6f723a2070726f706f73616c206e6f74207375636365737366756044820152601b60fa1b6064820152608401610b27565b600a54604080517ff27a0c9200000000000000000000000000000000000000000000000000000000815290516000926001600160a01b03169163f27a0c929160048083019260209291908290030181865afa158015610cfb573d6000803e3d6000fd5b505050506040513d601f19601f82011682018060405250810190610d1f9190613b84565b600a546040517fb1c5f4270000000000000000000000000000000000000000000000000000000081529192506001600160a01b03169063b1c5f42790610d72908a908a908a906000908b90600401613c66565b602060405180830381865afa158015610d8f573d6000803e3d6000fd5b505050506040513d601f19601f82011682018060405250810190610db39190613b84565b6000838152600b602052604080822092909255600a5491517f8f2a0bb00000000000000000000000000000000000000000000000000000000081526001600160a01b0390921691638f2a0bb091610e17918b918b918b91908b908990600401613cb4565b600060405180830381600087803b158015610e3157600080fd5b505af1158015610e45573d6000803e3d6000fd5b505050507f9a2e42fd6722813d69113e7d0079d3d940171428df7373df9c7f7617cfda2892828242610e779190613d22565b6040805192835260208301919091520160405180910390a15095945050505050565b600080610ea8868686866115df565b90506000610eb58261107a565b90506004816007811115610ecb57610ecb61372a565b1480610ee857506005816007811115610ee657610ee661372a565b145b610f3e5760405162461bcd60e51b815260206004820152602160248201527f476f7665726e6f723a2070726f706f73616c206e6f74207375636365737366756044820152601b60fa1b6064820152608401610b27565b600082815260016020818152604092839020600201805460ff191690921790915590518381527f712ae1383f79ac853f8d882153778e0260ef8f03b504e2866e0593e04d2b291f910160405180910390a1610f9c8288888888611c0f565b610fa98288888888611cb1565b610fb68288888888611cbe565b5095945050505050565b600081815260016020908152604080832081519283019091525467ffffffffffffffff16908190525b67ffffffffffffffff1692915050565b60006109aa60045490565b604080517f150214d74d59b7d1e90c73fc22ef3d991dd0a76b046543d4d80ab92d2a50328f602082015290810186905260ff85166060820152600090819061105290610a6790608001610a4c565b905061106f87828860405180602001604052806000815250611cf7565b979650505050505050565b60006109ba82611d1a565b6000803390506110a684828560405180602001604052806000815250611cf7565b949350505050565b60008033905061106f87828888888080601f0160208091040260200160405190810160405280939291908181526020018383808284376000920191909152508a9250611878915050565b60095460009080820361110f575050600854919050565b6000600961111e600184613d35565b8154811061112e5761112e613d48565b60009182526020918290206040805180820190915291015463ffffffff81168083526401000000009091046001600160e01b0316928201929092529150841061118557602001516001600160e01b03169392505050565b6110a6600985611e96565b60006109aa610996565b6111a2610996565b6001600160a01b0316336001600160a01b0316146112025760405162461bcd60e51b815260206004820152601860248201527f476f7665726e6f723a206f6e6c79476f7665726e616e636500000000000000006044820152606401610b27565b3061120b610996565b6001600160a01b031614611248576000803660405161122b929190613b3a565b604051809103902090505b8061124160026119f8565b0361123657505b610b7f81611f57565b60008033905061129986828787878080601f016020809104026020016040519081016040528093929190818152602001838380828437600092019190915250611cf792505050565b9695505050505050565b60006112b185858585611f98565b95945050505050565b60006112c78484846122fb565b90505b9392505050565b600954600090156112f4576112e660096123aa565b6001600160e01b0316905090565b5060085490565b611303610996565b6001600160a01b0316336001600160a01b0316146113635760405162461bcd60e51b815260206004820152601860248201527f476f7665726e6f723a206f6e6c79476f7665726e616e636500000000000000006044820152606401610b27565b3061136c610996565b6001600160a01b0316146113a9576000803660405161138c929190613b3a565b604051809103902090505b806113a260026119f8565b0361139757505b610b7f816123db565b600a546000828152600b60205260408082205490517fd45c44350000000000000000000000000000000000000000000000000000000081526004810191909152909182916001600160a01b039091169063d45c443590602401602060405180830381865afa158015611428573d6000803e3d6000fd5b505050506040513d601f19601f8201168201806040525081019061144c9190613b84565b90508060011461145c57806112ca565b60009392505050565b60006109aa60065490565b600081815260016020818152604080842081519283019091529091015467ffffffffffffffff1690819052610fe9565b6114a8610996565b6001600160a01b0316336001600160a01b0316146115085760405162461bcd60e51b815260206004820152601860248201527f476f7665726e6f723a206f6e6c79476f7665726e616e636500000000000000006044820152606401610b27565b30611511610996565b6001600160a01b03161461154e5760008036604051611531929190613b3a565b604051809103902090505b8061154760026119f8565b0361153c57505b600080856001600160a01b031685858560405161156c929190613b3a565b60006040518083038185875af1925050503d80600081146115a9576040519150601f19603f3d011682016040523d82523d6000602084013e6115ae565b606091505b50915091506115d68282604051806060016040528060288152602001613fa66028913961245c565b50505050505050565b6000848484846040516020016115f89493929190613d5e565b60408051601f19818403018152919052805160209091012095945050505050565b611621610996565b6001600160a01b0316336001600160a01b0316146116815760405162461bcd60e51b815260206004820152601860248201527f476f7665726e6f723a206f6e6c79476f7665726e616e636500000000000000006044820152606401610b27565b3061168a610996565b6001600160a01b0316146116c757600080366040516116aa929190613b3a565b604051809103902090505b806116c060026119f8565b036116b557505b610b7f81612475565b60006112ca83836116ec60408051602081019091526000815290565b6122fb565b6116f9610996565b6001600160a01b0316336001600160a01b0316146117595760405162461bcd60e51b815260206004820152601860248201527f476f7665726e6f723a206f6e6c79476f7665726e616e636500000000000000006044820152606401610b27565b30611762610996565b6001600160a01b03161461179f5760008036604051611782929190613b3a565b604051809103902090505b8061179860026119f8565b0361178d57505b610b7f8161252c565b60006109ba8261256d565b60006001600160e01b031982167f6e665ced0000000000000000000000000000000000000000000000000000000014806109ba57506109ba82612630565b60006109ba6117fe6126ff565b836040517f19010000000000000000000000000000000000000000000000000000000000006020820152602281018390526042810182905260009060620160405160208183030381529060405280519060200120905092915050565b600080600061186b87878787612826565b91509150610fb6816128ea565b60008581526001602081905260408220906118928861107a565b60078111156118a3576118a361372a565b146119165760405162461bcd60e51b815260206004820152602360248201527f476f7665726e6f723a20766f7465206e6f742063757272656e746c792061637460448201527f69766500000000000000000000000000000000000000000000000000000000006064820152608401610b27565b6040805160208101909152815467ffffffffffffffff1690819052600090611940908890866122fb565b905061194f8888888488612a4f565b83516000036119a457866001600160a01b03167fb8e138887d0aa13bab447e82de9d5c1777041ecd21ca36ba824ff1e6c07ddda4898884896040516119979493929190613da9565b60405180910390a261106f565b866001600160a01b03167fe2babfbac5889a709b63bb7f598b324e08bc5a4fb9ec647fb3cbc9ec07eb871289888489896040516119e5959493929190613dd1565b60405180910390a2979650505050505050565b6000611a138254600f81810b600160801b909204900b131590565b15611a4a576040517f3db2a12a00000000000000000000000000000000000000000000000000000000815260040160405180910390fd5b508054600f0b6000818152600180840160205260408220805492905583547fffffffffffffffffffffffffffffffff000000000000000000000000000000001692016fffffffffffffffffffffffffffffffff169190911790915590565b6064811115611b455760405162461bcd60e51b815260206004820152604360248201527f476f7665726e6f72566f74657351756f72756d4672616374696f6e3a2071756f60448201527f72756d4e756d657261746f72206f7665722071756f72756d44656e6f6d696e6160648201527f746f720000000000000000000000000000000000000000000000000000000000608482015260a401610b27565b6000611b4f6112d1565b90508015801590611b605750600954155b15611bc557604080518082019091526000815260099060208101611b8384612be7565b6001600160e01b0390811690915282546001810184556000938452602093849020835194909301519091166401000000000263ffffffff909316929092179101555b611bd0600983612c6a565b505060408051828152602081018490527f0553476bf02ef2726e8ce5ced78d63e26e602e4a2257b1f559418e24b4633997910160405180910390a15050565b30611c18610996565b6001600160a01b031614611caa5760005b8451811015611ca857306001600160a01b0316858281518110611c4e57611c4e613d48565b60200260200101516001600160a01b031603611c9857611c98838281518110611c7957611c79613d48565b6020026020010151805190602001206002612ca090919063ffffffff16565b611ca181613e17565b9050611c29565b505b5050505050565b611caa8585858585612ce5565b30611cc7610996565b6001600160a01b031614611caa57600254600f81810b600160801b909204900b1315611caa576000600255611caa565b60006112b185858585611d1560408051602081019091526000815290565b611878565b600080611d2683612d72565b90506004816007811115611d3c57611d3c61372a565b14611d475792915050565b6000838152600b602052604090205480611d62575092915050565b600a546040517f2ab0f529000000000000000000000000000000000000000000000000000000008152600481018390526001600160a01b0390911690632ab0f52990602401602060405180830381865afa158015611dc4573d6000803e3d6000fd5b505050506040513d601f19601f82011682018060405250810190611de89190613e30565b15611df7575060079392505050565b600a546040517f584b153e000000000000000000000000000000000000000000000000000000008152600481018390526001600160a01b039091169063584b153e90602401602060405180830381865afa158015611e59573d6000803e3d6000fd5b505050506040513d601f19601f82011682018060405250810190611e7d9190613e30565b15611e8c575060059392505050565b5060029392505050565b6000438210611ee75760405162461bcd60e51b815260206004820181905260248201527f436865636b706f696e74733a20626c6f636b206e6f7420796574206d696e65646044820152606401610b27565b6000611ef283612e81565b84549091506000611f0586848385612efd565b90508015611f4157611f2a86611f1c600184613d35565b600091825260209091200190565b5464010000000090046001600160e01b0316611f44565b60005b6001600160e01b03169695505050505050565b60045460408051918252602082018390527fc565b045403dc03c2eea82b81a0465edad9e2e7fc4d97e11421c209da93d7a93910160405180910390a1600455565b6000611fa2611465565b611fb1336108d8600143613d35565b10156120255760405162461bcd60e51b815260206004820152603160248201527f476f7665726e6f723a2070726f706f73657220766f7465732062656c6f77207060448201527f726f706f73616c207468726573686f6c640000000000000000000000000000006064820152608401610b27565b600061203a86868686805190602001206115df565b905084518651146120975760405162461bcd60e51b815260206004820152602160248201527f476f7665726e6f723a20696e76616c69642070726f706f73616c206c656e67746044820152600d60fb1b6064820152608401610b27565b83518651146120f25760405162461bcd60e51b815260206004820152602160248201527f476f7665726e6f723a20696e76616c69642070726f706f73616c206c656e67746044820152600d60fb1b6064820152608401610b27565b60008651116121435760405162461bcd60e51b815260206004820152601860248201527f476f7665726e6f723a20656d7074792070726f706f73616c00000000000000006044820152606401610b27565b6000818152600160209081526040918290208251918201909252815467ffffffffffffffff1690819052156121e05760405162461bcd60e51b815260206004820152602160248201527f476f7665726e6f723a2070726f706f73616c20616c726561647920657869737460448201527f73000000000000000000000000000000000000000000000000000000000000006064820152608401610b27565b60006121f26121ed610ff9565b612f5b565b6121fb43612f5b565b6122059190613e52565b905060006122146121ed6109c0565b61221e9083613e52565b835467ffffffffffffffff191667ffffffffffffffff8416178455905060018301805467ffffffffffffffff191667ffffffffffffffff83161790557f7d84a6263ae0d98d3329bd7b46bb4e8d6f98cd35a7adb45c274c8b7fd5ebd5e084338b8b8d5167ffffffffffffffff81111561229957612299613280565b6040519080825280602002602001820160405280156122cc57816020015b60608152602001906001900390816122b75790505b508c88888e6040516122e699989796959493929190613e7a565b60405180910390a15091979650505050505050565b6040517f3a46b1a80000000000000000000000000000000000000000000000000000000081526001600160a01b038481166004830152602482018490526000917f000000000000000000000000000000000000000000000000000000000000000090911690633a46b1a890604401602060405180830381865afa158015612386573d6000803e3d6000fd5b505050506040513d601f19601f820116820180604052508101906112c79190613b84565b8054600090801561145c576123c483611f1c600184613d35565b5464010000000090046001600160e01b03166112ca565b600a54604080516001600160a01b03928316815291831660208301527f08f74ea46ef7894f65eabfb5e6e695de773a000b47c529ab559178069b226401910160405180910390a1600a80547fffffffffffffffffffffffff0000000000000000000000000000000000000000166001600160a01b0392909216919091179055565b6060831561246b5750816112ca565b6112ca8383612fdb565b600081116124eb5760405162461bcd60e51b815260206004820152602760248201527f476f7665726e6f7253657474696e67733a20766f74696e6720706572696f642060448201527f746f6f206c6f77000000000000000000000000000000000000000000000000006064820152608401610b27565b60055460408051918252602082018390527f7e3f7f0708a84de9203036abaa450dccc85ad5ff52f78c170f3edb55cf5e8828910160405180910390a1600555565b60065460408051918252602082018390527fccb45da8d5717e6c4544694297c4ba5cf151d455c9bb0ed4fc7a38411bc05461910160405180910390a1600655565b6000606461257a836110f8565b6040517f8e539e8c000000000000000000000000000000000000000000000000000000008152600481018590527f00000000000000000000000000000000000000000000000000000000000000006001600160a01b031690638e539e8c90602401602060405180830381865afa1580156125f8573d6000803e3d6000fd5b505050506040513d601f19601f8201168201806040525081019061261c9190613b84565b6126269190613f6c565b6109ba9190613f83565b60006001600160e01b031982167fbf26d89700000000000000000000000000000000000000000000000000000000148061269357506001600160e01b031982167f79dd796f00000000000000000000000000000000000000000000000000000000145b806126c757506001600160e01b031982167f4e2312e000000000000000000000000000000000000000000000000000000000145b806109ba57507f01ffc9a7000000000000000000000000000000000000000000000000000000006001600160e01b03198316146109ba565b6000306001600160a01b037f00000000000000000000000000000000000000000000000000000000000000001614801561275857507f000000000000000000000000000000000000000000000000000000000000000046145b1561278257507f000000000000000000000000000000000000000000000000000000000000000090565b50604080517f00000000000000000000000000000000000000000000000000000000000000006020808301919091527f0000000000000000000000000000000000000000000000000000000000000000828401527f000000000000000000000000000000000000000000000000000000000000000060608301524660808301523060a0808401919091528351808403909101815260c0909201909252805191012090565b6000807f7fffffffffffffffffffffffffffffff5d576e7357a4501ddfe92f46681b20a083111561285d57506000905060036128e1565b6040805160008082526020820180845289905260ff881692820192909252606081018690526080810185905260019060a0016020604051602081039080840390855afa1580156128b1573d6000803e3d6000fd5b5050604051601f1901519150506001600160a01b0381166128da576000600192509250506128e1565b9150600090505b94509492505050565b60008160048111156128fe576128fe61372a565b036129065750565b600181600481111561291a5761291a61372a565b036129675760405162461bcd60e51b815260206004820152601860248201527f45434453413a20696e76616c6964207369676e617475726500000000000000006044820152606401610b27565b600281600481111561297b5761297b61372a565b036129c85760405162461bcd60e51b815260206004820152601f60248201527f45434453413a20696e76616c6964207369676e6174757265206c656e677468006044820152606401610b27565b60038160048111156129dc576129dc61372a565b03610b7f5760405162461bcd60e51b815260206004820152602260248201527f45434453413a20696e76616c6964207369676e6174757265202773272076616c60448201527f75650000000000000000000000000000000000000000000000000000000000006064820152608401610b27565b60008581526007602090815260408083206001600160a01b0388168452600381019092529091205460ff1615612aed5760405162461bcd60e51b815260206004820152602760248201527f476f7665726e6f72566f74696e6753696d706c653a20766f746520616c72656160448201527f64792063617374000000000000000000000000000000000000000000000000006064820152608401610b27565b6001600160a01b03851660009081526003820160205260409020805460ff1916600117905560ff8416612b395782816000016000828254612b2e9190613d22565b90915550611ca89050565b60001960ff851601612b595782816001016000828254612b2e9190613d22565b60011960ff851601612b795782816002016000828254612b2e9190613d22565b60405162461bcd60e51b815260206004820152603560248201527f476f7665726e6f72566f74696e6753696d706c653a20696e76616c696420766160448201527f6c756520666f7220656e756d20566f74655479706500000000000000000000006064820152608401610b27565b60006001600160e01b03821115612c665760405162461bcd60e51b815260206004820152602760248201527f53616665436173743a2076616c756520646f65736e27742066697420696e203260448201527f32342062697473000000000000000000000000000000000000000000000000006064820152608401610b27565b5090565b600080612c8884612c7a43612e81565b612c8386612be7565b613005565b6001600160e01b0391821693501690505b9250929050565b8154600160801b90819004600f0b6000818152600180860160205260409091209390935583546fffffffffffffffffffffffffffffffff908116939091011602179055565b600a546040517fe38335e50000000000000000000000000000000000000000000000000000000081526001600160a01b039091169063e38335e5903490612d39908890889088906000908990600401613c66565b6000604051808303818588803b158015612d5257600080fd5b505af1158015612d66573d6000803e3d6000fd5b50505050505050505050565b6000818152600160205260408120600281015460ff1615612d965750600792915050565b6002810154610100900460ff1615612db15750600292915050565b6000612dbc84610fc0565b905080600003612e0e5760405162461bcd60e51b815260206004820152601d60248201527f476f7665726e6f723a20756e6b6e6f776e2070726f706f73616c2069640000006044820152606401610b27565b438110612e1f575060009392505050565b6000612e2a85611470565b9050438110612e3e57506001949350505050565b612e47856131ac565b8015612e66575060008581526007602052604090208054600190910154115b15612e7657506004949350505050565b506003949350505050565b600063ffffffff821115612c665760405162461bcd60e51b815260206004820152602660248201527f53616665436173743a2076616c756520646f65736e27742066697420696e203360448201527f32206269747300000000000000000000000000000000000000000000000000006064820152608401610b27565b60005b81831015612f53576000612f1484846131e3565b60008781526020902090915063ffffffff86169082015463ffffffff161115612f3f57809250612f4d565b612f4a816001613d22565b93505b50612f00565b509392505050565b600067ffffffffffffffff821115612c665760405162461bcd60e51b815260206004820152602660248201527f53616665436173743a2076616c756520646f65736e27742066697420696e203660448201527f34206269747300000000000000000000000000000000000000000000000000006064820152608401610b27565b815115612feb5781518083602001fd5b8060405162461bcd60e51b8152600401610b279190613445565b82546000908190801561314e57600061302387611f1c600185613d35565b60408051808201909152905463ffffffff8082168084526401000000009092046001600160e01b0316602084015291925090871610156130a55760405162461bcd60e51b815260206004820152601760248201527f436865636b706f696e743a20696e76616c6964206b65790000000000000000006044820152606401610b27565b805163ffffffff8088169116036130ee57846130c688611f1c600186613d35565b80546001600160e01b03929092166401000000000263ffffffff90921691909117905561313e565b6040805180820190915263ffffffff80881682526001600160e01b0380881660208085019182528b54600181018d5560008d81529190912094519151909216640100000000029216919091179101555b6020015192508391506131a49050565b50506040805180820190915263ffffffff80851682526001600160e01b0380851660208085019182528854600181018a5560008a8152918220955192519093166401000000000291909316179201919091559050815b935093915050565b6000818152600760205260408120600281015460018201546131ce9190613d22565b6131da61095d85610fc0565b11159392505050565b60006131f26002848418613f83565b6112ca90848416613d22565b60006020828403121561321057600080fd5b81356001600160e01b0319811681146112ca57600080fd5b803560ff8116811461323957600080fd5b919050565b60008083601f84011261325057600080fd5b50813567ffffffffffffffff81111561326857600080fd5b602083019150836020828501011115612c9957600080fd5b634e487b7160e01b600052604160045260246000fd5b604051601f8201601f1916810167ffffffffffffffff811182821017156132bf576132bf613280565b604052919050565b600067ffffffffffffffff8311156132e1576132e1613280565b6132f4601f8401601f1916602001613296565b905082815283838301111561330857600080fd5b828260208301376000602084830101529392505050565b600082601f83011261333057600080fd5b6112ca838335602085016132c7565b60008060008060008060008060e0898b03121561335b57600080fd5b8835975061336b60208a01613228565b9650604089013567ffffffffffffffff8082111561338857600080fd5b6133948c838d0161323e565b909850965060608b01359150808211156133ad57600080fd5b506133ba8b828c0161331f565b9450506133c960808a01613228565b925060a0890135915060c089013590509295985092959890939650565b6000602082840312156133f857600080fd5b5035919050565b6000815180845260005b8181101561342557602081850181015186830182015201613409565b506000602082860101526020601f19601f83011685010191505092915050565b6020815260006112ca60208301846133ff565b6001600160a01b0381168114610b7f57600080fd5b6000806000806080858703121561348357600080fd5b843561348e81613458565b9350602085013561349e81613458565b925060408501359150606085013567ffffffffffffffff8111156134c157600080fd5b6134cd8782880161331f565b91505092959194509250565b600067ffffffffffffffff8211156134f3576134f3613280565b5060051b60200190565b600082601f83011261350e57600080fd5b8135602061352361351e836134d9565b613296565b82815260059290921b8401810191818101908684111561354257600080fd5b8286015b8481101561356657803561355981613458565b8352918301918301613546565b509695505050505050565b600082601f83011261358257600080fd5b8135602061359261351e836134d9565b82815260059290921b840181019181810190868411156135b157600080fd5b8286015b8481101561356657803583529183019183016135b5565b600082601f8301126135dd57600080fd5b813560206135ed61351e836134d9565b82815260059290921b8401810191818101908684111561360c57600080fd5b8286015b8481101561356657803567ffffffffffffffff8111156136305760008081fd5b61363e8986838b010161331f565b845250918301918301613610565b6000806000806080858703121561366257600080fd5b843567ffffffffffffffff8082111561367a57600080fd5b613686888389016134fd565b9550602087013591508082111561369c57600080fd5b6136a888838901613571565b945060408701359150808211156136be57600080fd5b506136cb878288016135cc565b949793965093946060013593505050565b600080600080600060a086880312156136f457600080fd5b8535945061370460208701613228565b935061371260408701613228565b94979396509394606081013594506080013592915050565b634e487b7160e01b600052602160045260246000fd5b602081016008831061376257634e487b7160e01b600052602160045260246000fd5b91905290565b6000806040838503121561377b57600080fd5b82359150602083013561378d81613458565b809150509250929050565b600080604083850312156137ab57600080fd5b823591506137bb60208401613228565b90509250929050565b6000806000806000608086880312156137dc57600080fd5b853594506137ec60208701613228565b9350604086013567ffffffffffffffff8082111561380957600080fd5b61381589838a0161323e565b9095509350606088013591508082111561382e57600080fd5b5061383b8882890161331f565b9150509295509295909350565b6000806000806060858703121561385e57600080fd5b8435935061386e60208601613228565b9250604085013567ffffffffffffffff81111561388a57600080fd5b6138968782880161323e565b95989497509550505050565b600080600080608085870312156138b857600080fd5b843567ffffffffffffffff808211156138d057600080fd5b6138dc888389016134fd565b955060208701359150808211156138f257600080fd5b6138fe88838901613571565b9450604087013591508082111561391457600080fd5b613920888389016135cc565b9350606087013591508082111561393657600080fd5b508501601f8101871361394857600080fd5b6134cd878235602084016132c7565b60008060006060848603121561396c57600080fd5b833561397781613458565b925060208401359150604084013567ffffffffffffffff81111561399a57600080fd5b6139a68682870161331f565b9150509250925092565b6000602082840312156139c257600080fd5b81356112ca81613458565b600080600080600060a086880312156139e557600080fd5b85356139f081613458565b94506020860135613a0081613458565b9350604086013567ffffffffffffffff80821115613a1d57600080fd5b613a2989838a01613571565b94506060880135915080821115613a3f57600080fd5b613a4b89838a01613571565b9350608088013591508082111561382e57600080fd5b60008060008060608587031215613a7757600080fd5b8435613a8281613458565b935060208501359250604085013567ffffffffffffffff81111561388a57600080fd5b60008060408385031215613ab857600080fd5b8235613ac381613458565b946020939093013593505050565b600080600080600060a08688031215613ae957600080fd5b8535613af481613458565b94506020860135613b0481613458565b93506040860135925060608601359150608086013567ffffffffffffffff811115613b2e57600080fd5b61383b8882890161331f565b8183823760009101908152919050565b600181811c90821680613b5e57607f821691505b602082108103613b7e57634e487b7160e01b600052602260045260246000fd5b50919050565b600060208284031215613b9657600080fd5b5051919050565b600081518084526020808501945080840160005b83811015613bd65781516001600160a01b031687529582019590820190600101613bb1565b509495945050505050565b600081518084526020808501945080840160005b83811015613bd657815187529582019590820190600101613bf5565b600081518084526020808501808196508360051b8101915082860160005b85811015613c59578284038952613c478483516133ff565b98850198935090840190600101613c2f565b5091979650505050505050565b60a081526000613c7960a0830188613b9d565b8281036020840152613c8b8188613be1565b90508281036040840152613c9f8187613c11565b60608401959095525050608001529392505050565b60c081526000613cc760c0830189613b9d565b8281036020840152613cd98189613be1565b90508281036040840152613ced8188613c11565b60608401969096525050608081019290925260a0909101529392505050565b634e487b7160e01b600052601160045260246000fd5b808201808211156109ba576109ba613d0c565b818103818111156109ba576109ba613d0c565b634e487b7160e01b600052603260045260246000fd5b608081526000613d716080830187613b9d565b8281036020840152613d838187613be1565b90508281036040840152613d978186613c11565b91505082606083015295945050505050565b84815260ff8416602082015282604082015260806060820152600061129960808301846133ff565b85815260ff8516602082015283604082015260a060608201526000613df960a08301856133ff565b8281036080840152613e0b81856133ff565b98975050505050505050565b600060018201613e2957613e29613d0c565b5060010190565b600060208284031215613e4257600080fd5b815180151581146112ca57600080fd5b67ffffffffffffffff818116838216019080821115613e7357613e73613d0c565b5092915050565b60006101208b835260206001600160a01b038c1681850152816040850152613ea48285018c613b9d565b91508382036060850152613eb8828b613be1565b915083820360808501528189518084528284019150828160051b850101838c0160005b83811015613f0957601f19878403018552613ef78383516133ff565b94860194925090850190600101613edb565b505086810360a0880152613f1d818c613c11565b945050505050613f3960c084018767ffffffffffffffff169052565b67ffffffffffffffff851660e0840152828103610100840152613f5c81856133ff565b9c9b505050505050505050505050565b80820281158282048414176109ba576109ba613d0c565b600082613fa057634e487b7160e01b600052601260045260246000fd5b50049056fe476f7665726e6f723a2072656c617920726576657274656420776974686f7574206d657373616765a264697066735822122052df46db2f9e1b7e8d0b35f159dbd21c2508d18afc589afbcf4f6f77817ec3f064736f6c63430008130033",
  "linkReferences": {},
  "deployedLinkReferences": {}
}