{
  "_format": "hh-sol-artifact-1",
  "contractName": "GovernanceToken",
  "sourceName": "contracts/Governance/tokens/GovernanceToken.sol",
  "abi": [
    {
      "inputs": [
        {
          "internalType": "contract AggregatorV3Interface",
          "name": "_pricefeed",
          "type": "address"
        },
        {
          "internalType": "uint256",
          "name": "_intialSupply",
          "type": "uint256"
        }
      ],
      "stateMutability": "nonpayable",
      "type": "constructor"
    },
    {
      "anonymous": false,
      "inputs": [
        {
          "indexed": true,
          "internalType": "address",
          "name": "owner",
          "type": "address"
        },
        {
          "indexed": true,
          "internalType": "address",
          "name": "spender",
          "type": "address"
        },
        {
          "indexed": false,
          "internalType": "uint256",
          "name": "value",
          "type": "uint256"
        }
      ],
      "name": "Approval",
      "type": "event"
    },
    {
      "anonymous": false,
      "inputs": [
        {
          "indexed": true,
          "internalType": "address",
          "name": "delegator",
          "type": "address"
        },
        {
          "indexed": true,
          "internalType": "address",
          "name": "fromDelegate",
          "type": "address"
        },
        {
          "indexed": true,
          "internalType": "address",
          "name": "toDelegate",
          "type": "address"
        }
      ],
      "name": "DelegateChanged",
      "type": "event"
    },
    {
      "anonymous": false,
      "inputs": [
        {
          "indexed": true,
          "internalType": "address",
          "name": "delegate",
          "type": "address"
        },
        {
          "indexed": false,
          "internalType": "uint256",
          "name": "previousBalance",
          "type": "uint256"
        },
        {
          "indexed": false,
          "internalType": "uint256",
          "name": "newBalance",
          "type": "uint256"
        }
      ],
      "name": "DelegateVotesChanged",
      "type": "event"
    },
    {
      "anonymous": false,
      "inputs": [
        {
          "indexed": true,
          "internalType": "address",
          "name": "previousOwner",
          "type": "address"
        },
        {
          "indexed": true,
          "internalType": "address",
          "name": "newOwner",
          "type": "address"
        }
      ],
      "name": "OwnershipTransferred",
      "type": "event"
    },
    {
      "anonymous": false,
      "inputs": [
        {
          "indexed": true,
          "internalType": "address",
          "name": "from",
          "type": "address"
        },
        {
          "indexed": true,
          "internalType": "address",
          "name": "to",
          "type": "address"
        },
        {
          "indexed": false,
          "internalType": "uint256",
          "name": "value",
          "type": "uint256"
        }
      ],
      "name": "Transfer",
      "type": "event"
    },
    {
      "inputs": [],
      "name": "DOMAIN_SEPARATOR",
      "outputs": [
        {
          "internalType": "bytes32",
          "name": "",
          "type": "bytes32"
        }
      ],
      "stateMutability": "view",
      "type": "function"
    },
    {
      "inputs": [],
      "name": "PRECISION",
      "outputs": [
        {
          "internalType": "uint256",
          "name": "",
          "type": "uint256"
        }
      ],
      "stateMutability": "view",
      "type": "function"
    },
    {
      "inputs": [
        {
          "internalType": "address",
          "name": "owner",
          "type": "address"
        },
        {
          "internalType": "address",
          "name": "spender",
          "type": "address"
        }
      ],
      "name": "allowance",
      "outputs": [
        {
          "internalType": "uint256",
          "name": "",
          "type": "uint256"
        }
      ],
      "stateMutability": "view",
      "type": "function"
    },
    {
      "inputs": [
        {
          "internalType": "address",
          "name": "spender",
          "type": "address"
        },
        {
          "internalType": "uint256",
          "name": "amount",
          "type": "uint256"
        }
      ],
      "name": "approve",
      "outputs": [
        {
          "internalType": "bool",
          "name": "",
          "type": "bool"
        }
      ],
      "stateMutability": "nonpayable",
      "type": "function"
    },
    {
      "inputs": [
        {
          "internalType": "address",
          "name": "account",
          "type": "address"
        }
      ],
      "name": "balanceOf",
      "outputs": [
        {
          "internalType": "uint256",
          "name": "",
          "type": "uint256"
        }
      ],
      "stateMutability": "view",
      "type": "function"
    },
    {
      "inputs": [
        {
          "internalType": "address",
          "name": "account",
          "type": "address"
        },
        {
          "internalType": "uint256",
          "name": "amount",
          "type": "uint256"
        }
      ],
      "name": "burn",
      "outputs": [],
      "stateMutability": "nonpayable",
      "type": "function"
    },
    {
      "inputs": [
        {
          "internalType": "address",
          "name": "account",
          "type": "address"
        },
        {
          "internalType": "uint32",
          "name": "pos",
          "type": "uint32"
        }
      ],
      "name": "checkpoints",
      "outputs": [
        {
          "components": [
            {
              "internalType": "uint32",
              "name": "fromBlock",
              "type": "uint32"
            },
            {
              "internalType": "uint224",
              "name": "votes",
              "type": "uint224"
            }
          ],
          "internalType": "struct ERC20Votes.Checkpoint",
          "name": "",
          "type": "tuple"
        }
      ],
      "stateMutability": "view",
      "type": "function"
    },
    {
      "inputs": [],
      "name": "decimals",
      "outputs": [
        {
          "internalType": "uint8",
          "name": "",
          "type": "uint8"
        }
      ],
      "stateMutability": "view",
      "type": "function"
    },
    {
      "inputs": [
        {
          "internalType": "address",
          "name": "spender",
          "type": "address"
        },
        {
          "internalType": "uint256",
          "name": "subtractedValue",
          "type": "uint256"
        }
      ],
      "name": "decreaseAllowance",
      "outputs": [
        {
          "internalType": "bool",
          "name": "",
          "type": "bool"
        }
      ],
      "stateMutability": "nonpayable",
      "type": "function"
    },
    {
      "inputs": [
        {
          "internalType": "address",
          "name": "delegatee",
          "type": "address"
        }
      ],
      "name": "delegate",
      "outputs": [],
      "stateMutability": "nonpayable",
      "type": "function"
    },
    {
      "inputs": [
        {
          "internalType": "address",
          "name": "delegatee",
          "type": "address"
        },
        {
          "internalType": "uint256",
          "name": "nonce",
          "type": "uint256"
        },
        {
          "internalType": "uint256",
          "name": "expiry",
          "type": "uint256"
        },
        {
          "internalType": "uint8",
          "name": "v",
          "type": "uint8"
        },
        {
          "internalType": "bytes32",
          "name": "r",
          "type": "bytes32"
        },
        {
          "internalType": "bytes32",
          "name": "s",
          "type": "bytes32"
        }
      ],
      "name": "delegateBySig",
      "outputs": [],
      "stateMutability": "nonpayable",
      "type": "function"
    },
    {
      "inputs": [
        {
          "internalType": "address",
          "name": "account",
          "type": "address"
        }
      ],
      "name": "delegates",
      "outputs": [
        {
          "internalType": "address",
          "name": "",
          "type": "address"
        }
      ],
      "stateMutability": "view",
      "type": "function"
    },
    {
      "inputs": [
        {
          "internalType": "uint256",
          "name": "blockNumber",
          "type": "uint256"
        }
      ],
      "name": "getPastTotalSupply",
      "outputs": [
        {
          "internalType": "uint256",
          "name": "",
          "type": "uint256"
        }
      ],
      "stateMutability": "view",
      "type": "function"
    },
    {
      "inputs": [
        {
          "internalType": "address",
          "name": "account",
          "type": "address"
        },
        {
          "internalType": "uint256",
          "name": "blockNumber",
          "type": "uint256"
        }
      ],
      "name": "getPastVotes",
      "outputs": [
        {
          "internalType": "uint256",
          "name": "",
          "type": "uint256"
        }
      ],
      "stateMutability": "view",
      "type": "function"
    },
    {
      "inputs": [],
      "name": "getToken_Price",
      "outputs": [
        {
          "internalType": "uint256",
          "name": "",
          "type": "uint256"
        }
      ],
      "stateMutability": "view",
      "type": "function"
    },
    {
      "inputs": [
        {
          "internalType": "address",
          "name": "account",
          "type": "address"
        }
      ],
      "name": "getVotes",
      "outputs": [
        {
          "internalType": "uint256",
          "name": "",
          "type": "uint256"
        }
      ],
      "stateMutability": "view",
      "type": "function"
    },
    {
      "inputs": [
        {
          "internalType": "address",
          "name": "spender",
          "type": "address"
        },
        {
          "internalType": "uint256",
          "name": "addedValue",
          "type": "uint256"
        }
      ],
      "name": "increaseAllowance",
      "outputs": [
        {
          "internalType": "bool",
          "name": "",
          "type": "bool"
        }
      ],
      "stateMutability": "nonpayable",
      "type": "function"
    },
    {
      "inputs": [
        {
          "internalType": "uint256",
          "name": "_amount",
          "type": "uint256"
        },
        {
          "internalType": "bool",
          "name": "isUsd",
          "type": "bool"
        }
      ],
      "name": "mint",
      "outputs": [],
      "stateMutability": "payable",
      "type": "function"
    },
    {
      "inputs": [],
      "name": "name",
      "outputs": [
        {
          "internalType": "string",
          "name": "",
          "type": "string"
        }
      ],
      "stateMutability": "view",
      "type": "function"
    },
    {
      "inputs": [
        {
          "internalType": "address",
          "name": "owner",
          "type": "address"
        }
      ],
      "name": "nonces",
      "outputs": [
        {
          "internalType": "uint256",
          "name": "",
          "type": "uint256"
        }
      ],
      "stateMutability": "view",
      "type": "function"
    },
    {
      "inputs": [
        {
          "internalType": "address",
          "name": "account",
          "type": "address"
        }
      ],
      "name": "numCheckpoints",
      "outputs": [
        {
          "internalType": "uint32",
          "name": "",
          "type": "uint32"
        }
      ],
      "stateMutability": "view",
      "type": "function"
    },
    {
      "inputs": [],
      "name": "owner",
      "outputs": [
        {
          "internalType": "address",
          "name": "",
          "type": "address"
        }
      ],
      "stateMutability": "view",
      "type": "function"
    },
    {
      "inputs": [
        {
          "internalType": "address",
          "name": "owner",
          "type": "address"
        },
        {
          "internalType": "address",
          "name": "spender",
          "type": "address"
        },
        {
          "internalType": "uint256",
          "name": "value",
          "type": "uint256"
        },
        {
          "internalType": "uint256",
          "name": "deadline",
          "type": "uint256"
        },
        {
          "internalType": "uint8",
          "name": "v",
          "type": "uint8"
        },
        {
          "internalType": "bytes32",
          "name": "r",
          "type": "bytes32"
        },
        {
          "internalType": "bytes32",
          "name": "s",
          "type": "bytes32"
        }
      ],
      "name": "permit",
      "outputs": [],
      "stateMutability": "nonpayable",
      "type": "function"
    },
    {
      "inputs": [],
      "name": "priceFeed",
      "outputs": [
        {
          "internalType": "contract AggregatorV3Interface",
          "name": "",
          "type": "address"
        }
      ],
      "stateMutability": "view",
      "type": "function"
    },
    {
      "inputs": [],
      "name": "renounceOwnership",
      "outputs": [],
      "stateMutability": "nonpayable",
      "type": "function"
    },
    {
      "inputs": [],
      "name": "symbol",
      "outputs": [
        {
          "internalType": "string",
          "name": "",
          "type": "string"
        }
      ],
      "stateMutability": "view",
      "type": "function"
    },
    {
      "inputs": [],
      "name": "totalSupply",
      "outputs": [
        {
          "internalType": "uint256",
          "name": "",
          "type": "uint256"
        }
      ],
      "stateMutability": "view",
      "type": "function"
    },
    {
      "inputs": [
        {
          "internalType": "address",
          "name": "to",
          "type": "address"
        },
        {
          "internalType": "uint256",
          "name": "amount",
          "type": "uint256"
        }
      ],
      "name": "transfer",
      "outputs": [
        {
          "internalType": "bool",
          "name": "",
          "type": "bool"
        }
      ],
      "stateMutability": "nonpayable",
      "type": "function"
    },
    {
      "inputs": [
        {
          "internalType": "address",
          "name": "from",
          "type": "address"
        },
        {
          "internalType": "address",
          "name": "to",
          "type": "address"
        },
        {
          "internalType": "uint256",
          "name": "amount",
          "type": "uint256"
        }
      ],
      "name": "transferFrom",
      "outputs": [
        {
          "internalType": "bool",
          "name": "",
          "type": "bool"
        }
      ],
      "stateMutability": "nonpayable",
      "type": "function"
    },
    {
      "inputs": [
        {
          "internalType": "address",
          "name": "newOwner",
          "type": "address"
        }
      ],
      "name": "transferOwnership",
      "outputs": [],
      "stateMutability": "nonpayable",
      "type": "function"
    }
  ],
  "bytecode": "0x610140604052670de0b6b3a7640000600b55670de0b6b3a7640000600d553480156200002a57600080fd5b50604051620031ea380380620031ea8339810160408190526200004d916200077d565b6040518060400160405280600f81526020016e23b7bb32b93730b731b2aa37b5b2b760891b81525080604051806040016040528060018152602001603160f81b8152506040518060400160405280600f81526020016e23b7bb32b93730b731b2aa37b5b2b760891b8152506040518060400160405280600281526020016111d560f21b8152508160039081620000e491906200085d565b506004620000f382826200085d565b5050825160209384012082519284019290922060e08390526101008190524660a0818152604080517f8b73c3c69bb8fe3d512ecc4cf759cc79239f7b179b0ffacaa9a75d522b39400f818901819052818301979097526060810194909452608080850193909352308483018190528151808603909301835260c094850190915281519190960120905292909252610120525062000192905033620001c1565b600c80546001600160a01b0319166001600160a01b038416179055620001b9338262000213565b50506200096b565b600a80546001600160a01b038381166001600160a01b0319831681179093556040519116919082907f8be0079c531659141344cd1fd0a4f28419497f9722a3daafe3b4186f6b6457e090600090a35050565b6200021f828262000223565b5050565b6200022f8282620002cf565b6001600160e01b03620002436200039c8216565b1115620002b05760405162461bcd60e51b815260206004820152603060248201527f4552433230566f7465733a20746f74616c20737570706c79207269736b73206f60448201526f766572666c6f77696e6720766f74657360801b60648201526084015b60405180910390fd5b620002c9600962001065620003a260201b1783620003b9565b50505050565b6001600160a01b038216620003275760405162461bcd60e51b815260206004820152601f60248201527f45524332303a206d696e7420746f20746865207a65726f2061646472657373006044820152606401620002a7565b80600260008282546200033b91906200093f565b90915550506001600160a01b038216600081815260208181526040808320805486019055518481527fddf252ad1be2c89b69c2b068fc378daa952ba7f163c4a11628f55a4df523b3ef910160405180910390a36200021f6000838362000535565b60025490565b6000620003b082846200093f565b90505b92915050565b825460009081908181156200041957620003e887620003da60018562000955565b600091825260209091200190565b60408051808201909152905463ffffffff8116825264010000000090046001600160e01b031660208201526200042e565b60408051808201909152600080825260208201525b905080602001516001600160e01b031693506200044c84868860201c565b9250600082118015620004655750805163ffffffff1643145b15620004b157620004768362000542565b6200048888620003da60018662000955565b80546001600160e01b03929092166401000000000263ffffffff90921691909117905562000526565b866040518060400160405280620004ce43620005b160201b60201c565b63ffffffff168152602001620004e48662000542565b6001600160e01b0390811690915282546001810184556000938452602093849020835194909301519091166401000000000263ffffffff909316929092179101555b5050935093915050565b505050565b6200053083838362000618565b60006001600160e01b03821115620005ad5760405162461bcd60e51b815260206004820152602760248201527f53616665436173743a2076616c756520646f65736e27742066697420696e20326044820152663234206269747360c81b6064820152608401620002a7565b5090565b600063ffffffff821115620005ad5760405162461bcd60e51b815260206004820152602660248201527f53616665436173743a2076616c756520646f65736e27742066697420696e203360448201526532206269747360d01b6064820152608401620002a7565b6001600160a01b038381166000908152600760205260408082205485841683529120546200053092918216911683818314801590620006575750600081115b1562000530576001600160a01b03831615620006e4576001600160a01b038316600090815260086020908152604082208291620006a191906200076f901b620010711785620003b9565b91509150846001600160a01b0316600080516020620031ca8339815191528383604051620006d9929190918252602082015260400190565b60405180910390a250505b6001600160a01b0382161562000530576001600160a01b038216600090815260086020908152604082208291620007289190620003a2901b620010651785620003b9565b91509150836001600160a01b0316600080516020620031ca833981519152838360405162000760929190918252602082015260400190565b60405180910390a25050505050565b6000620003b0828462000955565b600080604083850312156200079157600080fd5b82516001600160a01b0381168114620007a957600080fd5b6020939093015192949293505050565b634e487b7160e01b600052604160045260246000fd5b600181811c90821680620007e457607f821691505b6020821081036200080557634e487b7160e01b600052602260045260246000fd5b50919050565b601f8211156200053057600081815260208120601f850160051c81016020861015620008345750805b601f850160051c820191505b81811015620008555782815560010162000840565b505050505050565b81516001600160401b03811115620008795762000879620007b9565b62000891816200088a8454620007cf565b846200080b565b602080601f831160018114620008c95760008415620008b05750858301515b600019600386901b1c1916600185901b17855562000855565b600085815260208120601f198616915b82811015620008fa57888601518255948401946001909101908401620008d9565b5085821015620009195787850151600019600388901b60f8161c191681555b5050505050600190811b01905550565b634e487b7160e01b600052601160045260246000fd5b80820180821115620003b357620003b362000929565b81810381811115620003b357620003b362000929565b60805160a05160c05160e051610100516101205161280f620009bb60003960006114ef0152600061153e01526000611519015260006114720152600061149c015260006114c6015261280f6000f3fe6080604052600436106101cd5760003560e01c80637ecebe00116100f7578063a457c2d711610095578063d505accf11610064578063d505accf14610541578063dd62ed3e14610561578063f1127ed8146105a7578063f2fde38b146105f157600080fd5b8063a457c2d7146104cb578063a9059cbb146104eb578063aaf5eb681461050b578063c3cda5201461052157600080fd5b8063927dae1b116100d1578063927dae1b1461046157806395d89b41146104765780639ab24eb01461048b5780639dc29fac146104ab57600080fd5b80637ecebe00146104035780638da5cb5b146104235780638e539e8c1461044157600080fd5b80633a46b1a81161016f5780636fcfff451161013e5780636fcfff451461036357806370a0823114610398578063715018a6146103ce578063741bef1a146103e357600080fd5b80633a46b1a8146102bd578063587cde1e146102dd5780635c19a95c1461032e57806367f68fac1461035057600080fd5b806323b872dd116101ab57806323b872dd1461024c578063313ce5671461026c5780633644e51514610288578063395093511461029d57600080fd5b806306fdde03146101d2578063095ea7b3146101fd57806318160ddd1461022d575b600080fd5b3480156101de57600080fd5b506101e7610611565b6040516101f491906123ff565b60405180910390f35b34801561020957600080fd5b5061021d61021836600461242e565b6106a3565b60405190151581526020016101f4565b34801561023957600080fd5b506002545b6040519081526020016101f4565b34801561025857600080fd5b5061021d610267366004612458565b6106bd565b34801561027857600080fd5b50604051601281526020016101f4565b34801561029457600080fd5b5061023e6106e1565b3480156102a957600080fd5b5061021d6102b836600461242e565b6106f0565b3480156102c957600080fd5b5061023e6102d836600461242e565b61072f565b3480156102e957600080fd5b506103166102f8366004612494565b6001600160a01b039081166000908152600760205260409020541690565b6040516001600160a01b0390911681526020016101f4565b34801561033a57600080fd5b5061034e610349366004612494565b6107ae565b005b61034e61035e3660046124af565b6107bb565b34801561036f57600080fd5b5061038361037e366004612494565b610aaa565b60405163ffffffff90911681526020016101f4565b3480156103a457600080fd5b5061023e6103b3366004612494565b6001600160a01b031660009081526020819052604090205490565b3480156103da57600080fd5b5061034e610acc565b3480156103ef57600080fd5b50600c54610316906001600160a01b031681565b34801561040f57600080fd5b5061023e61041e366004612494565b610ae0565b34801561042f57600080fd5b50600a546001600160a01b0316610316565b34801561044d57600080fd5b5061023e61045c3660046124e4565b610afe565b34801561046d57600080fd5b50600b5461023e565b34801561048257600080fd5b506101e7610b5a565b34801561049757600080fd5b5061023e6104a6366004612494565b610b69565b3480156104b757600080fd5b5061034e6104c636600461242e565b610bf0565b3480156104d757600080fd5b5061021d6104e636600461242e565b610c02565b3480156104f757600080fd5b5061021d61050636600461242e565b610cac565b34801561051757600080fd5b5061023e600d5481565b34801561052d57600080fd5b5061034e61053c36600461250e565b610cba565b34801561054d57600080fd5b5061034e61055c366004612566565b610df0565b34801561056d57600080fd5b5061023e61057c3660046125d0565b6001600160a01b03918216600090815260016020908152604080832093909416825291909152205490565b3480156105b357600080fd5b506105c76105c2366004612603565b610f54565b60408051825163ffffffff1681526020928301516001600160e01b031692810192909252016101f4565b3480156105fd57600080fd5b5061034e61060c366004612494565b610fd8565b60606003805461062090612638565b80601f016020809104026020016040519081016040528092919081815260200182805461064c90612638565b80156106995780601f1061066e57610100808354040283529160200191610699565b820191906000526020600020905b81548152906001019060200180831161067c57829003601f168201915b5050505050905090565b6000336106b181858561107d565b60019150505b92915050565b6000336106cb8582856111d5565b6106d6858585611267565b506001949350505050565b60006106eb611465565b905090565b3360008181526001602090815260408083206001600160a01b03871684529091528120549091906106b1908290869061072a908790612682565b61107d565b60004382106107855760405162461bcd60e51b815260206004820152601f60248201527f4552433230566f7465733a20626c6f636b206e6f7420796574206d696e65640060448201526064015b60405180910390fd5b6001600160a01b03831660009081526008602052604090206107a7908361158c565b9392505050565b6107b83382611683565b50565b8015610a3d57600c54604080517ffeaf968c00000000000000000000000000000000000000000000000000000000815290516000926001600160a01b03169163feaf968c9160048083019260a09291908290030181865afa158015610824573d6000803e3d6000fd5b505050506040513d601f19601f8201168201806040525081019061084891906126af565b50505091505061089a6040518060400160405280601581526020017f285f616d6f756e74202a20505245434953494f4e290000000000000000000000815250600d548561089591906126ff565b611709565b6108c56040518060600160405280602a81526020016127b0602a91396108956402540be400846126ff565b60006108d66402540be400836126ff565b600d546108e381876126ff565b6108ed91906126ff565b6108f7919061272c565b90506109386040518060400160405280601b81526020017f657468416d6f756e742066726f6d2074686520636f6e7472616374000000000081525082611709565b60408051808201909152601881527f28746f6b656e5072696365202a20505245434953494f4e2900000000000000006020820152600d546001916109809161089590846126ff565b6000600d548261099091906126ff565b61099a908461272c565b90506109db6040518060400160405280601d81526020017f616d6f756e546f4d696e742066726f6d2074686520636f6e747261637400000081525082611709565b82341015610a2b5760405162461bcd60e51b815260206004820152601c60248201527f496e73756666696369656e74204554482073656e74206f722055534400000000604482015260640161077c565b610a353382611767565b505050505050565b600b54610a4a90836126ff565b341015610a995760405162461bcd60e51b815260206004820152601560248201527f496e73756666696369656e74204554482073656e740000000000000000000000604482015260640161077c565b81610aa43382611767565b505b5050565b6001600160a01b0381166000908152600860205260408120546106b790611771565b610ad46117f1565b610ade600061184b565b565b6001600160a01b0381166000908152600560205260408120546106b7565b6000438210610b4f5760405162461bcd60e51b815260206004820152601f60248201527f4552433230566f7465733a20626c6f636b206e6f7420796574206d696e656400604482015260640161077c565b6106b760098361158c565b60606004805461062090612638565b6001600160a01b0381166000908152600860205260408120548015610bdd576001600160a01b0383166000908152600860205260409020610bab60018361274e565b81548110610bbb57610bbb612761565b60009182526020909120015464010000000090046001600160e01b0316610be0565b60005b6001600160e01b03169392505050565b610bf86117f1565b610aa682826118aa565b3360008181526001602090815260408083206001600160a01b038716845290915281205490919083811015610c9f5760405162461bcd60e51b815260206004820152602560248201527f45524332303a2064656372656173656420616c6c6f77616e63652062656c6f7760448201527f207a65726f000000000000000000000000000000000000000000000000000000606482015260840161077c565b6106d6828686840361107d565b6000336106b1818585611267565b83421115610d0a5760405162461bcd60e51b815260206004820152601d60248201527f4552433230566f7465733a207369676e61747572652065787069726564000000604482015260640161077c565b604080517fe48329057bfd03d55e49b547132e39cffd9c1820ad7b9d4c5307691425d15adf60208201526001600160a01b038816918101919091526060810186905260808101859052600090610d8490610d7c9060a001604051602081830303815290604052805190602001206118c2565b85858561192b565b9050610d8f81611953565b8614610ddd5760405162461bcd60e51b815260206004820152601960248201527f4552433230566f7465733a20696e76616c6964206e6f6e636500000000000000604482015260640161077c565b610de78188611683565b50505050505050565b83421115610e405760405162461bcd60e51b815260206004820152601d60248201527f45524332305065726d69743a206578706972656420646561646c696e65000000604482015260640161077c565b60007f6e71edae12b1b97f4d1f60370fef10105fa2faae0126114a169c64845d6126c9888888610e6f8c611953565b6040805160208101969096526001600160a01b0394851690860152929091166060840152608083015260a082015260c0810186905260e0016040516020818303038152906040528051906020012090506000610eca826118c2565b90506000610eda8287878761192b565b9050896001600160a01b0316816001600160a01b031614610f3d5760405162461bcd60e51b815260206004820152601e60248201527f45524332305065726d69743a20696e76616c6964207369676e61747572650000604482015260640161077c565b610f488a8a8a61107d565b50505050505050505050565b60408051808201909152600080825260208201526001600160a01b0383166000908152600860205260409020805463ffffffff8416908110610f9857610f98612761565b60009182526020918290206040805180820190915291015463ffffffff8116825264010000000090046001600160e01b0316918101919091529392505050565b610fe06117f1565b6001600160a01b03811661105c5760405162461bcd60e51b815260206004820152602660248201527f4f776e61626c653a206e6577206f776e657220697320746865207a65726f206160448201527f6464726573730000000000000000000000000000000000000000000000000000606482015260840161077c565b6107b88161184b565b60006107a78284612682565b60006107a7828461274e565b6001600160a01b0383166110f85760405162461bcd60e51b8152602060048201526024808201527f45524332303a20617070726f76652066726f6d20746865207a65726f2061646460448201527f7265737300000000000000000000000000000000000000000000000000000000606482015260840161077c565b6001600160a01b0382166111745760405162461bcd60e51b815260206004820152602260248201527f45524332303a20617070726f766520746f20746865207a65726f20616464726560448201527f7373000000000000000000000000000000000000000000000000000000000000606482015260840161077c565b6001600160a01b0383811660008181526001602090815260408083209487168084529482529182902085905590518481527f8c5be1e5ebec7d5bd14f71427d1e84f3dd0314c0f7b2291e5b200ac8c7c3b925910160405180910390a3505050565b6001600160a01b03838116600090815260016020908152604080832093861683529290522054600019811461126157818110156112545760405162461bcd60e51b815260206004820152601d60248201527f45524332303a20696e73756666696369656e7420616c6c6f77616e6365000000604482015260640161077c565b611261848484840361107d565b50505050565b6001600160a01b0383166112e35760405162461bcd60e51b815260206004820152602560248201527f45524332303a207472616e736665722066726f6d20746865207a65726f20616460448201527f6472657373000000000000000000000000000000000000000000000000000000606482015260840161077c565b6001600160a01b03821661135f5760405162461bcd60e51b815260206004820152602360248201527f45524332303a207472616e7366657220746f20746865207a65726f206164647260448201527f6573730000000000000000000000000000000000000000000000000000000000606482015260840161077c565b61136a838383610aa4565b6001600160a01b038316600090815260208190526040902054818110156113f95760405162461bcd60e51b815260206004820152602660248201527f45524332303a207472616e7366657220616d6f756e742065786365656473206260448201527f616c616e63650000000000000000000000000000000000000000000000000000606482015260840161077c565b6001600160a01b03848116600081815260208181526040808320878703905593871680835291849020805487019055925185815290927fddf252ad1be2c89b69c2b068fc378daa952ba7f163c4a11628f55a4df523b3ef910160405180910390a361126184848461197b565b6000306001600160a01b037f0000000000000000000000000000000000000000000000000000000000000000161480156114be57507f000000000000000000000000000000000000000000000000000000000000000046145b156114e857507f000000000000000000000000000000000000000000000000000000000000000090565b50604080517f00000000000000000000000000000000000000000000000000000000000000006020808301919091527f0000000000000000000000000000000000000000000000000000000000000000828401527f000000000000000000000000000000000000000000000000000000000000000060608301524660808301523060a0808401919091528351808403909101815260c0909201909252805191012090565b8154600090818160058111156115e65760006115a784611986565b6115b1908561274e565b600088815260209020909150869082015463ffffffff1611156115d6578091506115e4565b6115e1816001612682565b92505b505b808210156116335760006115fa8383611a6e565b600088815260209020909150869082015463ffffffff16111561161f5780915061162d565b61162a816001612682565b92505b506115e6565b801561166d576116568661164860018461274e565b600091825260209091200190565b5464010000000090046001600160e01b0316611670565b60005b6001600160e01b03169695505050505050565b6001600160a01b0382811660008181526007602081815260408084208054858452828620549490935287871673ffffffffffffffffffffffffffffffffffffffff198416811790915590519190951694919391928592917f3134e8a2e6d97e929a7e54011ea5485d7d196dd5f0ba4d4ef95803e8e3fc257f9190a4611261828483611a89565b610aa6828260405160240161171f929190612777565b60408051601f198184030181529190526020810180516001600160e01b03167fb60e72cc00000000000000000000000000000000000000000000000000000000179052611bc6565b610aa68282611bcf565b600063ffffffff8211156117ed5760405162461bcd60e51b815260206004820152602660248201527f53616665436173743a2076616c756520646f65736e27742066697420696e203360448201527f3220626974730000000000000000000000000000000000000000000000000000606482015260840161077c565b5090565b600a546001600160a01b03163314610ade5760405162461bcd60e51b815260206004820181905260248201527f4f776e61626c653a2063616c6c6572206973206e6f7420746865206f776e6572604482015260640161077c565b600a80546001600160a01b0383811673ffffffffffffffffffffffffffffffffffffffff19831681179093556040519116919082907f8be0079c531659141344cd1fd0a4f28419497f9722a3daafe3b4186f6b6457e090600090a35050565b6118b48282611c66565b611261600961107183611de2565b60006106b76118cf611465565b836040517f19010000000000000000000000000000000000000000000000000000000000006020820152602281018390526042810182905260009060620160405160208183030381529060405280519060200120905092915050565b600080600061193c87878787611f36565b9150915061194981611ffa565b5095945050505050565b6001600160a01b03811660009081526005602052604090208054600181018255905b50919050565b610aa483838361215f565b60008160000361199857506000919050565b600060016119a58461219c565b901c6001901b905060018184816119be576119be612716565b048201901c905060018184816119d6576119d6612716565b048201901c905060018184816119ee576119ee612716565b048201901c90506001818481611a0657611a06612716565b048201901c90506001818481611a1e57611a1e612716565b048201901c90506001818481611a3657611a36612716565b048201901c90506001818481611a4e57611a4e612716565b048201901c90506107a781828581611a6857611a68612716565b04612230565b6000611a7d600284841861272c565b6107a790848416612682565b816001600160a01b0316836001600160a01b031614158015611aab5750600081115b15610aa4576001600160a01b03831615611b39576001600160a01b03831660009081526008602052604081208190611ae69061107185611de2565b91509150846001600160a01b03167fdec2bacdd2f05b59de34da9b523dff8be42e5e38e818c82fdb0bae774387a7248383604051611b2e929190918252602082015260400190565b60405180910390a250505b6001600160a01b03821615610aa4576001600160a01b03821660009081526008602052604081208190611b6f9061106585611de2565b91509150836001600160a01b03167fdec2bacdd2f05b59de34da9b523dff8be42e5e38e818c82fdb0bae774387a7248383604051611bb7929190918252602082015260400190565b60405180910390a25050505050565b6107b881612246565b611bd98282612267565b6002546001600160e01b031015611c585760405162461bcd60e51b815260206004820152603060248201527f4552433230566f7465733a20746f74616c20737570706c79207269736b73206f60448201527f766572666c6f77696e6720766f74657300000000000000000000000000000000606482015260840161077c565b611261600961106583611de2565b6001600160a01b038216611ce25760405162461bcd60e51b815260206004820152602160248201527f45524332303a206275726e2066726f6d20746865207a65726f2061646472657360448201527f7300000000000000000000000000000000000000000000000000000000000000606482015260840161077c565b611cee82600083610aa4565b6001600160a01b03821660009081526020819052604090205481811015611d7d5760405162461bcd60e51b815260206004820152602260248201527f45524332303a206275726e20616d6f756e7420657863656564732062616c616e60448201527f6365000000000000000000000000000000000000000000000000000000000000606482015260840161077c565b6001600160a01b0383166000818152602081815260408083208686039055600280548790039055518581529192917fddf252ad1be2c89b69c2b068fc378daa952ba7f163c4a11628f55a4df523b3ef910160405180910390a3610aa48360008461197b565b82546000908190818115611e2f57611dff8761164860018561274e565b60408051808201909152905463ffffffff8116825264010000000090046001600160e01b03166020820152611e44565b60408051808201909152600080825260208201525b905080602001516001600160e01b03169350611e6484868863ffffffff16565b9250600082118015611e7c5750805163ffffffff1643145b15611ec157611e8a8361233a565b611e998861164860018661274e565b80546001600160e01b03929092166401000000000263ffffffff909216919091179055611f2c565b866040518060400160405280611ed643611771565b63ffffffff168152602001611eea8661233a565b6001600160e01b0390811690915282546001810184556000938452602093849020835194909301519091166401000000000263ffffffff909316929092179101555b5050935093915050565b6000807f7fffffffffffffffffffffffffffffff5d576e7357a4501ddfe92f46681b20a0831115611f6d5750600090506003611ff1565b6040805160008082526020820180845289905260ff881692820192909252606081018690526080810185905260019060a0016020604051602081039080840390855afa158015611fc1573d6000803e3d6000fd5b5050604051601f1901519150506001600160a01b038116611fea57600060019250925050611ff1565b9150600090505b94509492505050565b600081600481111561200e5761200e612799565b036120165750565b600181600481111561202a5761202a612799565b036120775760405162461bcd60e51b815260206004820152601860248201527f45434453413a20696e76616c6964207369676e61747572650000000000000000604482015260640161077c565b600281600481111561208b5761208b612799565b036120d85760405162461bcd60e51b815260206004820152601f60248201527f45434453413a20696e76616c6964207369676e6174757265206c656e67746800604482015260640161077c565b60038160048111156120ec576120ec612799565b036107b85760405162461bcd60e51b815260206004820152602260248201527f45434453413a20696e76616c6964207369676e6174757265202773272076616c60448201527f7565000000000000000000000000000000000000000000000000000000000000606482015260840161077c565b61216a838383610aa4565b6001600160a01b03838116600090815260076020526040808220548584168352912054610aa492918216911683611a89565b600080608083901c156121b157608092831c92015b604083901c156121c357604092831c92015b602083901c156121d557602092831c92015b601083901c156121e757601092831c92015b600883901c156121f957600892831c92015b600483901c1561220b57600492831c92015b600283901c1561221d57600292831c92015b600183901c156106b75760010192915050565b600081831061223f57816107a7565b5090919050565b60006a636f6e736f6c652e6c6f679050600080835160208501845afa505050565b6001600160a01b0382166122bd5760405162461bcd60e51b815260206004820152601f60248201527f45524332303a206d696e7420746f20746865207a65726f206164647265737300604482015260640161077c565b6122c960008383610aa4565b80600260008282546122db9190612682565b90915550506001600160a01b038216600081815260208181526040808320805486019055518481527fddf252ad1be2c89b69c2b068fc378daa952ba7f163c4a11628f55a4df523b3ef910160405180910390a3610aa66000838361197b565b60006001600160e01b038211156117ed5760405162461bcd60e51b815260206004820152602760248201527f53616665436173743a2076616c756520646f65736e27742066697420696e203260448201527f3234206269747300000000000000000000000000000000000000000000000000606482015260840161077c565b6000815180845260005b818110156123df576020818501810151868301820152016123c3565b506000602082860101526020601f19601f83011685010191505092915050565b6020815260006107a760208301846123b9565b80356001600160a01b038116811461242957600080fd5b919050565b6000806040838503121561244157600080fd5b61244a83612412565b946020939093013593505050565b60008060006060848603121561246d57600080fd5b61247684612412565b925061248460208501612412565b9150604084013590509250925092565b6000602082840312156124a657600080fd5b6107a782612412565b600080604083850312156124c257600080fd5b82359150602083013580151581146124d957600080fd5b809150509250929050565b6000602082840312156124f657600080fd5b5035919050565b803560ff8116811461242957600080fd5b60008060008060008060c0878903121561252757600080fd5b61253087612412565b9550602087013594506040870135935061254c606088016124fd565b92506080870135915060a087013590509295509295509295565b600080600080600080600060e0888a03121561258157600080fd5b61258a88612412565b965061259860208901612412565b955060408801359450606088013593506125b4608089016124fd565b925060a0880135915060c0880135905092959891949750929550565b600080604083850312156125e357600080fd5b6125ec83612412565b91506125fa60208401612412565b90509250929050565b6000806040838503121561261657600080fd5b61261f83612412565b9150602083013563ffffffff811681146124d957600080fd5b600181811c9082168061264c57607f821691505b60208210810361197557634e487b7160e01b600052602260045260246000fd5b634e487b7160e01b600052601160045260246000fd5b808201808211156106b7576106b761266c565b805169ffffffffffffffffffff8116811461242957600080fd5b600080600080600060a086880312156126c757600080fd5b6126d086612695565b94506020860151935060408601519250606086015191506126f360808701612695565b90509295509295909350565b80820281158282048414176106b7576106b761266c565b634e487b7160e01b600052601260045260246000fd5b60008261274957634e487b7160e01b600052601260045260246000fd5b500490565b818103818111156106b7576106b761266c565b634e487b7160e01b600052603260045260246000fd5b60408152600061278a60408301856123b9565b90508260208301529392505050565b634e487b7160e01b600052602160045260246000fdfe75696e7432353628707269636529202a204144444954494f4e414c5f464545445f505245434953494f4ea264697066735822122047626787b595cdd29d8aff159ccc6ee55750c8b0e50bc17cd54fd799a0e9739764736f6c63430008130033dec2bacdd2f05b59de34da9b523dff8be42e5e38e818c82fdb0bae774387a724",
  "linkReferences": {},
  "deployedLinkReferences": {}
}