{
  "_format": "hh-sol-artifact-1",
  "contractName": "FreeLanceDAO",
  "sourceName": "contracts/FreeLanceDAO.sol",
  "abi": [
    {
      "inputs": [
        {
          "internalType": "contract AggregatorV3Interface",
          "name": "_pricefeed",
          "type": "address"
        },
        {
          "internalType": "address",
          "name": "_governanceContract",
          "type": "address"
        }
      ],
      "stateMutability": "nonpayable",
      "type": "constructor"
    },
    {
      "inputs": [],
      "name": "INITIALRATING",
      "outputs": [
        {
          "internalType": "uint256",
          "name": "",
          "type": "uint256"
        }
      ],
      "stateMutability": "view",
      "type": "function"
    },
    {
      "inputs": [],
      "name": "MINIMUMUSD",
      "outputs": [
        {
          "internalType": "uint256",
          "name": "",
          "type": "uint256"
        }
      ],
      "stateMutability": "view",
      "type": "function"
    },
    {
      "inputs": [],
      "name": "PERCENT",
      "outputs": [
        {
          "internalType": "uint256",
          "name": "",
          "type": "uint256"
        }
      ],
      "stateMutability": "view",
      "type": "function"
    },
    {
      "inputs": [],
      "name": "PRECISION",
      "outputs": [
        {
          "internalType": "uint256",
          "name": "",
          "type": "uint256"
        }
      ],
      "stateMutability": "view",
      "type": "function"
    },
    {
      "inputs": [
        {
          "internalType": "uint256",
          "name": "projectId",
          "type": "uint256"
        }
      ],
      "name": "applyForTheProject",
      "outputs": [
        {
          "internalType": "bool",
          "name": "",
          "type": "bool"
        }
      ],
      "stateMutability": "nonpayable",
      "type": "function"
    },
    {
      "inputs": [
        {
          "internalType": "uint256",
          "name": "_amount",
          "type": "uint256"
        }
      ],
      "name": "calculatingUsdForEnroll",
      "outputs": [
        {
          "internalType": "uint256",
          "name": "",
          "type": "uint256"
        }
      ],
      "stateMutability": "view",
      "type": "function"
    },
    {
      "inputs": [
        {
          "internalType": "uint256",
          "name": "projectId",
          "type": "uint256"
        }
      ],
      "name": "cancelTheProject",
      "outputs": [
        {
          "internalType": "bool",
          "name": "",
          "type": "bool"
        }
      ],
      "stateMutability": "nonpayable",
      "type": "function"
    },
    {
      "inputs": [
        {
          "internalType": "uint256",
          "name": "",
          "type": "uint256"
        }
      ],
      "name": "clients",
      "outputs": [
        {
          "internalType": "address",
          "name": "",
          "type": "address"
        }
      ],
      "stateMutability": "view",
      "type": "function"
    },
    {
      "inputs": [
        {
          "internalType": "string",
          "name": "_name",
          "type": "string"
        },
        {
          "internalType": "string",
          "name": "_projectType",
          "type": "string"
        },
        {
          "internalType": "string",
          "name": "_description",
          "type": "string"
        },
        {
          "internalType": "uint256",
          "name": "_deadline",
          "type": "uint256"
        },
        {
          "internalType": "uint256",
          "name": "_amount",
          "type": "uint256"
        },
        {
          "internalType": "bool",
          "name": "_isUsd",
          "type": "bool"
        }
      ],
      "name": "createProject",
      "outputs": [
        {
          "internalType": "uint256",
          "name": "",
          "type": "uint256"
        }
      ],
      "stateMutability": "payable",
      "type": "function"
    },
    {
      "inputs": [],
      "name": "daoGovernance",
      "outputs": [
        {
          "internalType": "address",
          "name": "",
          "type": "address"
        }
      ],
      "stateMutability": "view",
      "type": "function"
    },
    {
      "inputs": [],
      "name": "enrollClient",
      "outputs": [],
      "stateMutability": "nonpayable",
      "type": "function"
    },
    {
      "inputs": [
        {
          "internalType": "string",
          "name": "_name",
          "type": "string"
        },
        {
          "internalType": "string",
          "name": "_skills",
          "type": "string"
        },
        {
          "internalType": "string",
          "name": "_bio",
          "type": "string"
        },
        {
          "internalType": "uint256",
          "name": "_amount",
          "type": "uint256"
        },
        {
          "internalType": "bool",
          "name": "isUsd",
          "type": "bool"
        }
      ],
      "name": "enrollFreelancer",
      "outputs": [],
      "stateMutability": "payable",
      "type": "function"
    },
    {
      "inputs": [
        {
          "internalType": "uint256",
          "name": "projectId",
          "type": "uint256"
        },
        {
          "internalType": "uint256",
          "name": "newDeadline",
          "type": "uint256"
        }
      ],
      "name": "extendDeadline",
      "outputs": [],
      "stateMutability": "nonpayable",
      "type": "function"
    },
    {
      "inputs": [
        {
          "internalType": "address",
          "name": "",
          "type": "address"
        }
      ],
      "name": "freelancerProfiles",
      "outputs": [
        {
          "internalType": "string",
          "name": "name",
          "type": "string"
        },
        {
          "internalType": "string",
          "name": "skills",
          "type": "string"
        },
        {
          "internalType": "string",
          "name": "bio",
          "type": "string"
        },
        {
          "internalType": "uint256",
          "name": "rating",
          "type": "uint256"
        }
      ],
      "stateMutability": "view",
      "type": "function"
    },
    {
      "inputs": [
        {
          "internalType": "address",
          "name": "",
          "type": "address"
        }
      ],
      "name": "freelancerRatings",
      "outputs": [
        {
          "internalType": "uint256",
          "name": "",
          "type": "uint256"
        }
      ],
      "stateMutability": "view",
      "type": "function"
    },
    {
      "inputs": [
        {
          "internalType": "uint256",
          "name": "",
          "type": "uint256"
        }
      ],
      "name": "freelancers",
      "outputs": [
        {
          "internalType": "address",
          "name": "",
          "type": "address"
        }
      ],
      "stateMutability": "view",
      "type": "function"
    },
    {
      "inputs": [],
      "name": "getClients",
      "outputs": [
        {
          "internalType": "address[]",
          "name": "",
          "type": "address[]"
        }
      ],
      "stateMutability": "view",
      "type": "function"
    },
    {
      "inputs": [
        {
          "internalType": "uint256",
          "name": "usdAmountInWei",
          "type": "uint256"
        }
      ],
      "name": "getEthEquivalent",
      "outputs": [
        {
          "internalType": "uint256",
          "name": "",
          "type": "uint256"
        }
      ],
      "stateMutability": "view",
      "type": "function"
    },
    {
      "inputs": [],
      "name": "getFreelancerCount",
      "outputs": [
        {
          "internalType": "uint256",
          "name": "",
          "type": "uint256"
        }
      ],
      "stateMutability": "view",
      "type": "function"
    },
    {
      "inputs": [
        {
          "internalType": "address",
          "name": "freelancer",
          "type": "address"
        }
      ],
      "name": "getFreelancerProfile",
      "outputs": [
        {
          "components": [
            {
              "internalType": "string",
              "name": "name",
              "type": "string"
            },
            {
              "internalType": "string",
              "name": "skills",
              "type": "string"
            },
            {
              "internalType": "string",
              "name": "bio",
              "type": "string"
            },
            {
              "internalType": "uint256",
              "name": "rating",
              "type": "uint256"
            }
          ],
          "internalType": "struct FreeLanceDAO.FreelancerProfile",
          "name": "",
          "type": "tuple"
        }
      ],
      "stateMutability": "view",
      "type": "function"
    },
    {
      "inputs": [
        {
          "internalType": "address",
          "name": "freelancer",
          "type": "address"
        }
      ],
      "name": "getFreelancerRating",
      "outputs": [
        {
          "internalType": "uint256",
          "name": "",
          "type": "uint256"
        }
      ],
      "stateMutability": "view",
      "type": "function"
    },
    {
      "inputs": [],
      "name": "getFreelancers",
      "outputs": [
        {
          "internalType": "address[]",
          "name": "",
          "type": "address[]"
        }
      ],
      "stateMutability": "view",
      "type": "function"
    },
    {
      "inputs": [
        {
          "internalType": "uint256",
          "name": "projectId",
          "type": "uint256"
        }
      ],
      "name": "getFreelancersForProject",
      "outputs": [
        {
          "internalType": "address[]",
          "name": "",
          "type": "address[]"
        }
      ],
      "stateMutability": "view",
      "type": "function"
    },
    {
      "inputs": [],
      "name": "getGovernanceAddress",
      "outputs": [
        {
          "internalType": "address",
          "name": "",
          "type": "address"
        }
      ],
      "stateMutability": "view",
      "type": "function"
    },
    {
      "inputs": [],
      "name": "getPlatformFee",
      "outputs": [
        {
          "internalType": "uint256",
          "name": "",
          "type": "uint256"
        }
      ],
      "stateMutability": "view",
      "type": "function"
    },
    {
      "inputs": [],
      "name": "getPriceFeedAddress",
      "outputs": [
        {
          "internalType": "contract AggregatorV3Interface",
          "name": "",
          "type": "address"
        }
      ],
      "stateMutability": "view",
      "type": "function"
    },
    {
      "inputs": [
        {
          "internalType": "uint256",
          "name": "projectId",
          "type": "uint256"
        }
      ],
      "name": "getProjectById",
      "outputs": [
        {
          "components": [
            {
              "internalType": "uint256",
              "name": "projectId",
              "type": "uint256"
            },
            {
              "internalType": "address",
              "name": "creatorOrOwner",
              "type": "address"
            },
            {
              "internalType": "string",
              "name": "name",
              "type": "string"
            },
            {
              "internalType": "string",
              "name": "projectType",
              "type": "string"
            },
            {
              "internalType": "string",
              "name": "description",
              "type": "string"
            },
            {
              "internalType": "uint256",
              "name": "deadline",
              "type": "uint256"
            },
            {
              "internalType": "uint256",
              "name": "amount",
              "type": "uint256"
            },
            {
              "internalType": "bool",
              "name": "isPaidToContract",
              "type": "bool"
            },
            {
              "internalType": "bool",
              "name": "isPaidToFreelancer",
              "type": "bool"
            },
            {
              "internalType": "bool",
              "name": "isCanceled",
              "type": "bool"
            },
            {
              "internalType": "bool",
              "name": "completed",
              "type": "bool"
            },
            {
              "internalType": "bool",
              "name": "isUsd",
              "type": "bool"
            }
          ],
          "internalType": "struct FreeLanceDAO.Project",
          "name": "",
          "type": "tuple"
        }
      ],
      "stateMutability": "view",
      "type": "function"
    },
    {
      "inputs": [],
      "name": "getProjects",
      "outputs": [
        {
          "components": [
            {
              "internalType": "uint256",
              "name": "projectId",
              "type": "uint256"
            },
            {
              "internalType": "address",
              "name": "creatorOrOwner",
              "type": "address"
            },
            {
              "internalType": "string",
              "name": "name",
              "type": "string"
            },
            {
              "internalType": "string",
              "name": "projectType",
              "type": "string"
            },
            {
              "internalType": "string",
              "name": "description",
              "type": "string"
            },
            {
              "internalType": "uint256",
              "name": "deadline",
              "type": "uint256"
            },
            {
              "internalType": "uint256",
              "name": "amount",
              "type": "uint256"
            },
            {
              "internalType": "bool",
              "name": "isPaidToContract",
              "type": "bool"
            },
            {
              "internalType": "bool",
              "name": "isPaidToFreelancer",
              "type": "bool"
            },
            {
              "internalType": "bool",
              "name": "isCanceled",
              "type": "bool"
            },
            {
              "internalType": "bool",
              "name": "completed",
              "type": "bool"
            },
            {
              "internalType": "bool",
              "name": "isUsd",
              "type": "bool"
            }
          ],
          "internalType": "struct FreeLanceDAO.Project[]",
          "name": "",
          "type": "tuple[]"
        }
      ],
      "stateMutability": "view",
      "type": "function"
    },
    {
      "inputs": [
        {
          "internalType": "uint256",
          "name": "projectId",
          "type": "uint256"
        }
      ],
      "name": "getSelectedFreelancer",
      "outputs": [
        {
          "internalType": "address",
          "name": "",
          "type": "address"
        }
      ],
      "stateMutability": "view",
      "type": "function"
    },
    {
      "inputs": [],
      "name": "getTotalPlatformFees",
      "outputs": [
        {
          "internalType": "uint256",
          "name": "",
          "type": "uint256"
        }
      ],
      "stateMutability": "view",
      "type": "function"
    },
    {
      "inputs": [],
      "name": "getTotalProjects",
      "outputs": [
        {
          "internalType": "uint256",
          "name": "",
          "type": "uint256"
        }
      ],
      "stateMutability": "view",
      "type": "function"
    },
    {
      "inputs": [
        {
          "internalType": "uint256",
          "name": "projectId",
          "type": "uint256"
        }
      ],
      "name": "hasDispute",
      "outputs": [
        {
          "internalType": "bool",
          "name": "",
          "type": "bool"
        }
      ],
      "stateMutability": "view",
      "type": "function"
    },
    {
      "inputs": [
        {
          "internalType": "uint256",
          "name": "projectId",
          "type": "uint256"
        },
        {
          "internalType": "address",
          "name": "freelancer",
          "type": "address"
        }
      ],
      "name": "hasFreelancerAppliedForProject",
      "outputs": [
        {
          "internalType": "bool",
          "name": "",
          "type": "bool"
        }
      ],
      "stateMutability": "view",
      "type": "function"
    },
    {
      "inputs": [
        {
          "internalType": "uint256",
          "name": "",
          "type": "uint256"
        }
      ],
      "name": "idToProject",
      "outputs": [
        {
          "internalType": "uint256",
          "name": "projectId",
          "type": "uint256"
        },
        {
          "internalType": "address",
          "name": "creatorOrOwner",
          "type": "address"
        },
        {
          "internalType": "string",
          "name": "name",
          "type": "string"
        },
        {
          "internalType": "string",
          "name": "projectType",
          "type": "string"
        },
        {
          "internalType": "string",
          "name": "description",
          "type": "string"
        },
        {
          "internalType": "uint256",
          "name": "deadline",
          "type": "uint256"
        },
        {
          "internalType": "uint256",
          "name": "amount",
          "type": "uint256"
        },
        {
          "internalType": "bool",
          "name": "isPaidToContract",
          "type": "bool"
        },
        {
          "internalType": "bool",
          "name": "isPaidToFreelancer",
          "type": "bool"
        },
        {
          "internalType": "bool",
          "name": "isCanceled",
          "type": "bool"
        },
        {
          "internalType": "bool",
          "name": "completed",
          "type": "bool"
        },
        {
          "internalType": "bool",
          "name": "isUsd",
          "type": "bool"
        }
      ],
      "stateMutability": "view",
      "type": "function"
    },
    {
      "inputs": [
        {
          "internalType": "address",
          "name": "_user",
          "type": "address"
        }
      ],
      "name": "isFreelancerEnrolledOrNot",
      "outputs": [
        {
          "internalType": "bool",
          "name": "",
          "type": "bool"
        }
      ],
      "stateMutability": "view",
      "type": "function"
    },
    {
      "inputs": [
        {
          "internalType": "uint256",
          "name": "projectId",
          "type": "uint256"
        }
      ],
      "name": "isProjectCanceled",
      "outputs": [
        {
          "internalType": "bool",
          "name": "",
          "type": "bool"
        }
      ],
      "stateMutability": "view",
      "type": "function"
    },
    {
      "inputs": [
        {
          "internalType": "uint256",
          "name": "projectId",
          "type": "uint256"
        }
      ],
      "name": "isProjectCompleted",
      "outputs": [
        {
          "internalType": "bool",
          "name": "",
          "type": "bool"
        }
      ],
      "stateMutability": "view",
      "type": "function"
    },
    {
      "inputs": [
        {
          "internalType": "uint256",
          "name": "projectId",
          "type": "uint256"
        }
      ],
      "name": "isProjectPicked",
      "outputs": [
        {
          "internalType": "bool",
          "name": "",
          "type": "bool"
        }
      ],
      "stateMutability": "view",
      "type": "function"
    },
    {
      "inputs": [
        {
          "internalType": "uint256",
          "name": "projectId",
          "type": "uint256"
        }
      ],
      "name": "isProjectSelectedByOwner",
      "outputs": [
        {
          "internalType": "bool",
          "name": "",
          "type": "bool"
        }
      ],
      "stateMutability": "view",
      "type": "function"
    },
    {
      "inputs": [
        {
          "internalType": "uint256",
          "name": "usdAmountInWei",
          "type": "uint256"
        }
      ],
      "name": "price",
      "outputs": [
        {
          "internalType": "uint256",
          "name": "",
          "type": "uint256"
        }
      ],
      "stateMutability": "view",
      "type": "function"
    },
    {
      "inputs": [],
      "name": "priceFeed",
      "outputs": [
        {
          "internalType": "contract AggregatorV3Interface",
          "name": "",
          "type": "address"
        }
      ],
      "stateMutability": "view",
      "type": "function"
    },
    {
      "inputs": [],
      "name": "priceOfEthInUsd",
      "outputs": [
        {
          "internalType": "uint256",
          "name": "",
          "type": "uint256"
        }
      ],
      "stateMutability": "view",
      "type": "function"
    },
    {
      "inputs": [
        {
          "internalType": "uint256",
          "name": "",
          "type": "uint256"
        }
      ],
      "name": "projects",
      "outputs": [
        {
          "internalType": "uint256",
          "name": "projectId",
          "type": "uint256"
        },
        {
          "internalType": "address",
          "name": "creatorOrOwner",
          "type": "address"
        },
        {
          "internalType": "string",
          "name": "name",
          "type": "string"
        },
        {
          "internalType": "string",
          "name": "projectType",
          "type": "string"
        },
        {
          "internalType": "string",
          "name": "description",
          "type": "string"
        },
        {
          "internalType": "uint256",
          "name": "deadline",
          "type": "uint256"
        },
        {
          "internalType": "uint256",
          "name": "amount",
          "type": "uint256"
        },
        {
          "internalType": "bool",
          "name": "isPaidToContract",
          "type": "bool"
        },
        {
          "internalType": "bool",
          "name": "isPaidToFreelancer",
          "type": "bool"
        },
        {
          "internalType": "bool",
          "name": "isCanceled",
          "type": "bool"
        },
        {
          "internalType": "bool",
          "name": "completed",
          "type": "bool"
        },
        {
          "internalType": "bool",
          "name": "isUsd",
          "type": "bool"
        }
      ],
      "stateMutability": "view",
      "type": "function"
    },
    {
      "inputs": [
        {
          "internalType": "uint256",
          "name": "projectId",
          "type": "uint256"
        }
      ],
      "name": "raiseDisputes",
      "outputs": [],
      "stateMutability": "nonpayable",
      "type": "function"
    },
    {
      "inputs": [
        {
          "internalType": "uint256",
          "name": "projectId",
          "type": "uint256"
        },
        {
          "internalType": "uint256",
          "name": "rating",
          "type": "uint256"
        }
      ],
      "name": "rateFreelancer",
      "outputs": [],
      "stateMutability": "nonpayable",
      "type": "function"
    },
    {
      "inputs": [
        {
          "internalType": "uint256",
          "name": "projectId",
          "type": "uint256"
        }
      ],
      "name": "resolveDispute",
      "outputs": [],
      "stateMutability": "nonpayable",
      "type": "function"
    },
    {
      "inputs": [
        {
          "internalType": "uint256",
          "name": "projectId",
          "type": "uint256"
        }
      ],
      "name": "selectingFreelancer",
      "outputs": [
        {
          "internalType": "address",
          "name": "",
          "type": "address"
        }
      ],
      "stateMutability": "nonpayable",
      "type": "function"
    },
    {
      "inputs": [
        {
          "internalType": "uint256",
          "name": "newFee",
          "type": "uint256"
        }
      ],
      "name": "setPlatformFee",
      "outputs": [],
      "stateMutability": "nonpayable",
      "type": "function"
    },
    {
      "inputs": [
        {
          "internalType": "uint256",
          "name": "projectId",
          "type": "uint256"
        }
      ],
      "name": "submitTheProject",
      "outputs": [],
      "stateMutability": "nonpayable",
      "type": "function"
    },
    {
      "inputs": [
        {
          "internalType": "uint256",
          "name": "amount",
          "type": "uint256"
        }
      ],
      "name": "toGiveAfundInEther",
      "outputs": [],
      "stateMutability": "payable",
      "type": "function"
    },
    {
      "inputs": [
        {
          "internalType": "uint256",
          "name": "_amount",
          "type": "uint256"
        },
        {
          "internalType": "bool",
          "name": "IsUsd",
          "type": "bool"
        }
      ],
      "name": "toGiveAfundInUsd",
      "outputs": [],
      "stateMutability": "payable",
      "type": "function"
    },
    {
      "inputs": [],
      "name": "totalPlatformFees",
      "outputs": [
        {
          "internalType": "uint256",
          "name": "",
          "type": "uint256"
        }
      ],
      "stateMutability": "view",
      "type": "function"
    },
    {
      "inputs": [],
      "name": "totalProjects",
      "outputs": [
        {
          "internalType": "uint256",
          "name": "",
          "type": "uint256"
        }
      ],
      "stateMutability": "view",
      "type": "function"
    },
    {
      "inputs": [
        {
          "internalType": "address",
          "name": "newGovernanceContract",
          "type": "address"
        }
      ],
      "name": "updateGovernance",
      "outputs": [],
      "stateMutability": "nonpayable",
      "type": "function"
    },
    {
      "inputs": [
        {
          "internalType": "address",
          "name": "_freelancer",
          "type": "address"
        },
        {
          "internalType": "string",
          "name": "name",
          "type": "string"
        },
        {
          "internalType": "string",
          "name": "bio",
          "type": "string"
        },
        {
          "internalType": "string",
          "name": "skills",
          "type": "string"
        },
        {
          "internalType": "uint256",
          "name": "rating",
          "type": "uint256"
        }
      ],
      "name": "updatefreelancerProfile",
      "outputs": [
        {
          "internalType": "bool",
          "name": "",
          "type": "bool"
        }
      ],
      "stateMutability": "nonpayable",
      "type": "function"
    },
    {
      "inputs": [
        {
          "internalType": "uint256",
          "name": "projectId",
          "type": "uint256"
        }
      ],
      "name": "validateTheProject",
      "outputs": [],
      "stateMutability": "nonpayable",
      "type": "function"
    },
    {
      "inputs": [],
      "name": "withdraw",
      "outputs": [],
      "stateMutability": "nonpayable",
      "type": "function"
    },
    {
      "inputs": [
        {
          "internalType": "uint256",
          "name": "projectId",
          "type": "uint256"
        }
      ],
      "name": "withdrawTheProject",
      "outputs": [],
      "stateMutability": "nonpayable",
      "type": "function"
    },
    {
      "stateMutability": "payable",
      "type": "receive"
    }
  ],
  "bytecode": "0x60806040526002600755670de0b6b3a76400006008553480156200002257600080fd5b506040516200597438038062005974833981016040819052620000459162000104565b600680546001600160a01b0319166001600160a01b03848116919091179091558116620000c45760405162461bcd60e51b815260206004820152602360248201527f496e76616c696420676f7665726e616e636520636f6e7472616374206164647260448201526265737360e81b606482015260840160405180910390fd5b600280546001600160a01b0319166001600160a01b03929092169190911790555062000143565b6001600160a01b03811681146200010157600080fd5b50565b600080604083850312156200011857600080fd5b82516200012581620000eb565b60208401519092506200013881620000eb565b809150509250929050565b61582180620001536000396000f3fe6080604052600436106103855760003560e01c80637ae339fd116101d1578063b5bb59c011610102578063d2468b19116100a0578063eefe66b91161006f578063eefe66b914610a7e578063f0e70ffc14610a9e578063f88af21d14610abe578063fb8c0f0e14610ade57600080fd5b8063d2468b1914610a11578063d3631fa514610a31578063d58e56eb14610a47578063dcc6012814610a5c57600080fd5b8063c2b7b868116100dc578063c2b7b8681461099e578063c6a6bfd3146109be578063c7c5aff1146109de578063cbb0ddae146109f157600080fd5b8063b5bb59c014610947578063b85a8b201461095c578063bee5cdca1461097157600080fd5b8063931c1d891161016f578063aaf5eb6811610149578063aaf5eb68146108d1578063aba7923b146108e7578063ae4b5ed214610907578063b25612631461092757600080fd5b8063931c1d89146108885780639c361e4e146108a8578063a5ff7b83146108be57600080fd5b80637ea62c87116101ab5780637ea62c8714610813578063812739a21461083357806381d0ef8614610848578063904689771461086857600080fd5b80637ae339fd146107ad5780637cfa800e146107dd5780637d451480146107fd57600080fd5b80633a766ddf116102b6578063642c2050116102545780636db80995116102235780636db80995146107385780636ea8bc101461075a578063732524941461076f578063741bef1a1461078d57600080fd5b8063642c2050146106d057806367fa173e146106f05780636a44c310146107055780636d2f5e391461072557600080fd5b80634428b133116102905780634428b1331461060f5780634a623b481461062f5780635646897b1461064457806362d0b7d11461067d57600080fd5b80633a766ddf146105a45780633ccfd60b146105da5780633d4e5ddd146105ef57600080fd5b806326a49e37116103235780632f4fe553116102fd5780632f4fe5531461051f57806331521d571461054f57806333ddc6f7146105645780633741a68d1461058457600080fd5b806326a49e37146104a457806327db21e1146104d25780632d1fdef6146104ff57600080fd5b8063107046bd1161035f578063107046bd1461040c57806312e8e2c314610444578063192e2742146104645780631f372e291461048457600080fd5b80630b4bcaca1461039e5780630b9364d8146103b15780630f0f30b2146103ee57600080fd5b36610399573460006103978282610b0b565b005b600080fd5b6103976103ac366004614f17565b610c19565b3480156103bd57600080fd5b506103d16103cc366004614f17565b610c78565b6040516001600160a01b0390911681526020015b60405180910390f35b3480156103fa57600080fd5b506006546001600160a01b03166103d1565b34801561041857600080fd5b5061042c610427366004614f17565b610ca2565b6040516103e59c9b9a99989796959493929190614f76565b34801561045057600080fd5b5061039761045f366004614f17565b610ec5565b34801561047057600080fd5b506103d161047f366004614f17565b610f32565b34801561049057600080fd5b5061039761049f366004614f17565b610f97565b3480156104b057600080fd5b506104c46104bf366004614f17565b611200565b6040519081526020016103e5565b3480156104de57600080fd5b506104c46104ed366004615033565b600f6020526000908152604090205481565b34801561050b57600080fd5b5061039761051a36600461504e565b6112b9565b34801561052b57600080fd5b5061053f61053a366004615113565b6113ff565b60405190151581526020016103e5565b34801561055b57600080fd5b506005546104c4565b34801561057057600080fd5b5061053f61057f366004614f17565b61159f565b34801561059057600080fd5b5061039761059f366004614f17565b611b3d565b3480156105b057600080fd5b506104c46105bf366004615033565b6001600160a01b03166000908152600f602052604090205490565b3480156105e657600080fd5b50610397611f5c565b3480156105fb57600080fd5b506002546103d1906001600160a01b031681565b34801561061b57600080fd5b5061039761062a366004614f17565b6120c3565b34801561063b57600080fd5b506000546104c4565b34801561065057600080fd5b5061053f61065f366004615033565b6001600160a01b031660009081526013602052604090205460ff1690565b34801561068957600080fd5b506103976001805480820182556000919091527fb10e2d527612073b26eecdfd717e6a320cf44b4afac2b0732d9fcbe2b7fa0cf60180546001600160a01b03191633179055565b3480156106dc57600080fd5b506103976106eb36600461504e565b612504565b3480156106fc57600080fd5b506104c4600181565b34801561071157600080fd5b5061053f610720366004614f17565b6128ef565b6103976107333660046151c4565b612958565b34801561074457600080fd5b5061074d612c9a565b6040516103e59190615267565b34801561076657600080fd5b506007546104c4565b34801561077b57600080fd5b506002546001600160a01b03166103d1565b34801561079957600080fd5b506006546103d1906001600160a01b031681565b3480156107b957600080fd5b506107cd6107c8366004615033565b612cfc565b6040516103e594939291906152b4565b3480156107e957600080fd5b5061053f6107f8366004614f17565b612ebc565b34801561080957600080fd5b506104c46103e881565b34801561081f57600080fd5b5061053f61082e366004614f17565b613372565b34801561083f57600080fd5b506003546104c4565b34801561085457600080fd5b5061053f6108633660046152ff565b6133d1565b34801561087457600080fd5b506103d1610883366004614f17565b613448565b34801561089457600080fd5b5061042c6108a3366004614f17565b6138f1565b3480156108b457600080fd5b506104c460035481565b6104c46108cc36600461532b565b613923565b3480156108dd57600080fd5b506104c460085481565b3480156108f357600080fd5b5061053f610902366004614f17565b614007565b34801561091357600080fd5b50610397610922366004614f17565b614066565b34801561093357600080fd5b50610397610942366004615033565b614204565b34801561095357600080fd5b5061074d61430a565b34801561096857600080fd5b506104c4606481565b34801561097d57600080fd5b5061099161098c366004614f17565b61436a565b6040516103e591906154ac565b3480156109aa57600080fd5b506103976109b9366004614f17565b614683565b3480156109ca57600080fd5b506104c46109d9366004614f17565b614791565b6103976109ec3660046154bf565b610b0b565b3480156109fd57600080fd5b5061074d610a0c366004614f17565b61484a565b348015610a1d57600080fd5b506104c4610a2c366004614f17565b6148fd565b348015610a3d57600080fd5b506104c460055481565b348015610a5357600080fd5b506104c4614908565b348015610a6857600080fd5b50610a7161498d565b6040516103e591906154e2565b348015610a8a57600080fd5b5061053f610a99366004614f17565b614c2c565b348015610aaa57600080fd5b5061053f610ab9366004614f17565b614c8b565b348015610aca57600080fd5b506103d1610ad9366004614f17565b614cf3565b348015610aea57600080fd5b50610afe610af9366004615033565b614d03565b6040516103e59190615544565b8015610c0c5760065460408051633fabe5a360e21b815290516000926001600160a01b03169163feaf968c9160048083019260a09291908290030181865afa158015610b5b573d6000803e3d6000fd5b505050506040513d601f19601f82011682018060405250810190610b7f91906155cd565b50505091505060006402540be40082610b989190615627565b600854610ba59086615627565b610baf919061563e565b905080341015610c065760405162461bcd60e51b815260206004820152601760248201527f6e65656420746f20706179207468697320616d6f756e7400000000000000000060448201526064015b60405180910390fd5b50505050565b610c1582610c19565b5050565b600854610c269082615627565b341015610c755760405162461bcd60e51b815260206004820152601760248201527f6e65656420746f20706179207468697320616d6f756e740000000000000000006044820152606401610bfd565b50565b60008181548110610c8857600080fd5b6000918252602090912001546001600160a01b0316905081565b60048181548110610cb257600080fd5b60009182526020909120600890910201805460018201546002830180549294506001600160a01b039091169291610ce890615660565b80601f0160208091040260200160405190810160405280929190818152602001828054610d1490615660565b8015610d615780601f10610d3657610100808354040283529160200191610d61565b820191906000526020600020905b815481529060010190602001808311610d4457829003601f168201915b505050505090806003018054610d7690615660565b80601f0160208091040260200160405190810160405280929190818152602001828054610da290615660565b8015610def5780601f10610dc457610100808354040283529160200191610def565b820191906000526020600020905b815481529060010190602001808311610dd257829003601f168201915b505050505090806004018054610e0490615660565b80601f0160208091040260200160405190810160405280929190818152602001828054610e3090615660565b8015610e7d5780601f10610e5257610100808354040283529160200191610e7d565b820191906000526020600020905b815481529060010190602001808311610e6057829003601f168201915b505050600584015460068501546007909501549394909390925060ff80821692506101008204811691620100008104821691630100000082048116916401000000009004168c565b6002546001600160a01b03163314610f2d5760405162461bcd60e51b815260206004820152602560248201527f43616c6c6572206973206e6f742074686520676f7665726e616e636520636f6e6044820152641d1c9858dd60da1b6064820152608401610bfd565b600755565b6000600354821115610f7b5760405162461bcd60e51b8152602060048201526012602482015271125b9d985b1a59081c1c9bda9958dd08125160721b6044820152606401610bfd565b506000908152601060205260409020546001600160a01b031690565b6000818152600a6020526040902060018101546001600160a01b031633146110015760405162461bcd60e51b815260206004820181905260248201527f6f6e6c792070726f6a656374206f776e65722063616e2063616c6c20746869736044820152606401610bfd565b60078101546301000000900460ff1661105c5760405162461bcd60e51b815260206004820152601860248201527f70726f6a656374206973206e6f7420636f6d706c6574656400000000000000006044820152606401610bfd565b6007810154610100900460ff16156110b65760405162461bcd60e51b815260206004820181905260248201527f467265656c616e6365722068617320616c7265616479206265656e20706169646044820152606401610bfd565b60008281526012602052604090205460ff16156111155760405162461bcd60e51b815260206004820152600d60248201527f68617665206469737075746573000000000000000000000000000000000000006044820152606401610bfd565b60078101805461ff00191661010017905560008281526010602052604081205460085460068401546001600160a01b0390921692916111549190615627565b90506000826001600160a01b03168260405160006040518083038185875af1925050503d80600081146111a3576040519150601f19603f3d011682016040523d82523d6000602084013e6111a8565b606091505b50509050806111f95760405162461bcd60e51b815260206004820152601c60248201527f5061796d656e7420746f20667265656c616e636572206661696c6564000000006044820152606401610bfd565b5050505050565b600080600660009054906101000a90046001600160a01b03166001600160a01b031663feaf968c6040518163ffffffff1660e01b815260040160a060405180830381865afa158015611256573d6000803e3d6000fd5b505050506040513d601f19601f8201168201806040525081019061127a91906155cd565b50505091505060006402540be400826112939190615627565b9050600081600854866112a69190615627565b6112b0919061563e565b95945050505050565b6000828152600a6020526040902060018101546001600160a01b031633146113235760405162461bcd60e51b815260206004820181905260248201527f6f6e6c792070726f6a656374206f776e65722063616e2063616c6c20746869736044820152606401610bfd565b60078101546301000000900460ff161561137f5760405162461bcd60e51b815260206004820152601560248201527f70726f6a656374206e6f7420636f6d706c6574656400000000000000000000006044820152606401610bfd565b806005015482116113f85760405162461bcd60e51b815260206004820152602f60248201527f4e657720646561646c696e65206d757374206265206c61746572207468616e2060448201527f7468652063757272656e74206f6e6500000000000000000000000000000000006064820152608401610bfd565b6005015550565b6002546000906001600160a01b0316331461146a5760405162461bcd60e51b815260206004820152602560248201527f43616c6c6572206973206e6f742074686520676f7665726e616e636520636f6e6044820152641d1c9858dd60da1b6064820152608401610bfd565b6001600160a01b03861660009081526013602052604090205460ff166114f85760405162461bcd60e51b815260206004820152602260248201527f746f2075706461746520667265656c616e6365722073686f756c6420656e726f60448201527f6c6c0000000000000000000000000000000000000000000000000000000000006064820152608401610bfd565b604080516080810182528681526020808201869052818301879052606082018590526001600160a01b03891660009081526011909152919091208151819061154090826156e9565b506020820151600182019061155590826156e9565b506040820151600282019061156a90826156e9565b5060609190910151600390910155506001600160a01b0385166000908152600f60205260409020819055600195945050505050565b6000818152600a602090815260408083208151610180810183528154815260018201546001600160a01b031693810193909352600281018054859493840191906115e890615660565b80601f016020809104026020016040519081016040528092919081815260200182805461161490615660565b80156116615780601f1061163657610100808354040283529160200191611661565b820191906000526020600020905b81548152906001019060200180831161164457829003601f168201915b5050505050815260200160038201805461167a90615660565b80601f01602080910402602001604051908101604052809291908181526020018280546116a690615660565b80156116f35780601f106116c8576101008083540402835291602001916116f3565b820191906000526020600020905b8154815290600101906020018083116116d657829003601f168201915b5050505050815260200160048201805461170c90615660565b80601f016020809104026020016040519081016040528092919081815260200182805461173890615660565b80156117855780601f1061175a57610100808354040283529160200191611785565b820191906000526020600020905b81548152906001019060200180831161176857829003601f168201915b5050509183525050600582015460208201526006820154604082015260079091015460ff8082161515606084015261010082048116151560808401526201000082048116151560a0840152630100000082048116151560c084015264010000000090910416151560e0909101526003549091508311156118475760405162461bcd60e51b815260206004820152601a60248201527f6170706c69656420496e76616c69642070726f6a6563742049440000000000006044820152606401610bfd565b60008311801561185957506003548311155b61189a5760405162461bcd60e51b8152602060048201526012602482015271125b9d985b1a59081c1c9bda9958dd08125160721b6044820152606401610bfd565b8060a0015142106118ed5760405162461bcd60e51b815260206004820152601360248201527f446561646c696e652068617320706173736564000000000000000000000000006044820152606401610bfd565b6000838152600b602052604090205460ff16156119725760405162461bcd60e51b815260206004820152603360248201527f206170706c79466f7254686550726f6a6563742070726f6a656374206973207060448201527f69636b656420627920667265656c616e636572000000000000000000000000006064820152608401610bfd565b806101400151156119c55760405162461bcd60e51b815260206004820152601460248201527f70726f6a65637420697320636f6d706c657465640000000000000000000000006044820152606401610bfd565b80610100015115611a185760405162461bcd60e51b815260206004820152601d60248201527f70726f6a656374206973207061696420746f20667265656c616e6365720000006044820152606401610bfd565b6000838152600d6020908152604080832033845290915290205460ff1615611aa85760405162461bcd60e51b815260206004820152602960248201527f596f75206861766520616c7265616479206170706c69656420666f722074686960448201527f732070726f6a65637400000000000000000000000000000000000000000000006064820152608401610bfd565b3360009081526013602052604090205460ff16611b075760405162461bcd60e51b815260206004820152601460248201527f6e65656420746f20656e726f6c6c2066697273740000000000000000000000006044820152606401610bfd565b50506000908152600c602090815260408220805460018181018355918452919092200180546001600160a01b0319163317905590565b6000818152600a602090815260408083208151610180810183528154815260018201546001600160a01b0316938101939093526002810180549192840191611b8490615660565b80601f0160208091040260200160405190810160405280929190818152602001828054611bb090615660565b8015611bfd5780601f10611bd257610100808354040283529160200191611bfd565b820191906000526020600020905b815481529060010190602001808311611be057829003601f168201915b50505050508152602001600382018054611c1690615660565b80601f0160208091040260200160405190810160405280929190818152602001828054611c4290615660565b8015611c8f5780601f10611c6457610100808354040283529160200191611c8f565b820191906000526020600020905b815481529060010190602001808311611c7257829003601f168201915b50505050508152602001600482018054611ca890615660565b80601f0160208091040260200160405190810160405280929190818152602001828054611cd490615660565b8015611d215780601f10611cf657610100808354040283529160200191611d21565b820191906000526020600020905b815481529060010190602001808311611d0457829003601f168201915b505050918352505060058201546020808301919091526006830154604083015260079092015460ff8082161515606084015261010082048116151560808401526201000082048116151560a0840152630100000082048116151560c084015264010000000090910416151560e0909101528101519091506001600160a01b03163314611def5760405162461bcd60e51b815260206004820181905260248201527f6f6e6c792070726f6a656374206f776e65722063616e2063616c6c20746869736044820152606401610bfd565b80610140015115611e425760405162461bcd60e51b815260206004820152601860248201527f70726f6a656374206973206e6f7420636f6d706c6574656400000000000000006044820152606401610bfd565b60008281526012602052604090205460ff1615611ec75760405162461bcd60e51b815260206004820152602760248201527f4469737075746520616c72656164792072616973656420666f7220746869732060448201527f70726f6a656374000000000000000000000000000000000000000000000000006064820152608401610bfd565b80610120015115611f405760405162461bcd60e51b815260206004820152602160248201527f43616e6e6f74206469737075746520612063616e63656c65642070726f6a656360448201527f74000000000000000000000000000000000000000000000000000000000000006064820152608401610bfd565b506000908152601260205260409020805460ff19166001179055565b6002546001600160a01b03163314611fc45760405162461bcd60e51b815260206004820152602560248201527f43616c6c6572206973206e6f742074686520676f7665726e616e636520636f6e6044820152641d1c9858dd60da1b6064820152608401610bfd565b60025447906001600160a01b031633146120205760405162461bcd60e51b815260206004820181905260248201527f4f6e6c792044414f20676f7665726e616e63652063616e2077697468647261776044820152606401610bfd565b6002546040516000916001600160a01b03169083908381818185875af1925050503d806000811461206d576040519150601f19603f3d011682016040523d82523d6000602084013e612072565b606091505b5050905080610c155760405162461bcd60e51b815260206004820152601160248201527f5769746864726177616c206661696c65640000000000000000000000000000006044820152606401610bfd565b6000818152600a60205260409020600581015442116121245760405162461bcd60e51b815260206004820152601760248201527f446561646c696e6520686173206e6f74207061737365640000000000000000006044820152606401610bfd565b60018101546001600160a01b031633146121805760405162461bcd60e51b815260206004820181905260248201527f6f6e6c792070726f6a656374206f776e65722063616e2063616c6c20746869736044820152606401610bfd565b60078101546301000000900460ff16156121dc5760405162461bcd60e51b815260206004820152601560248201527f70726f6a6563742069732020636f6d706c6574656400000000000000000000006044820152606401610bfd565b600781015462010000900460ff16156122375760405162461bcd60e51b815260206004820152601b60248201527f50726f6a65637420697320616c72656164792063616e63656c656400000000006044820152606401610bfd565b6000828152600b602052604090205460ff16156122bc5760405162461bcd60e51b815260206004820152602a60248201527f467265656c616e6365722068617320616c7265616479207069636b656420746860448201527f69732070726f6a656374000000000000000000000000000000000000000000006064820152608401610bfd565b60078101805462ff00001916620100001790819055640100000000900460ff161561240d574760006122ec614908565b9050600060085460085485600601546123059190615627565b61230f9190615627565b905060006123226402540be40084615627565b90506000612330828461563e565b600187015460405191925047916000916001600160a01b03169084908381818185875af1925050503d8060008114612384576040519150601f19603f3d011682016040523d82523d6000602084013e612389565b606091505b50509050806124005760405162461bcd60e51b815260206004820152602d60248201527f696e202065746820696e207769746864726177207468652070726f6a6563742060448201527f526566756e64206661696c6564000000000000000000000000000000000000006064820152608401610bfd565b50610c1595505050505050565b600060085482600601546124219190615627565b60078301805462ff000019166201000017905560018301546040519192506000916001600160a01b039091169083908381818185875af1925050503d8060008114612488576040519150601f19603f3d011682016040523d82523d6000602084013e61248d565b606091505b5050905080610c065760405162461bcd60e51b815260206004820152602660248201527f5749544844524157205448452050524f4a4543542065746820526566756e642060448201527f6661696c656400000000000000000000000000000000000000000000000000006064820152608401610bfd565b6000828152600a602090815260408083208151610180810183528154815260018201546001600160a01b031693810193909352600281018054919284019161254b90615660565b80601f016020809104026020016040519081016040528092919081815260200182805461257790615660565b80156125c45780601f10612599576101008083540402835291602001916125c4565b820191906000526020600020905b8154815290600101906020018083116125a757829003601f168201915b505050505081526020016003820180546125dd90615660565b80601f016020809104026020016040519081016040528092919081815260200182805461260990615660565b80156126565780601f1061262b57610100808354040283529160200191612656565b820191906000526020600020905b81548152906001019060200180831161263957829003601f168201915b5050505050815260200160048201805461266f90615660565b80601f016020809104026020016040519081016040528092919081815260200182805461269b90615660565b80156126e85780601f106126bd576101008083540402835291602001916126e8565b820191906000526020600020905b8154815290600101906020018083116126cb57829003601f168201915b505050918352505060058201546020808301919091526006830154604083015260079092015460ff8082161515606084015261010082048116151560808401526201000082048116151560a0840152630100000082048116151560c084015264010000000090910416151560e0909101528101519091506001600160a01b031633146127b65760405162461bcd60e51b815260206004820181905260248201527f6f6e6c792070726f6a656374206f776e65722063616e2063616c6c20746869736044820152606401610bfd565b8061014001516128085760405162461bcd60e51b815260206004820152601560248201527f70726f6a656374206e6f7420636f6d706c6574656400000000000000000000006044820152606401610bfd565b60008311801561281a57506003548311155b61285b5760405162461bcd60e51b8152602060048201526012602482015271125b9d985b1a59081c1c9bda9958dd08125160721b6044820152606401610bfd565b6001821015801561286d575060058211155b6128b95760405162461bcd60e51b815260206004820152601e60248201527f526174696e67206d757374206265206265747765656e203120616e64203500006044820152606401610bfd565b506000918252601060209081526040808420546001600160a01b03168452600f8252808420839055601190915290912060030155565b60006003548211156129385760405162461bcd60e51b8152602060048201526012602482015271125b9d985b1a59081c1c9bda9958dd08125160721b6044820152606401610bfd565b506000908152600a60205260409020600701546301000000900460ff1690565b8015612a365760065460408051633fabe5a360e21b815290516000926001600160a01b03169163feaf968c9160048083019260a09291908290030181865afa1580156129a8573d6000803e3d6000fd5b505050506040513d601f19601f820116820180604052508101906129cc91906155cd565b50505091505060006129dd84614791565b905080341015612a2f5760405162461bcd60e51b815260206004820152601f60248201527f746f20656e726f6c6c206e65656420746f2070617920666f72207468617420006044820152606401610bfd565b5050612ab8565b600854612a439083615627565b341015612ab85760405162461bcd60e51b815260206004820152602660248201527f746f20656e726f6c6c206e65656420746f2070617920666f722074686174206960448201527f6e206574682000000000000000000000000000000000000000000000000000006064820152608401610bfd565b3360009081526013602052604090205460ff1615612b185760405162461bcd60e51b815260206004820152601060248201527f616c726561647920656e726f6c6c6564000000000000000000000000000000006044820152606401610bfd565b60005b600054811015612bb657336001600160a01b031660008281548110612b4257612b426157a9565b6000918252602090912001546001600160a01b031603612ba45760405162461bcd60e51b815260206004820152601b60248201527f467265656c616e63657220616c726561647920656e726f6c6c656400000000006044820152606401610bfd565b80612bae816157bf565b915050612b1b565b506040805160808101825286815260208082018790528183018690526001606083015233600090815260119091529190912081518190612bf690826156e9565b5060208201516001820190612c0b90826156e9565b5060408201516002820190612c2090826156e9565b50606091909101516003909101555050336000818152600f60209081526040808320600190819055835480820185557f290decd9548b62a8d60345a988386fc84ba6bc95484008f6362f93160ef3e5630180546001600160a01b03191690951790945560139091529020805460ff19169091179055505050565b60606001805480602002602001604051908101604052809291908181526020018280548015612cf257602002820191906000526020600020905b81546001600160a01b03168152600190910190602001808311612cd4575b5050505050905090565b601160205260009081526040902080548190612d1790615660565b80601f0160208091040260200160405190810160405280929190818152602001828054612d4390615660565b8015612d905780601f10612d6557610100808354040283529160200191612d90565b820191906000526020600020905b815481529060010190602001808311612d7357829003601f168201915b505050505090806001018054612da590615660565b80601f0160208091040260200160405190810160405280929190818152602001828054612dd190615660565b8015612e1e5780601f10612df357610100808354040283529160200191612e1e565b820191906000526020600020905b815481529060010190602001808311612e0157829003601f168201915b505050505090806002018054612e3390615660565b80601f0160208091040260200160405190810160405280929190818152602001828054612e5f90615660565b8015612eac5780601f10612e8157610100808354040283529160200191612eac565b820191906000526020600020905b815481529060010190602001808311612e8f57829003601f168201915b5050505050908060030154905084565b6000818152600a6020526040812060018101546001600160a01b03163314612f265760405162461bcd60e51b815260206004820181905260248201527f6f6e6c792070726f6a656374206f776e65722063616e2063616c6c20746869736044820152606401610bfd565b600083118015612f3857506003548311155b612f845760405162461bcd60e51b815260206004820152601a60248201527f2063616e63656c20496e76616c69642070726f6a6563742049440000000000006044820152606401610bfd565b80600501544210612fd75760405162461bcd60e51b815260206004820152601360248201527f446561646c696e652068617320706173736564000000000000000000000000006044820152606401610bfd565b6000838152600e602052604090205460ff1661305b5760405162461bcd60e51b815260206004820152603160248201527f70726f6a6563742069732073656c656374656420736f206e6f742061626c652060448201527f746f2063616e63656c2070726f6a6563740000000000000000000000000000006064820152608401610bfd565b600781015462010000900460ff16156130b65760405162461bcd60e51b815260206004820152601c60248201527f70726f6a65637420697320616c72656164792063616e63656c6c6564000000006044820152606401610bfd565b6000838152600b602052604090205460ff1661313a5760405162461bcd60e51b815260206004820152603060248201527f63616e63656c54686550726f6a6563742070726f6a656374206973207069636b60448201527f656420627920667265656c616e636572000000000000000000000000000000006064820152608401610bfd565b6007810154640100000000900460ff161561326f576000613159614908565b905060006402540be4008260085460085486600601546131799190615627565b6131839190615627565b61318d919061563e565b6131979190615627565b60018401546040519192506000916001600160a01b039091169083908381818185875af1925050503d80600081146131eb576040519150601f19603f3d011682016040523d82523d6000602084013e6131f0565b606091505b50509050806132675760405162461bcd60e51b815260206004820152602360248201527f2063616e63656c54686550726f6a6563742075736420526566756e642066616960448201527f6c656400000000000000000000000000000000000000000000000000000000006064820152608401610bfd565b505050613369565b600060085482600601546132839190615627565b60078301805462ff000019166201000017905560018301546040519192506000916001600160a01b039091169083908381818185875af1925050503d80600081146132ea576040519150601f19603f3d011682016040523d82523d6000602084013e6132ef565b606091505b50509050806133665760405162461bcd60e51b815260206004820152602260248201527f63616e63656c54686550726f6a6563742065746820526566756e64206661696c60448201527f65640000000000000000000000000000000000000000000000000000000000006064820152608401610bfd565b50505b50600192915050565b60006003548211156133bb5760405162461bcd60e51b8152602060048201526012602482015271125b9d985b1a59081c1c9bda9958dd08125160721b6044820152606401610bfd565b5060009081526012602052604090205460ff1690565b600060035483111561341a5760405162461bcd60e51b8152602060048201526012602482015271125b9d985b1a59081c1c9bda9958dd08125160721b6044820152606401610bfd565b506000828152600d602090815260408083206001600160a01b038516845290915290205460ff165b92915050565b6000818152600a60205260408120821580159061346757506003548311155b6134d95760405162461bcd60e51b815260206004820152602760248201527f2073656c656374696e67467265656c616e63657220496e76616c69642070726f60448201527f6a656374204944000000000000000000000000000000000000000000000000006064820152608401610bfd565b60018101546001600160a01b031633146135355760405162461bcd60e51b815260206004820181905260248201527f6f6e6c792070726f6a656374206f776e65722063616e2063616c6c20746869736044820152606401610bfd565b6000838152600c60205260409020546135b65760405162461bcd60e51b815260206004820152602960248201527f6e6f20667265656c616e63657273207265676973746572656420666f7220746860448201527f652070726f6a65637400000000000000000000000000000000000000000000006064820152608401610bfd565b6000838152600e602052604090205460ff161561363b5760405162461bcd60e51b815260206004820152602960248201527f50726f6a65637420616c72656164792068617320612073656c6563746564206660448201527f7265656c616e63657200000000000000000000000000000000000000000000006064820152608401610bfd565b600080805b6000868152600c6020526040902054811015613895576000868152600c60205260408120805483908110613676576136766157a9565b60009182526020808320909101546001600160a01b03168083526011909152604080832081516080810190925280549294509091829082906136b790615660565b80601f01602080910402602001604051908101604052809291908181526020018280546136e390615660565b80156137305780601f1061370557610100808354040283529160200191613730565b820191906000526020600020905b81548152906001019060200180831161371357829003601f168201915b5050505050815260200160018201805461374990615660565b80601f016020809104026020016040519081016040528092919081815260200182805461377590615660565b80156137c25780601f10613797576101008083540402835291602001916137c2565b820191906000526020600020905b8154815290600101906020018083116137a557829003601f168201915b505050505081526020016002820180546137db90615660565b80601f016020809104026020016040519081016040528092919081815260200182805461380790615660565b80156138545780601f1061382957610100808354040283529160200191613854565b820191906000526020600020905b81548152906001019060200180831161383757829003601f168201915b505050505081526020016003820154815250509050848160600151111561388057806060015194508193505b5050808061388d906157bf565b915050613640565b50600094855260106020908152604080872080546001600160a01b0319166001600160a01b038516179055600e8252808720805460ff199081166001908117909255600b90935296208054909116909517909455509192915050565b600a6020526000908152604090208054600182015460028301805492936001600160a01b0390921692610ce890615660565b600086516000036139765760405162461bcd60e51b815260206004820152601c60248201527f50726f6a656374206e616d652063616e6e6f7420626520656d707479000000006044820152606401610bfd565b85516000036139c75760405162461bcd60e51b815260206004820152601b60248201527f50726f6a656374207479652063616e6e6f7420626520656d70747900000000006044820152606401610bfd565b8451600003613a3e5760405162461bcd60e51b815260206004820152602360248201527f50726f6a656374206465736372697074696f6e2063616e6e6f7420626520656d60448201527f70747900000000000000000000000000000000000000000000000000000000006064820152608401610bfd565b83600003613ab45760405162461bcd60e51b815260206004820152602160248201527f50726f6a656374205f646561646c696e652063616e6e6f7420626520656d707460448201527f79000000000000000000000000000000000000000000000000000000000000006064820152608401610bfd565b6000808315613c06576103e8851015613b0f5760405162461bcd60e51b815260206004820152601e60248201527f50726f6a65637420616d6f756e742063616e6e6f7420626520656d70747900006044820152606401610bfd565b600060085486613b1f9190615627565b90506000613b2c82611200565b905060008111613b7e5760405162461bcd60e51b815260206004820152601e60248201527f70726963652073686f756c642062652067726561746572207468616e203000006044820152606401610bfd565b606460075482613b8e9190615627565b613b98919061563e565b9350613ba484826157d8565b9250613bb084826157d8565b341015613bff5760405162461bcd60e51b815260206004820152601860248201527f696e73756666696369656e742045544820666f722066656500000000000000006044820152606401610bfd565b5050613cd7565b606460075460085487613c199190615627565b613c239190615627565b613c2d919061563e565b91508160085486613c3e9190615627565b613c4891906157d8565b905080341015613cbf5760405162461bcd60e51b8152602060048201526024808201527f496e73756666696369656e742045544820666f722070726f6a65637420616e6460448201527f20666565000000000000000000000000000000000000000000000000000000006064820152608401610bfd565b8160056000828254613cd191906157d8565b90915550505b60038054906000613ce7836157bf565b90915550506040805161018081018252600354815233602082019081529181018b8152606082018b9052608082018a905260a0820189905260c08201889052600160e083018190526000610100840181905261012084018190526101408401819052881515610160850152600480549283018155905282517f8a35acfbc15ff81a39ae7d344fd709f28e8600b4aa8c65c6b64bfe7fe36bd19b600890920291820190815593517f8a35acfbc15ff81a39ae7d344fd709f28e8600b4aa8c65c6b64bfe7fe36bd19c820180546001600160a01b0319166001600160a01b0390921691909117905590519192839290917f8a35acfbc15ff81a39ae7d344fd709f28e8600b4aa8c65c6b64bfe7fe36bd19d0190613e0290826156e9565b5060608201516003820190613e1790826156e9565b5060808201516004820190613e2c90826156e9565b5060a0820151600582015560c0820151600682015560e082015160079091018054610100808501516101208601516101408701516101609097015161ffff1990941695151561ff001916959095179015159091021763ffff00001916620100009315159390930263ff0000001916929092176301000000931515939093029290921764ff000000001916640100000000911515919091021790556003546000908152600a602090815260409182902083518155908301516001820180546001600160a01b0319166001600160a01b03909216919091179055908201518291906002820190613f1a90826156e9565b5060608201516003820190613f2f90826156e9565b5060808201516004820190613f4490826156e9565b5060a0820151600582015560c0820151600682015560e082015160079091018054610100808501516101208601516101408701516101609097015115156401000000000264ff000000001997151563010000000263ff0000001992151562010000029290921663ffff00001993151590940261ff00199715159790971661ffff199095169490941795909517161792909217929092161790555050600380546000908152600b60205260409020805460ff19169055549150509695505050505050565b60006003548211156140505760405162461bcd60e51b8152602060048201526012602482015271125b9d985b1a59081c1c9bda9958dd08125160721b6044820152606401610bfd565b506000908152600b602052604090205460ff1690565b6000818152600a602090815260408083206010909252909120546001600160a01b031633146140e35760405162461bcd60e51b8152602060048201526024808201527f796f7520617265206e6f74207468652073656c656374656420667265656c616e604482015263031b2b9160e51b6064820152608401610bfd565b60078101546301000000900460ff161561413f5760405162461bcd60e51b815260206004820152601c60248201527f50726f6a65637420697320616c726561647920636f6d706c65746564000000006044820152606401610bfd565b600781015462010000900460ff161561419a5760405162461bcd60e51b815260206004820181905260248201527f43616e6e6f74207375626d697420612063616e63656c65642070726f6a6563746044820152606401610bfd565b806005015442106141ed5760405162461bcd60e51b815260206004820152601360248201527f446561646c696e652068617320706173736564000000000000000000000000006044820152606401610bfd565b600701805463ff0000001916630100000017905550565b6002546001600160a01b0316331461426c5760405162461bcd60e51b815260206004820152602560248201527f43616c6c6572206973206e6f742074686520676f7665726e616e636520636f6e6044820152641d1c9858dd60da1b6064820152608401610bfd565b6001600160a01b0381166142e85760405162461bcd60e51b815260206004820152602360248201527f496e76616c696420676f7665726e616e636520636f6e7472616374206164647260448201527f65737300000000000000000000000000000000000000000000000000000000006064820152608401610bfd565b600280546001600160a01b0319166001600160a01b0392909216919091179055565b60606000805480602002602001604051908101604052809291908181526020018280548015612cf2576020028201919060005260206000209081546001600160a01b03168152600190910190602001808311612cd4575050505050905090565b6143e16040518061018001604052806000815260200160006001600160a01b0316815260200160608152602001606081526020016060815260200160008152602001600081526020016000151581526020016000151581526020016000151581526020016000151581526020016000151581525090565b6003548211156144285760405162461bcd60e51b8152602060048201526012602482015271125b9d985b1a59081c1c9bda9958dd08125160721b6044820152606401610bfd565b6000828152600a60209081526040918290208251610180810184528154815260018201546001600160a01b031692810192909252600281018054929391929184019161447390615660565b80601f016020809104026020016040519081016040528092919081815260200182805461449f90615660565b80156144ec5780601f106144c1576101008083540402835291602001916144ec565b820191906000526020600020905b8154815290600101906020018083116144cf57829003601f168201915b5050505050815260200160038201805461450590615660565b80601f016020809104026020016040519081016040528092919081815260200182805461453190615660565b801561457e5780601f106145535761010080835404028352916020019161457e565b820191906000526020600020905b81548152906001019060200180831161456157829003601f168201915b5050505050815260200160048201805461459790615660565b80601f01602080910402602001604051908101604052809291908181526020018280546145c390615660565b80156146105780601f106145e557610100808354040283529160200191614610565b820191906000526020600020905b8154815290600101906020018083116145f357829003601f168201915b5050509183525050600582015460208201526006820154604082015260079091015460ff8082161515606084015261010082048116151560808401526201000082048116151560a0840152630100000082048116151560c084015264010000000090910416151560e09091015292915050565b6000818152601060205260409020546001600160a01b031633146146f55760405162461bcd60e51b8152602060048201526024808201527f796f7520617265206e6f74207468652073656c656374656420667265656c616e604482015263031b2b9160e51b6064820152608401610bfd565b60008181526012602052604090205460ff166147795760405162461bcd60e51b815260206004820152602260248201527f4e6f20646973707574652072616973656420666f7220746869732070726f6a6560448201527f63740000000000000000000000000000000000000000000000000000000000006064820152608401610bfd565b6000908152601260205260409020805460ff19169055565b600080600660009054906101000a90046001600160a01b03166001600160a01b031663feaf968c6040518163ffffffff1660e01b815260040160a060405180830381865afa1580156147e7573d6000803e3d6000fd5b505050506040513d601f19601f8201168201806040525081019061480b91906155cd565b5050509150506402540be400816148229190615627565b60085461482f8186615627565b6148399190615627565b614843919061563e565b9392505050565b60606003548211156148935760405162461bcd60e51b8152602060048201526012602482015271125b9d985b1a59081c1c9bda9958dd08125160721b6044820152606401610bfd565b6000828152600c6020908152604091829020805483518184028101840190945280845290918301828280156148f157602002820191906000526020600020905b81546001600160a01b031681526001909101906020018083116148d3575b50505050509050919050565b600061344282611200565b600080600660009054906101000a90046001600160a01b03166001600160a01b031663feaf968c6040518163ffffffff1660e01b815260040160a060405180830381865afa15801561495e573d6000803e3d6000fd5b505050506040513d601f19601f8201168201806040525081019061498291906155cd565b509195945050505050565b60606004805480602002602001604051908101604052809291908181526020016000905b82821015614c235760008481526020908190206040805161018081018252600886029092018054835260018101546001600160a01b03169383019390935260028301805492939291840191614a0590615660565b80601f0160208091040260200160405190810160405280929190818152602001828054614a3190615660565b8015614a7e5780601f10614a5357610100808354040283529160200191614a7e565b820191906000526020600020905b815481529060010190602001808311614a6157829003601f168201915b50505050508152602001600382018054614a9790615660565b80601f0160208091040260200160405190810160405280929190818152602001828054614ac390615660565b8015614b105780601f10614ae557610100808354040283529160200191614b10565b820191906000526020600020905b815481529060010190602001808311614af357829003601f168201915b50505050508152602001600482018054614b2990615660565b80601f0160208091040260200160405190810160405280929190818152602001828054614b5590615660565b8015614ba25780601f10614b7757610100808354040283529160200191614ba2565b820191906000526020600020905b815481529060010190602001808311614b8557829003601f168201915b505050918352505060058201546020808301919091526006830154604083015260079092015460ff8082161515606084015261010082048116151560808401526201000082048116151560a0840152630100000082048116151560c084015264010000000090910416151560e09091015290825260019290920191016149b1565b50505050905090565b6000600354821115614c755760405162461bcd60e51b8152602060048201526012602482015271125b9d985b1a59081c1c9bda9958dd08125160721b6044820152606401610bfd565b506000908152600e602052604090205460ff1690565b6000600354821115614cd45760405162461bcd60e51b8152602060048201526012602482015271125b9d985b1a59081c1c9bda9958dd08125160721b6044820152606401610bfd565b506000908152600a602052604090206007015462010000900460ff1690565b60018181548110610c8857600080fd5b614d2e6040518060800160405280606081526020016060815260200160608152602001600081525090565b6001600160a01b03821660009081526011602052604090819020815160808101909252805482908290614d6090615660565b80601f0160208091040260200160405190810160405280929190818152602001828054614d8c90615660565b8015614dd95780601f10614dae57610100808354040283529160200191614dd9565b820191906000526020600020905b815481529060010190602001808311614dbc57829003601f168201915b50505050508152602001600182018054614df290615660565b80601f0160208091040260200160405190810160405280929190818152602001828054614e1e90615660565b8015614e6b5780601f10614e4057610100808354040283529160200191614e6b565b820191906000526020600020905b815481529060010190602001808311614e4e57829003601f168201915b50505050508152602001600282018054614e8490615660565b80601f0160208091040260200160405190810160405280929190818152602001828054614eb090615660565b8015614efd5780601f10614ed257610100808354040283529160200191614efd565b820191906000526020600020905b815481529060010190602001808311614ee057829003601f168201915b505050505081526020016003820154815250509050919050565b600060208284031215614f2957600080fd5b5035919050565b6000815180845260005b81811015614f5657602081850181015186830182015201614f3a565b506000602082860101526020601f19601f83011685010191505092915050565b60006101808e83526001600160a01b038e166020840152806040840152614f9f8184018e614f30565b90508281036060840152614fb3818d614f30565b90508281036080840152614fc7818c614f30565b9150508860a08301528760c083015286151560e0830152851515610100830152614ff661012083018615159052565b921515610140820152901515610160909101529a9950505050505050505050565b80356001600160a01b038116811461502e57600080fd5b919050565b60006020828403121561504557600080fd5b61484382615017565b6000806040838503121561506157600080fd5b50508035926020909101359150565b634e487b7160e01b600052604160045260246000fd5b600082601f83011261509757600080fd5b813567ffffffffffffffff808211156150b2576150b2615070565b604051601f8301601f19908116603f011681019082821181831017156150da576150da615070565b816040528381528660208588010111156150f357600080fd5b836020870160208301376000602085830101528094505050505092915050565b600080600080600060a0868803121561512b57600080fd5b61513486615017565b9450602086013567ffffffffffffffff8082111561515157600080fd5b61515d89838a01615086565b9550604088013591508082111561517357600080fd5b61517f89838a01615086565b9450606088013591508082111561519557600080fd5b506151a288828901615086565b95989497509295608001359392505050565b8035801515811461502e57600080fd5b600080600080600060a086880312156151dc57600080fd5b853567ffffffffffffffff808211156151f457600080fd5b61520089838a01615086565b9650602088013591508082111561521657600080fd5b61522289838a01615086565b9550604088013591508082111561523857600080fd5b5061524588828901615086565b9350506060860135915061525b608087016151b4565b90509295509295909350565b6020808252825182820181905260009190848201906040850190845b818110156152a85783516001600160a01b031683529284019291840191600101615283565b50909695505050505050565b6080815260006152c76080830187614f30565b82810360208401526152d98187614f30565b905082810360408401526152ed8186614f30565b91505082606083015295945050505050565b6000806040838503121561531257600080fd5b8235915061532260208401615017565b90509250929050565b60008060008060008060c0878903121561534457600080fd5b863567ffffffffffffffff8082111561535c57600080fd5b6153688a838b01615086565b9750602089013591508082111561537e57600080fd5b61538a8a838b01615086565b965060408901359150808211156153a057600080fd5b506153ad89828a01615086565b94505060608701359250608087013591506153ca60a088016151b4565b90509295509295509295565b60006101808251845260208301516153f960208601826001600160a01b03169052565b50604083015181604086015261541182860182614f30565b9150506060830151848203606086015261542b8282614f30565b915050608083015184820360808601526154458282614f30565b91505060a083015160a085015260c083015160c085015260e083015161546f60e086018215159052565b5061010083810151151590850152610120808401511515908501526101408084015115159085015261016092830151151592909301919091525090565b60208152600061484360208301846153d6565b600080604083850312156154d257600080fd5b82359150615322602084016151b4565b6000602080830181845280855180835260408601915060408160051b870101925083870160005b8281101561553757603f198886030184526155258583516153d6565b94509285019290850190600101615509565b5092979650505050505050565b60208152600082516080602084015261556060a0840182614f30565b90506020840151601f198085840301604086015261557e8383614f30565b925060408601519150808584030160608601525061559c8282614f30565b915050606084015160808401528091505092915050565b805169ffffffffffffffffffff8116811461502e57600080fd5b600080600080600060a086880312156155e557600080fd5b6155ee866155b3565b945060208601519350604086015192506060860151915061525b608087016155b3565b634e487b7160e01b600052601160045260246000fd5b808202811582820484141761344257613442615611565b60008261565b57634e487b7160e01b600052601260045260246000fd5b500490565b600181811c9082168061567457607f821691505b60208210810361569457634e487b7160e01b600052602260045260246000fd5b50919050565b601f8211156156e457600081815260208120601f850160051c810160208610156156c15750805b601f850160051c820191505b818110156156e0578281556001016156cd565b5050505b505050565b815167ffffffffffffffff81111561570357615703615070565b615717816157118454615660565b8461569a565b602080601f83116001811461574c57600084156157345750858301515b600019600386901b1c1916600185901b1785556156e0565b600085815260208120601f198616915b8281101561577b5788860151825594840194600190910190840161575c565b50858210156157995787850151600019600388901b60f8161c191681555b5050505050600190811b01905550565b634e487b7160e01b600052603260045260246000fd5b6000600182016157d1576157d1615611565b5060010190565b808201808211156134425761344261561156fea2646970667358221220402699cb16cd7c433204a72a1c3d9bde0f6789e1fda8b562881da7971b64c25264736f6c63430008130033",
  "linkReferences": {},
  "deployedLinkReferences": {}
}