{
  "_format": "hh-sol-artifact-1",
  "contractName": "FreeLanceDAO",
  "sourceName": "contracts/FreeLanceDAO.sol",
  "abi": [
    {
      "inputs": [
        {
          "internalType": "contract AggregatorV3Interface",
          "name": "_pricefeed",
          "type": "address"
        },
        {
          "internalType": "address",
          "name": "_governanceContract",
          "type": "address"
        }
      ],
      "stateMutability": "nonpayable",
      "type": "constructor"
    },
    {
      "inputs": [],
      "name": "INITIALRATING",
      "outputs": [
        {
          "internalType": "uint256",
          "name": "",
          "type": "uint256"
        }
      ],
      "stateMutability": "view",
      "type": "function"
    },
    {
      "inputs": [],
      "name": "MINIMUMUSD",
      "outputs": [
        {
          "internalType": "uint256",
          "name": "",
          "type": "uint256"
        }
      ],
      "stateMutability": "view",
      "type": "function"
    },
    {
      "inputs": [],
      "name": "PERCENT",
      "outputs": [
        {
          "internalType": "uint256",
          "name": "",
          "type": "uint256"
        }
      ],
      "stateMutability": "view",
      "type": "function"
    },
    {
      "inputs": [],
      "name": "PRECISION",
      "outputs": [
        {
          "internalType": "uint256",
          "name": "",
          "type": "uint256"
        }
      ],
      "stateMutability": "view",
      "type": "function"
    },
    {
      "inputs": [
        {
          "internalType": "uint256",
          "name": "projectId",
          "type": "uint256"
        }
      ],
      "name": "applyForTheProject",
      "outputs": [
        {
          "internalType": "bool",
          "name": "",
          "type": "bool"
        }
      ],
      "stateMutability": "nonpayable",
      "type": "function"
    },
    {
      "inputs": [
        {
          "internalType": "uint256",
          "name": "projectId",
          "type": "uint256"
        }
      ],
      "name": "cancelTheProject",
      "outputs": [
        {
          "internalType": "bool",
          "name": "",
          "type": "bool"
        }
      ],
      "stateMutability": "nonpayable",
      "type": "function"
    },
    {
      "inputs": [
        {
          "internalType": "uint256",
          "name": "",
          "type": "uint256"
        }
      ],
      "name": "clients",
      "outputs": [
        {
          "internalType": "address",
          "name": "",
          "type": "address"
        }
      ],
      "stateMutability": "view",
      "type": "function"
    },
    {
      "inputs": [
        {
          "internalType": "string",
          "name": "_name",
          "type": "string"
        },
        {
          "internalType": "string",
          "name": "_projectType",
          "type": "string"
        },
        {
          "internalType": "string",
          "name": "_description",
          "type": "string"
        },
        {
          "internalType": "uint256",
          "name": "_deadline",
          "type": "uint256"
        },
        {
          "internalType": "uint256",
          "name": "_amount",
          "type": "uint256"
        },
        {
          "internalType": "bool",
          "name": "_isUsd",
          "type": "bool"
        }
      ],
      "name": "createProject",
      "outputs": [
        {
          "internalType": "uint256",
          "name": "",
          "type": "uint256"
        }
      ],
      "stateMutability": "payable",
      "type": "function"
    },
    {
      "inputs": [],
      "name": "daoGovernance",
      "outputs": [
        {
          "internalType": "address",
          "name": "",
          "type": "address"
        }
      ],
      "stateMutability": "view",
      "type": "function"
    },
    {
      "inputs": [],
      "name": "enrollClient",
      "outputs": [],
      "stateMutability": "nonpayable",
      "type": "function"
    },
    {
      "inputs": [
        {
          "internalType": "string",
          "name": "_name",
          "type": "string"
        },
        {
          "internalType": "string",
          "name": "_skills",
          "type": "string"
        },
        {
          "internalType": "string",
          "name": "_bio",
          "type": "string"
        },
        {
          "internalType": "uint256",
          "name": "_amount",
          "type": "uint256"
        },
        {
          "internalType": "bool",
          "name": "isUsd",
          "type": "bool"
        }
      ],
      "name": "enrollFreelancer",
      "outputs": [],
      "stateMutability": "payable",
      "type": "function"
    },
    {
      "inputs": [
        {
          "internalType": "uint256",
          "name": "projectId",
          "type": "uint256"
        },
        {
          "internalType": "uint256",
          "name": "newDeadline",
          "type": "uint256"
        }
      ],
      "name": "extendDeadline",
      "outputs": [],
      "stateMutability": "nonpayable",
      "type": "function"
    },
    {
      "inputs": [
        {
          "internalType": "address",
          "name": "",
          "type": "address"
        }
      ],
      "name": "freelancerProfiles",
      "outputs": [
        {
          "internalType": "string",
          "name": "name",
          "type": "string"
        },
        {
          "internalType": "string",
          "name": "skills",
          "type": "string"
        },
        {
          "internalType": "string",
          "name": "bio",
          "type": "string"
        },
        {
          "internalType": "uint256",
          "name": "rating",
          "type": "uint256"
        }
      ],
      "stateMutability": "view",
      "type": "function"
    },
    {
      "inputs": [
        {
          "internalType": "address",
          "name": "",
          "type": "address"
        }
      ],
      "name": "freelancerRatings",
      "outputs": [
        {
          "internalType": "uint256",
          "name": "",
          "type": "uint256"
        }
      ],
      "stateMutability": "view",
      "type": "function"
    },
    {
      "inputs": [
        {
          "internalType": "uint256",
          "name": "",
          "type": "uint256"
        }
      ],
      "name": "freelancers",
      "outputs": [
        {
          "internalType": "address",
          "name": "",
          "type": "address"
        }
      ],
      "stateMutability": "view",
      "type": "function"
    },
    {
      "inputs": [],
      "name": "getClients",
      "outputs": [
        {
          "internalType": "address[]",
          "name": "",
          "type": "address[]"
        }
      ],
      "stateMutability": "view",
      "type": "function"
    },
    {
      "inputs": [
        {
          "internalType": "uint256",
          "name": "usdAmountInWei",
          "type": "uint256"
        }
      ],
      "name": "getEthEquivalent",
      "outputs": [
        {
          "internalType": "uint256",
          "name": "",
          "type": "uint256"
        }
      ],
      "stateMutability": "view",
      "type": "function"
    },
    {
      "inputs": [],
      "name": "getFreelancerCount",
      "outputs": [
        {
          "internalType": "uint256",
          "name": "",
          "type": "uint256"
        }
      ],
      "stateMutability": "view",
      "type": "function"
    },
    {
      "inputs": [
        {
          "internalType": "address",
          "name": "freelancer",
          "type": "address"
        }
      ],
      "name": "getFreelancerProfile",
      "outputs": [
        {
          "components": [
            {
              "internalType": "string",
              "name": "name",
              "type": "string"
            },
            {
              "internalType": "string",
              "name": "skills",
              "type": "string"
            },
            {
              "internalType": "string",
              "name": "bio",
              "type": "string"
            },
            {
              "internalType": "uint256",
              "name": "rating",
              "type": "uint256"
            }
          ],
          "internalType": "struct FreeLanceDAO.FreelancerProfile",
          "name": "",
          "type": "tuple"
        }
      ],
      "stateMutability": "view",
      "type": "function"
    },
    {
      "inputs": [
        {
          "internalType": "address",
          "name": "freelancer",
          "type": "address"
        }
      ],
      "name": "getFreelancerRating",
      "outputs": [
        {
          "internalType": "uint256",
          "name": "",
          "type": "uint256"
        }
      ],
      "stateMutability": "view",
      "type": "function"
    },
    {
      "inputs": [],
      "name": "getFreelancers",
      "outputs": [
        {
          "internalType": "address[]",
          "name": "",
          "type": "address[]"
        }
      ],
      "stateMutability": "view",
      "type": "function"
    },
    {
      "inputs": [
        {
          "internalType": "uint256",
          "name": "projectId",
          "type": "uint256"
        }
      ],
      "name": "getFreelancersForProject",
      "outputs": [
        {
          "internalType": "address[]",
          "name": "",
          "type": "address[]"
        }
      ],
      "stateMutability": "view",
      "type": "function"
    },
    {
      "inputs": [],
      "name": "getGovernanceAddress",
      "outputs": [
        {
          "internalType": "address",
          "name": "",
          "type": "address"
        }
      ],
      "stateMutability": "view",
      "type": "function"
    },
    {
      "inputs": [],
      "name": "getPlatformFee",
      "outputs": [
        {
          "internalType": "uint256",
          "name": "",
          "type": "uint256"
        }
      ],
      "stateMutability": "view",
      "type": "function"
    },
    {
      "inputs": [],
      "name": "getPriceFeedAddress",
      "outputs": [
        {
          "internalType": "contract AggregatorV3Interface",
          "name": "",
          "type": "address"
        }
      ],
      "stateMutability": "view",
      "type": "function"
    },
    {
      "inputs": [
        {
          "internalType": "uint256",
          "name": "projectId",
          "type": "uint256"
        }
      ],
      "name": "getProjectById",
      "outputs": [
        {
          "components": [
            {
              "internalType": "uint256",
              "name": "projectId",
              "type": "uint256"
            },
            {
              "internalType": "address",
              "name": "creatorOrOwner",
              "type": "address"
            },
            {
              "internalType": "string",
              "name": "name",
              "type": "string"
            },
            {
              "internalType": "string",
              "name": "projectType",
              "type": "string"
            },
            {
              "internalType": "string",
              "name": "description",
              "type": "string"
            },
            {
              "internalType": "uint256",
              "name": "deadline",
              "type": "uint256"
            },
            {
              "internalType": "uint256",
              "name": "amount",
              "type": "uint256"
            },
            {
              "internalType": "bool",
              "name": "isPaidToContract",
              "type": "bool"
            },
            {
              "internalType": "bool",
              "name": "isPaidToFreelancer",
              "type": "bool"
            },
            {
              "internalType": "bool",
              "name": "isCanceled",
              "type": "bool"
            },
            {
              "internalType": "bool",
              "name": "completed",
              "type": "bool"
            },
            {
              "internalType": "bool",
              "name": "isUsd",
              "type": "bool"
            }
          ],
          "internalType": "struct FreeLanceDAO.Project",
          "name": "",
          "type": "tuple"
        }
      ],
      "stateMutability": "view",
      "type": "function"
    },
    {
      "inputs": [],
      "name": "getProjects",
      "outputs": [
        {
          "components": [
            {
              "internalType": "uint256",
              "name": "projectId",
              "type": "uint256"
            },
            {
              "internalType": "address",
              "name": "creatorOrOwner",
              "type": "address"
            },
            {
              "internalType": "string",
              "name": "name",
              "type": "string"
            },
            {
              "internalType": "string",
              "name": "projectType",
              "type": "string"
            },
            {
              "internalType": "string",
              "name": "description",
              "type": "string"
            },
            {
              "internalType": "uint256",
              "name": "deadline",
              "type": "uint256"
            },
            {
              "internalType": "uint256",
              "name": "amount",
              "type": "uint256"
            },
            {
              "internalType": "bool",
              "name": "isPaidToContract",
              "type": "bool"
            },
            {
              "internalType": "bool",
              "name": "isPaidToFreelancer",
              "type": "bool"
            },
            {
              "internalType": "bool",
              "name": "isCanceled",
              "type": "bool"
            },
            {
              "internalType": "bool",
              "name": "completed",
              "type": "bool"
            },
            {
              "internalType": "bool",
              "name": "isUsd",
              "type": "bool"
            }
          ],
          "internalType": "struct FreeLanceDAO.Project[]",
          "name": "",
          "type": "tuple[]"
        }
      ],
      "stateMutability": "view",
      "type": "function"
    },
    {
      "inputs": [
        {
          "internalType": "uint256",
          "name": "projectId",
          "type": "uint256"
        }
      ],
      "name": "getSelectedFreelancer",
      "outputs": [
        {
          "internalType": "address",
          "name": "",
          "type": "address"
        }
      ],
      "stateMutability": "view",
      "type": "function"
    },
    {
      "inputs": [],
      "name": "getTotalPlatformFees",
      "outputs": [
        {
          "internalType": "uint256",
          "name": "",
          "type": "uint256"
        }
      ],
      "stateMutability": "view",
      "type": "function"
    },
    {
      "inputs": [],
      "name": "getTotalProjects",
      "outputs": [
        {
          "internalType": "uint256",
          "name": "",
          "type": "uint256"
        }
      ],
      "stateMutability": "view",
      "type": "function"
    },
    {
      "inputs": [
        {
          "internalType": "uint256",
          "name": "projectId",
          "type": "uint256"
        }
      ],
      "name": "hasDispute",
      "outputs": [
        {
          "internalType": "bool",
          "name": "",
          "type": "bool"
        }
      ],
      "stateMutability": "view",
      "type": "function"
    },
    {
      "inputs": [
        {
          "internalType": "uint256",
          "name": "projectId",
          "type": "uint256"
        },
        {
          "internalType": "address",
          "name": "freelancer",
          "type": "address"
        }
      ],
      "name": "hasFreelancerAppliedForProject",
      "outputs": [
        {
          "internalType": "bool",
          "name": "",
          "type": "bool"
        }
      ],
      "stateMutability": "view",
      "type": "function"
    },
    {
      "inputs": [
        {
          "internalType": "uint256",
          "name": "",
          "type": "uint256"
        }
      ],
      "name": "idToProject",
      "outputs": [
        {
          "internalType": "uint256",
          "name": "projectId",
          "type": "uint256"
        },
        {
          "internalType": "address",
          "name": "creatorOrOwner",
          "type": "address"
        },
        {
          "internalType": "string",
          "name": "name",
          "type": "string"
        },
        {
          "internalType": "string",
          "name": "projectType",
          "type": "string"
        },
        {
          "internalType": "string",
          "name": "description",
          "type": "string"
        },
        {
          "internalType": "uint256",
          "name": "deadline",
          "type": "uint256"
        },
        {
          "internalType": "uint256",
          "name": "amount",
          "type": "uint256"
        },
        {
          "internalType": "bool",
          "name": "isPaidToContract",
          "type": "bool"
        },
        {
          "internalType": "bool",
          "name": "isPaidToFreelancer",
          "type": "bool"
        },
        {
          "internalType": "bool",
          "name": "isCanceled",
          "type": "bool"
        },
        {
          "internalType": "bool",
          "name": "completed",
          "type": "bool"
        },
        {
          "internalType": "bool",
          "name": "isUsd",
          "type": "bool"
        }
      ],
      "stateMutability": "view",
      "type": "function"
    },
    {
      "inputs": [
        {
          "internalType": "address",
          "name": "_user",
          "type": "address"
        }
      ],
      "name": "isFreelancerEnrolledOrNot",
      "outputs": [
        {
          "internalType": "bool",
          "name": "",
          "type": "bool"
        }
      ],
      "stateMutability": "view",
      "type": "function"
    },
    {
      "inputs": [
        {
          "internalType": "uint256",
          "name": "projectId",
          "type": "uint256"
        }
      ],
      "name": "isProjectCanceled",
      "outputs": [
        {
          "internalType": "bool",
          "name": "",
          "type": "bool"
        }
      ],
      "stateMutability": "view",
      "type": "function"
    },
    {
      "inputs": [
        {
          "internalType": "uint256",
          "name": "projectId",
          "type": "uint256"
        }
      ],
      "name": "isProjectCompleted",
      "outputs": [
        {
          "internalType": "bool",
          "name": "",
          "type": "bool"
        }
      ],
      "stateMutability": "view",
      "type": "function"
    },
    {
      "inputs": [
        {
          "internalType": "uint256",
          "name": "projectId",
          "type": "uint256"
        }
      ],
      "name": "isProjectPicked",
      "outputs": [
        {
          "internalType": "bool",
          "name": "",
          "type": "bool"
        }
      ],
      "stateMutability": "view",
      "type": "function"
    },
    {
      "inputs": [
        {
          "internalType": "uint256",
          "name": "projectId",
          "type": "uint256"
        }
      ],
      "name": "isProjectSelectedByOwner",
      "outputs": [
        {
          "internalType": "bool",
          "name": "",
          "type": "bool"
        }
      ],
      "stateMutability": "view",
      "type": "function"
    },
    {
      "inputs": [
        {
          "internalType": "uint256",
          "name": "usdAmountInWei",
          "type": "uint256"
        }
      ],
      "name": "price",
      "outputs": [
        {
          "internalType": "uint256",
          "name": "",
          "type": "uint256"
        }
      ],
      "stateMutability": "view",
      "type": "function"
    },
    {
      "inputs": [],
      "name": "priceFeed",
      "outputs": [
        {
          "internalType": "contract AggregatorV3Interface",
          "name": "",
          "type": "address"
        }
      ],
      "stateMutability": "view",
      "type": "function"
    },
    {
      "inputs": [],
      "name": "priceOfEthInUsd",
      "outputs": [
        {
          "internalType": "uint256",
          "name": "",
          "type": "uint256"
        }
      ],
      "stateMutability": "view",
      "type": "function"
    },
    {
      "inputs": [
        {
          "internalType": "uint256",
          "name": "",
          "type": "uint256"
        }
      ],
      "name": "projects",
      "outputs": [
        {
          "internalType": "uint256",
          "name": "projectId",
          "type": "uint256"
        },
        {
          "internalType": "address",
          "name": "creatorOrOwner",
          "type": "address"
        },
        {
          "internalType": "string",
          "name": "name",
          "type": "string"
        },
        {
          "internalType": "string",
          "name": "projectType",
          "type": "string"
        },
        {
          "internalType": "string",
          "name": "description",
          "type": "string"
        },
        {
          "internalType": "uint256",
          "name": "deadline",
          "type": "uint256"
        },
        {
          "internalType": "uint256",
          "name": "amount",
          "type": "uint256"
        },
        {
          "internalType": "bool",
          "name": "isPaidToContract",
          "type": "bool"
        },
        {
          "internalType": "bool",
          "name": "isPaidToFreelancer",
          "type": "bool"
        },
        {
          "internalType": "bool",
          "name": "isCanceled",
          "type": "bool"
        },
        {
          "internalType": "bool",
          "name": "completed",
          "type": "bool"
        },
        {
          "internalType": "bool",
          "name": "isUsd",
          "type": "bool"
        }
      ],
      "stateMutability": "view",
      "type": "function"
    },
    {
      "inputs": [
        {
          "internalType": "uint256",
          "name": "projectId",
          "type": "uint256"
        }
      ],
      "name": "raiseDisputes",
      "outputs": [],
      "stateMutability": "nonpayable",
      "type": "function"
    },
    {
      "inputs": [
        {
          "internalType": "uint256",
          "name": "projectId",
          "type": "uint256"
        },
        {
          "internalType": "uint256",
          "name": "rating",
          "type": "uint256"
        }
      ],
      "name": "rateFreelancer",
      "outputs": [],
      "stateMutability": "nonpayable",
      "type": "function"
    },
    {
      "inputs": [
        {
          "internalType": "uint256",
          "name": "projectId",
          "type": "uint256"
        }
      ],
      "name": "resolveDispute",
      "outputs": [],
      "stateMutability": "nonpayable",
      "type": "function"
    },
    {
      "inputs": [
        {
          "internalType": "uint256",
          "name": "projectId",
          "type": "uint256"
        }
      ],
      "name": "selectingFreelancer",
      "outputs": [
        {
          "internalType": "address",
          "name": "",
          "type": "address"
        }
      ],
      "stateMutability": "nonpayable",
      "type": "function"
    },
    {
      "inputs": [
        {
          "internalType": "uint256",
          "name": "newFee",
          "type": "uint256"
        }
      ],
      "name": "setPlatformFee",
      "outputs": [],
      "stateMutability": "nonpayable",
      "type": "function"
    },
    {
      "inputs": [
        {
          "internalType": "uint256",
          "name": "projectId",
          "type": "uint256"
        }
      ],
      "name": "submitTheProject",
      "outputs": [],
      "stateMutability": "nonpayable",
      "type": "function"
    },
    {
      "inputs": [
        {
          "internalType": "uint256",
          "name": "amount",
          "type": "uint256"
        }
      ],
      "name": "toGiveAfundInEther",
      "outputs": [],
      "stateMutability": "payable",
      "type": "function"
    },
    {
      "inputs": [
        {
          "internalType": "uint256",
          "name": "_amount",
          "type": "uint256"
        },
        {
          "internalType": "bool",
          "name": "IsUsd",
          "type": "bool"
        }
      ],
      "name": "toGiveAfundInUsd",
      "outputs": [],
      "stateMutability": "payable",
      "type": "function"
    },
    {
      "inputs": [],
      "name": "totalPlatformFees",
      "outputs": [
        {
          "internalType": "uint256",
          "name": "",
          "type": "uint256"
        }
      ],
      "stateMutability": "view",
      "type": "function"
    },
    {
      "inputs": [],
      "name": "totalProjects",
      "outputs": [
        {
          "internalType": "uint256",
          "name": "",
          "type": "uint256"
        }
      ],
      "stateMutability": "view",
      "type": "function"
    },
    {
      "inputs": [
        {
          "internalType": "address",
          "name": "newGovernanceContract",
          "type": "address"
        }
      ],
      "name": "updateGovernance",
      "outputs": [],
      "stateMutability": "nonpayable",
      "type": "function"
    },
    {
      "inputs": [
        {
          "internalType": "address",
          "name": "_freelancer",
          "type": "address"
        },
        {
          "internalType": "string",
          "name": "name",
          "type": "string"
        },
        {
          "internalType": "string",
          "name": "bio",
          "type": "string"
        },
        {
          "internalType": "string",
          "name": "skills",
          "type": "string"
        },
        {
          "internalType": "uint256",
          "name": "rating",
          "type": "uint256"
        }
      ],
      "name": "updatefreelancerProfile",
      "outputs": [
        {
          "internalType": "bool",
          "name": "",
          "type": "bool"
        }
      ],
      "stateMutability": "nonpayable",
      "type": "function"
    },
    {
      "inputs": [
        {
          "internalType": "uint256",
          "name": "projectId",
          "type": "uint256"
        }
      ],
      "name": "validateTheProject",
      "outputs": [],
      "stateMutability": "nonpayable",
      "type": "function"
    },
    {
      "inputs": [],
      "name": "withdraw",
      "outputs": [],
      "stateMutability": "nonpayable",
      "type": "function"
    },
    {
      "inputs": [
        {
          "internalType": "uint256",
          "name": "projectId",
          "type": "uint256"
        }
      ],
      "name": "withdrawTheProject",
      "outputs": [],
      "stateMutability": "nonpayable",
      "type": "function"
    },
    {
      "stateMutability": "payable",
      "type": "receive"
    }
  ],
  "bytecode": "0x60806040526002600755670de0b6b3a76400006008553480156200002257600080fd5b506040516200589038038062005890833981016040819052620000459162000104565b600680546001600160a01b0319166001600160a01b03848116919091179091558116620000c45760405162461bcd60e51b815260206004820152602360248201527f496e76616c696420676f7665726e616e636520636f6e7472616374206164647260448201526265737360e81b606482015260840160405180910390fd5b600280546001600160a01b0319166001600160a01b03929092169190911790555062000143565b6001600160a01b03811681146200010157600080fd5b50565b600080604083850312156200011857600080fd5b82516200012581620000eb565b60208401519092506200013881620000eb565b809150509250929050565b61573d80620001536000396000f3fe60806040526004361061037a5760003560e01c8063741bef1a116101d1578063b256126311610102578063d2468b19116100a0578063eefe66b91161006f578063eefe66b914610a53578063f0e70ffc14610a73578063f88af21d14610a93578063fb8c0f0e14610ab357600080fd5b8063d2468b19146109e6578063d3631fa514610a06578063d58e56eb14610a1c578063dcc6012814610a3157600080fd5b8063bee5cdca116100dc578063bee5cdca14610966578063c2b7b86814610993578063c7c5aff1146109b3578063cbb0ddae146109c657600080fd5b8063b25612631461091c578063b5bb59c01461093c578063b85a8b201461095157600080fd5b8063904689771161016f578063a5ff7b8311610149578063a5ff7b83146108b3578063aaf5eb68146108c6578063aba7923b146108dc578063ae4b5ed2146108fc57600080fd5b8063904689771461085d578063931c1d891461087d5780639c361e4e1461089d57600080fd5b80637d451480116101ab5780637d451480146107f25780637ea62c8714610808578063812739a21461082857806381d0ef861461083d57600080fd5b8063741bef1a146107825780637ae339fd146107a25780637cfa800e146107d257600080fd5b80633a766ddf116102ab578063642c2050116102495780636d2f5e39116102235780636d2f5e391461071a5780636db809951461072d5780636ea8bc101461074f578063732524941461076457600080fd5b8063642c2050146106c557806367fa173e146106e55780636a44c310146106fa57600080fd5b80634428b133116102855780634428b133146106045780634a623b48146106245780635646897b1461063957806362d0b7d11461067257600080fd5b80633a766ddf146105995780633ccfd60b146105cf5780633d4e5ddd146105e457600080fd5b806326a49e37116103185780632f4fe553116102f25780632f4fe5531461051457806331521d571461054457806333ddc6f7146105595780633741a68d1461057957600080fd5b806326a49e371461049957806327db21e1146104c75780632d1fdef6146104f457600080fd5b8063107046bd11610354578063107046bd1461040157806312e8e2c314610439578063192e2742146104595780631f372e291461047957600080fd5b80630b4bcaca146103935780630b9364d8146103a65780630f0f30b2146103e357600080fd5b3661038e5734600061038c8282610ae0565b005b600080fd5b61038c6103a1366004614e2c565b610bee565b3480156103b257600080fd5b506103c66103c1366004614e2c565b610c4d565b6040516001600160a01b0390911681526020015b60405180910390f35b3480156103ef57600080fd5b506006546001600160a01b03166103c6565b34801561040d57600080fd5b5061042161041c366004614e2c565b610c77565b6040516103da9c9b9a99989796959493929190614e8b565b34801561044557600080fd5b5061038c610454366004614e2c565b610e9a565b34801561046557600080fd5b506103c6610474366004614e2c565b610f07565b34801561048557600080fd5b5061038c610494366004614e2c565b610f6c565b3480156104a557600080fd5b506104b96104b4366004614e2c565b6111d5565b6040519081526020016103da565b3480156104d357600080fd5b506104b96104e2366004614f48565b600f6020526000908152604090205481565b34801561050057600080fd5b5061038c61050f366004614f6a565b61128e565b34801561052057600080fd5b5061053461052f36600461502f565b6113d4565b60405190151581526020016103da565b34801561055057600080fd5b506005546104b9565b34801561056557600080fd5b50610534610574366004614e2c565b611574565b34801561058557600080fd5b5061038c610594366004614e2c565b611b12565b3480156105a557600080fd5b506104b96105b4366004614f48565b6001600160a01b03166000908152600f602052604090205490565b3480156105db57600080fd5b5061038c611f31565b3480156105f057600080fd5b506002546103c6906001600160a01b031681565b34801561061057600080fd5b5061038c61061f366004614e2c565b612098565b34801561063057600080fd5b506000546104b9565b34801561064557600080fd5b50610534610654366004614f48565b6001600160a01b031660009081526013602052604090205460ff1690565b34801561067e57600080fd5b5061038c6001805480820182556000919091527fb10e2d527612073b26eecdfd717e6a320cf44b4afac2b0732d9fcbe2b7fa0cf60180546001600160a01b03191633179055565b3480156106d157600080fd5b5061038c6106e0366004614f6a565b6124d9565b3480156106f157600080fd5b506104b9600181565b34801561070657600080fd5b50610534610715366004614e2c565b6128c4565b61038c6107283660046150e0565b61292d565b34801561073957600080fd5b50610742612c68565b6040516103da9190615183565b34801561075b57600080fd5b506007546104b9565b34801561077057600080fd5b506002546001600160a01b03166103c6565b34801561078e57600080fd5b506006546103c6906001600160a01b031681565b3480156107ae57600080fd5b506107c26107bd366004614f48565b612cca565b6040516103da94939291906151d0565b3480156107de57600080fd5b506105346107ed366004614e2c565b612e8a565b3480156107fe57600080fd5b506104b96103e881565b34801561081457600080fd5b50610534610823366004614e2c565b613340565b34801561083457600080fd5b506003546104b9565b34801561084957600080fd5b5061053461085836600461521b565b61339f565b34801561086957600080fd5b506103c6610878366004614e2c565b613416565b34801561088957600080fd5b50610421610898366004614e2c565b6138bf565b3480156108a957600080fd5b506104b960035481565b6104b96108c1366004615247565b6138f1565b3480156108d257600080fd5b506104b960085481565b3480156108e857600080fd5b506105346108f7366004614e2c565b613fd5565b34801561090857600080fd5b5061038c610917366004614e2c565b614034565b34801561092857600080fd5b5061038c610937366004614f48565b6141d2565b34801561094857600080fd5b506107426142d8565b34801561095d57600080fd5b506104b9606481565b34801561097257600080fd5b50610986610981366004614e2c565b614338565b6040516103da91906153c8565b34801561099f57600080fd5b5061038c6109ae366004614e2c565b614651565b61038c6109c13660046153db565b610ae0565b3480156109d257600080fd5b506107426109e1366004614e2c565b61475f565b3480156109f257600080fd5b506104b9610a01366004614e2c565b614812565b348015610a1257600080fd5b506104b960055481565b348015610a2857600080fd5b506104b961481d565b348015610a3d57600080fd5b50610a466148a2565b6040516103da91906153fe565b348015610a5f57600080fd5b50610534610a6e366004614e2c565b614b41565b348015610a7f57600080fd5b50610534610a8e366004614e2c565b614ba0565b348015610a9f57600080fd5b506103c6610aae366004614e2c565b614c08565b348015610abf57600080fd5b50610ad3610ace366004614f48565b614c18565b6040516103da9190615460565b8015610be15760065460408051633fabe5a360e21b815290516000926001600160a01b03169163feaf968c9160048083019260a09291908290030181865afa158015610b30573d6000803e3d6000fd5b505050506040513d601f19601f82011682018060405250810190610b5491906154e9565b50505091505060006402540be40082610b6d9190615543565b600854610b7a9086615543565b610b84919061555a565b905080341015610bdb5760405162461bcd60e51b815260206004820152601760248201527f6e65656420746f20706179207468697320616d6f756e7400000000000000000060448201526064015b60405180910390fd5b50505050565b610bea82610bee565b5050565b600854610bfb9082615543565b341015610c4a5760405162461bcd60e51b815260206004820152601760248201527f6e65656420746f20706179207468697320616d6f756e740000000000000000006044820152606401610bd2565b50565b60008181548110610c5d57600080fd5b6000918252602090912001546001600160a01b0316905081565b60048181548110610c8757600080fd5b60009182526020909120600890910201805460018201546002830180549294506001600160a01b039091169291610cbd9061557c565b80601f0160208091040260200160405190810160405280929190818152602001828054610ce99061557c565b8015610d365780601f10610d0b57610100808354040283529160200191610d36565b820191906000526020600020905b815481529060010190602001808311610d1957829003601f168201915b505050505090806003018054610d4b9061557c565b80601f0160208091040260200160405190810160405280929190818152602001828054610d779061557c565b8015610dc45780601f10610d9957610100808354040283529160200191610dc4565b820191906000526020600020905b815481529060010190602001808311610da757829003601f168201915b505050505090806004018054610dd99061557c565b80601f0160208091040260200160405190810160405280929190818152602001828054610e059061557c565b8015610e525780601f10610e2757610100808354040283529160200191610e52565b820191906000526020600020905b815481529060010190602001808311610e3557829003601f168201915b505050600584015460068501546007909501549394909390925060ff80821692506101008204811691620100008104821691630100000082048116916401000000009004168c565b6002546001600160a01b03163314610f025760405162461bcd60e51b815260206004820152602560248201527f43616c6c6572206973206e6f742074686520676f7665726e616e636520636f6e6044820152641d1c9858dd60da1b6064820152608401610bd2565b600755565b6000600354821115610f505760405162461bcd60e51b8152602060048201526012602482015271125b9d985b1a59081c1c9bda9958dd08125160721b6044820152606401610bd2565b506000908152601060205260409020546001600160a01b031690565b6000818152600a6020526040902060018101546001600160a01b03163314610fd65760405162461bcd60e51b815260206004820181905260248201527f6f6e6c792070726f6a656374206f776e65722063616e2063616c6c20746869736044820152606401610bd2565b60078101546301000000900460ff166110315760405162461bcd60e51b815260206004820152601860248201527f70726f6a656374206973206e6f7420636f6d706c6574656400000000000000006044820152606401610bd2565b6007810154610100900460ff161561108b5760405162461bcd60e51b815260206004820181905260248201527f467265656c616e6365722068617320616c7265616479206265656e20706169646044820152606401610bd2565b60008281526012602052604090205460ff16156110ea5760405162461bcd60e51b815260206004820152600d60248201527f68617665206469737075746573000000000000000000000000000000000000006044820152606401610bd2565b60078101805461ff00191661010017905560008281526010602052604081205460085460068401546001600160a01b0390921692916111299190615543565b90506000826001600160a01b03168260405160006040518083038185875af1925050503d8060008114611178576040519150601f19603f3d011682016040523d82523d6000602084013e61117d565b606091505b50509050806111ce5760405162461bcd60e51b815260206004820152601c60248201527f5061796d656e7420746f20667265656c616e636572206661696c6564000000006044820152606401610bd2565b5050505050565b600080600660009054906101000a90046001600160a01b03166001600160a01b031663feaf968c6040518163ffffffff1660e01b815260040160a060405180830381865afa15801561122b573d6000803e3d6000fd5b505050506040513d601f19601f8201168201806040525081019061124f91906154e9565b50505091505060006402540be400826112689190615543565b90506000816008548661127b9190615543565b611285919061555a565b95945050505050565b6000828152600a6020526040902060018101546001600160a01b031633146112f85760405162461bcd60e51b815260206004820181905260248201527f6f6e6c792070726f6a656374206f776e65722063616e2063616c6c20746869736044820152606401610bd2565b60078101546301000000900460ff16156113545760405162461bcd60e51b815260206004820152601560248201527f70726f6a656374206e6f7420636f6d706c6574656400000000000000000000006044820152606401610bd2565b806005015482116113cd5760405162461bcd60e51b815260206004820152602f60248201527f4e657720646561646c696e65206d757374206265206c61746572207468616e2060448201527f7468652063757272656e74206f6e6500000000000000000000000000000000006064820152608401610bd2565b6005015550565b6002546000906001600160a01b0316331461143f5760405162461bcd60e51b815260206004820152602560248201527f43616c6c6572206973206e6f742074686520676f7665726e616e636520636f6e6044820152641d1c9858dd60da1b6064820152608401610bd2565b6001600160a01b03861660009081526013602052604090205460ff166114cd5760405162461bcd60e51b815260206004820152602260248201527f746f2075706461746520667265656c616e6365722073686f756c6420656e726f60448201527f6c6c0000000000000000000000000000000000000000000000000000000000006064820152608401610bd2565b604080516080810182528681526020808201869052818301879052606082018590526001600160a01b0389166000908152601190915291909120815181906115159082615605565b506020820151600182019061152a9082615605565b506040820151600282019061153f9082615605565b5060609190910151600390910155506001600160a01b0385166000908152600f60205260409020819055600195945050505050565b6000818152600a602090815260408083208151610180810183528154815260018201546001600160a01b031693810193909352600281018054859493840191906115bd9061557c565b80601f01602080910402602001604051908101604052809291908181526020018280546115e99061557c565b80156116365780601f1061160b57610100808354040283529160200191611636565b820191906000526020600020905b81548152906001019060200180831161161957829003601f168201915b5050505050815260200160038201805461164f9061557c565b80601f016020809104026020016040519081016040528092919081815260200182805461167b9061557c565b80156116c85780601f1061169d576101008083540402835291602001916116c8565b820191906000526020600020905b8154815290600101906020018083116116ab57829003601f168201915b505050505081526020016004820180546116e19061557c565b80601f016020809104026020016040519081016040528092919081815260200182805461170d9061557c565b801561175a5780601f1061172f5761010080835404028352916020019161175a565b820191906000526020600020905b81548152906001019060200180831161173d57829003601f168201915b5050509183525050600582015460208201526006820154604082015260079091015460ff8082161515606084015261010082048116151560808401526201000082048116151560a0840152630100000082048116151560c084015264010000000090910416151560e09091015260035490915083111561181c5760405162461bcd60e51b815260206004820152601a60248201527f6170706c69656420496e76616c69642070726f6a6563742049440000000000006044820152606401610bd2565b60008311801561182e57506003548311155b61186f5760405162461bcd60e51b8152602060048201526012602482015271125b9d985b1a59081c1c9bda9958dd08125160721b6044820152606401610bd2565b8060a0015142106118c25760405162461bcd60e51b815260206004820152601360248201527f446561646c696e652068617320706173736564000000000000000000000000006044820152606401610bd2565b6000838152600b602052604090205460ff16156119475760405162461bcd60e51b815260206004820152603360248201527f206170706c79466f7254686550726f6a6563742070726f6a656374206973207060448201527f69636b656420627920667265656c616e636572000000000000000000000000006064820152608401610bd2565b8061014001511561199a5760405162461bcd60e51b815260206004820152601460248201527f70726f6a65637420697320636f6d706c657465640000000000000000000000006044820152606401610bd2565b806101000151156119ed5760405162461bcd60e51b815260206004820152601d60248201527f70726f6a656374206973207061696420746f20667265656c616e6365720000006044820152606401610bd2565b6000838152600d6020908152604080832033845290915290205460ff1615611a7d5760405162461bcd60e51b815260206004820152602960248201527f596f75206861766520616c7265616479206170706c69656420666f722074686960448201527f732070726f6a65637400000000000000000000000000000000000000000000006064820152608401610bd2565b3360009081526013602052604090205460ff16611adc5760405162461bcd60e51b815260206004820152601460248201527f6e65656420746f20656e726f6c6c2066697273740000000000000000000000006044820152606401610bd2565b50506000908152600c602090815260408220805460018181018355918452919092200180546001600160a01b0319163317905590565b6000818152600a602090815260408083208151610180810183528154815260018201546001600160a01b0316938101939093526002810180549192840191611b599061557c565b80601f0160208091040260200160405190810160405280929190818152602001828054611b859061557c565b8015611bd25780601f10611ba757610100808354040283529160200191611bd2565b820191906000526020600020905b815481529060010190602001808311611bb557829003601f168201915b50505050508152602001600382018054611beb9061557c565b80601f0160208091040260200160405190810160405280929190818152602001828054611c179061557c565b8015611c645780601f10611c3957610100808354040283529160200191611c64565b820191906000526020600020905b815481529060010190602001808311611c4757829003601f168201915b50505050508152602001600482018054611c7d9061557c565b80601f0160208091040260200160405190810160405280929190818152602001828054611ca99061557c565b8015611cf65780601f10611ccb57610100808354040283529160200191611cf6565b820191906000526020600020905b815481529060010190602001808311611cd957829003601f168201915b505050918352505060058201546020808301919091526006830154604083015260079092015460ff8082161515606084015261010082048116151560808401526201000082048116151560a0840152630100000082048116151560c084015264010000000090910416151560e0909101528101519091506001600160a01b03163314611dc45760405162461bcd60e51b815260206004820181905260248201527f6f6e6c792070726f6a656374206f776e65722063616e2063616c6c20746869736044820152606401610bd2565b80610140015115611e175760405162461bcd60e51b815260206004820152601860248201527f70726f6a656374206973206e6f7420636f6d706c6574656400000000000000006044820152606401610bd2565b60008281526012602052604090205460ff1615611e9c5760405162461bcd60e51b815260206004820152602760248201527f4469737075746520616c72656164792072616973656420666f7220746869732060448201527f70726f6a656374000000000000000000000000000000000000000000000000006064820152608401610bd2565b80610120015115611f155760405162461bcd60e51b815260206004820152602160248201527f43616e6e6f74206469737075746520612063616e63656c65642070726f6a656360448201527f74000000000000000000000000000000000000000000000000000000000000006064820152608401610bd2565b506000908152601260205260409020805460ff19166001179055565b6002546001600160a01b03163314611f995760405162461bcd60e51b815260206004820152602560248201527f43616c6c6572206973206e6f742074686520676f7665726e616e636520636f6e6044820152641d1c9858dd60da1b6064820152608401610bd2565b60025447906001600160a01b03163314611ff55760405162461bcd60e51b815260206004820181905260248201527f4f6e6c792044414f20676f7665726e616e63652063616e2077697468647261776044820152606401610bd2565b6002546040516000916001600160a01b03169083908381818185875af1925050503d8060008114612042576040519150601f19603f3d011682016040523d82523d6000602084013e612047565b606091505b5050905080610bea5760405162461bcd60e51b815260206004820152601160248201527f5769746864726177616c206661696c65640000000000000000000000000000006044820152606401610bd2565b6000818152600a60205260409020600581015442116120f95760405162461bcd60e51b815260206004820152601760248201527f446561646c696e6520686173206e6f74207061737365640000000000000000006044820152606401610bd2565b60018101546001600160a01b031633146121555760405162461bcd60e51b815260206004820181905260248201527f6f6e6c792070726f6a656374206f776e65722063616e2063616c6c20746869736044820152606401610bd2565b60078101546301000000900460ff16156121b15760405162461bcd60e51b815260206004820152601560248201527f70726f6a6563742069732020636f6d706c6574656400000000000000000000006044820152606401610bd2565b600781015462010000900460ff161561220c5760405162461bcd60e51b815260206004820152601b60248201527f50726f6a65637420697320616c72656164792063616e63656c656400000000006044820152606401610bd2565b6000828152600b602052604090205460ff16156122915760405162461bcd60e51b815260206004820152602a60248201527f467265656c616e6365722068617320616c7265616479207069636b656420746860448201527f69732070726f6a656374000000000000000000000000000000000000000000006064820152608401610bd2565b60078101805462ff00001916620100001790819055640100000000900460ff16156123e2574760006122c161481d565b9050600060085460085485600601546122da9190615543565b6122e49190615543565b905060006122f76402540be40084615543565b90506000612305828461555a565b600187015460405191925047916000916001600160a01b03169084908381818185875af1925050503d8060008114612359576040519150601f19603f3d011682016040523d82523d6000602084013e61235e565b606091505b50509050806123d55760405162461bcd60e51b815260206004820152602d60248201527f696e202065746820696e207769746864726177207468652070726f6a6563742060448201527f526566756e64206661696c6564000000000000000000000000000000000000006064820152608401610bd2565b50610bea95505050505050565b600060085482600601546123f69190615543565b60078301805462ff000019166201000017905560018301546040519192506000916001600160a01b039091169083908381818185875af1925050503d806000811461245d576040519150601f19603f3d011682016040523d82523d6000602084013e612462565b606091505b5050905080610bdb5760405162461bcd60e51b815260206004820152602660248201527f5749544844524157205448452050524f4a4543542065746820526566756e642060448201527f6661696c656400000000000000000000000000000000000000000000000000006064820152608401610bd2565b6000828152600a602090815260408083208151610180810183528154815260018201546001600160a01b03169381019390935260028101805491928401916125209061557c565b80601f016020809104026020016040519081016040528092919081815260200182805461254c9061557c565b80156125995780601f1061256e57610100808354040283529160200191612599565b820191906000526020600020905b81548152906001019060200180831161257c57829003601f168201915b505050505081526020016003820180546125b29061557c565b80601f01602080910402602001604051908101604052809291908181526020018280546125de9061557c565b801561262b5780601f106126005761010080835404028352916020019161262b565b820191906000526020600020905b81548152906001019060200180831161260e57829003601f168201915b505050505081526020016004820180546126449061557c565b80601f01602080910402602001604051908101604052809291908181526020018280546126709061557c565b80156126bd5780601f10612692576101008083540402835291602001916126bd565b820191906000526020600020905b8154815290600101906020018083116126a057829003601f168201915b505050918352505060058201546020808301919091526006830154604083015260079092015460ff8082161515606084015261010082048116151560808401526201000082048116151560a0840152630100000082048116151560c084015264010000000090910416151560e0909101528101519091506001600160a01b0316331461278b5760405162461bcd60e51b815260206004820181905260248201527f6f6e6c792070726f6a656374206f776e65722063616e2063616c6c20746869736044820152606401610bd2565b8061014001516127dd5760405162461bcd60e51b815260206004820152601560248201527f70726f6a656374206e6f7420636f6d706c6574656400000000000000000000006044820152606401610bd2565b6000831180156127ef57506003548311155b6128305760405162461bcd60e51b8152602060048201526012602482015271125b9d985b1a59081c1c9bda9958dd08125160721b6044820152606401610bd2565b60018210158015612842575060058211155b61288e5760405162461bcd60e51b815260206004820152601e60248201527f526174696e67206d757374206265206265747765656e203120616e64203500006044820152606401610bd2565b506000918252601060209081526040808420546001600160a01b03168452600f8252808420839055601190915290912060030155565b600060035482111561290d5760405162461bcd60e51b8152602060048201526012602482015271125b9d985b1a59081c1c9bda9958dd08125160721b6044820152606401610bd2565b506000908152600a60205260409020600701546301000000900460ff1690565b8015612a345760065460408051633fabe5a360e21b815290516000926001600160a01b03169163feaf968c9160048083019260a09291908290030181865afa15801561297d573d6000803e3d6000fd5b505050506040513d601f19601f820116820180604052508101906129a191906154e9565b50505091505060006402540be400826129ba9190615543565b6008546129c78187615543565b6129d19190615543565b6129db919061555a565b905080341015612a2d5760405162461bcd60e51b815260206004820152601f60248201527f746f20656e726f6c6c206e65656420746f2070617920666f72207468617420006044820152606401610bd2565b5050612a86565b600854341015612a865760405162461bcd60e51b815260206004820152601f60248201527f746f20656e726f6c6c206e65656420746f2070617920666f72207468617420006044820152606401610bd2565b3360009081526013602052604090205460ff1615612ae65760405162461bcd60e51b815260206004820152601060248201527f616c726561647920656e726f6c6c6564000000000000000000000000000000006044820152606401610bd2565b60005b600054811015612b8457336001600160a01b031660008281548110612b1057612b106156c5565b6000918252602090912001546001600160a01b031603612b725760405162461bcd60e51b815260206004820152601b60248201527f467265656c616e63657220616c726561647920656e726f6c6c656400000000006044820152606401610bd2565b80612b7c816156db565b915050612ae9565b506040805160808101825286815260208082018790528183018690526001606083015233600090815260119091529190912081518190612bc49082615605565b5060208201516001820190612bd99082615605565b5060408201516002820190612bee9082615605565b50606091909101516003909101555050336000818152600f60209081526040808320600190819055835480820185557f290decd9548b62a8d60345a988386fc84ba6bc95484008f6362f93160ef3e5630180546001600160a01b03191690951790945560139091529020805460ff19169091179055505050565b60606001805480602002602001604051908101604052809291908181526020018280548015612cc057602002820191906000526020600020905b81546001600160a01b03168152600190910190602001808311612ca2575b5050505050905090565b601160205260009081526040902080548190612ce59061557c565b80601f0160208091040260200160405190810160405280929190818152602001828054612d119061557c565b8015612d5e5780601f10612d3357610100808354040283529160200191612d5e565b820191906000526020600020905b815481529060010190602001808311612d4157829003601f168201915b505050505090806001018054612d739061557c565b80601f0160208091040260200160405190810160405280929190818152602001828054612d9f9061557c565b8015612dec5780601f10612dc157610100808354040283529160200191612dec565b820191906000526020600020905b815481529060010190602001808311612dcf57829003601f168201915b505050505090806002018054612e019061557c565b80601f0160208091040260200160405190810160405280929190818152602001828054612e2d9061557c565b8015612e7a5780601f10612e4f57610100808354040283529160200191612e7a565b820191906000526020600020905b815481529060010190602001808311612e5d57829003601f168201915b5050505050908060030154905084565b6000818152600a6020526040812060018101546001600160a01b03163314612ef45760405162461bcd60e51b815260206004820181905260248201527f6f6e6c792070726f6a656374206f776e65722063616e2063616c6c20746869736044820152606401610bd2565b600083118015612f0657506003548311155b612f525760405162461bcd60e51b815260206004820152601a60248201527f2063616e63656c20496e76616c69642070726f6a6563742049440000000000006044820152606401610bd2565b80600501544210612fa55760405162461bcd60e51b815260206004820152601360248201527f446561646c696e652068617320706173736564000000000000000000000000006044820152606401610bd2565b6000838152600e602052604090205460ff166130295760405162461bcd60e51b815260206004820152603160248201527f70726f6a6563742069732073656c656374656420736f206e6f742061626c652060448201527f746f2063616e63656c2070726f6a6563740000000000000000000000000000006064820152608401610bd2565b600781015462010000900460ff16156130845760405162461bcd60e51b815260206004820152601c60248201527f70726f6a65637420697320616c72656164792063616e63656c6c6564000000006044820152606401610bd2565b6000838152600b602052604090205460ff166131085760405162461bcd60e51b815260206004820152603060248201527f63616e63656c54686550726f6a6563742070726f6a656374206973207069636b60448201527f656420627920667265656c616e636572000000000000000000000000000000006064820152608401610bd2565b6007810154640100000000900460ff161561323d57600061312761481d565b905060006402540be4008260085460085486600601546131479190615543565b6131519190615543565b61315b919061555a565b6131659190615543565b60018401546040519192506000916001600160a01b039091169083908381818185875af1925050503d80600081146131b9576040519150601f19603f3d011682016040523d82523d6000602084013e6131be565b606091505b50509050806132355760405162461bcd60e51b815260206004820152602360248201527f2063616e63656c54686550726f6a6563742075736420526566756e642066616960448201527f6c656400000000000000000000000000000000000000000000000000000000006064820152608401610bd2565b505050613337565b600060085482600601546132519190615543565b60078301805462ff000019166201000017905560018301546040519192506000916001600160a01b039091169083908381818185875af1925050503d80600081146132b8576040519150601f19603f3d011682016040523d82523d6000602084013e6132bd565b606091505b50509050806133345760405162461bcd60e51b815260206004820152602260248201527f63616e63656c54686550726f6a6563742065746820526566756e64206661696c60448201527f65640000000000000000000000000000000000000000000000000000000000006064820152608401610bd2565b50505b50600192915050565b60006003548211156133895760405162461bcd60e51b8152602060048201526012602482015271125b9d985b1a59081c1c9bda9958dd08125160721b6044820152606401610bd2565b5060009081526012602052604090205460ff1690565b60006003548311156133e85760405162461bcd60e51b8152602060048201526012602482015271125b9d985b1a59081c1c9bda9958dd08125160721b6044820152606401610bd2565b506000828152600d602090815260408083206001600160a01b038516845290915290205460ff165b92915050565b6000818152600a60205260408120821580159061343557506003548311155b6134a75760405162461bcd60e51b815260206004820152602760248201527f2073656c656374696e67467265656c616e63657220496e76616c69642070726f60448201527f6a656374204944000000000000000000000000000000000000000000000000006064820152608401610bd2565b60018101546001600160a01b031633146135035760405162461bcd60e51b815260206004820181905260248201527f6f6e6c792070726f6a656374206f776e65722063616e2063616c6c20746869736044820152606401610bd2565b6000838152600c60205260409020546135845760405162461bcd60e51b815260206004820152602960248201527f6e6f20667265656c616e63657273207265676973746572656420666f7220746860448201527f652070726f6a65637400000000000000000000000000000000000000000000006064820152608401610bd2565b6000838152600e602052604090205460ff16156136095760405162461bcd60e51b815260206004820152602960248201527f50726f6a65637420616c72656164792068617320612073656c6563746564206660448201527f7265656c616e63657200000000000000000000000000000000000000000000006064820152608401610bd2565b600080805b6000868152600c6020526040902054811015613863576000868152600c60205260408120805483908110613644576136446156c5565b60009182526020808320909101546001600160a01b03168083526011909152604080832081516080810190925280549294509091829082906136859061557c565b80601f01602080910402602001604051908101604052809291908181526020018280546136b19061557c565b80156136fe5780601f106136d3576101008083540402835291602001916136fe565b820191906000526020600020905b8154815290600101906020018083116136e157829003601f168201915b505050505081526020016001820180546137179061557c565b80601f01602080910402602001604051908101604052809291908181526020018280546137439061557c565b80156137905780601f1061376557610100808354040283529160200191613790565b820191906000526020600020905b81548152906001019060200180831161377357829003601f168201915b505050505081526020016002820180546137a99061557c565b80601f01602080910402602001604051908101604052809291908181526020018280546137d59061557c565b80156138225780601f106137f757610100808354040283529160200191613822565b820191906000526020600020905b81548152906001019060200180831161380557829003601f168201915b505050505081526020016003820154815250509050848160600151111561384e57806060015194508193505b5050808061385b906156db565b91505061360e565b50600094855260106020908152604080872080546001600160a01b0319166001600160a01b038516179055600e8252808720805460ff199081166001908117909255600b90935296208054909116909517909455509192915050565b600a6020526000908152604090208054600182015460028301805492936001600160a01b0390921692610cbd9061557c565b600086516000036139445760405162461bcd60e51b815260206004820152601c60248201527f50726f6a656374206e616d652063616e6e6f7420626520656d707479000000006044820152606401610bd2565b85516000036139955760405162461bcd60e51b815260206004820152601b60248201527f50726f6a656374207479652063616e6e6f7420626520656d70747900000000006044820152606401610bd2565b8451600003613a0c5760405162461bcd60e51b815260206004820152602360248201527f50726f6a656374206465736372697074696f6e2063616e6e6f7420626520656d60448201527f70747900000000000000000000000000000000000000000000000000000000006064820152608401610bd2565b83600003613a825760405162461bcd60e51b815260206004820152602160248201527f50726f6a656374205f646561646c696e652063616e6e6f7420626520656d707460448201527f79000000000000000000000000000000000000000000000000000000000000006064820152608401610bd2565b6000808315613bd4576103e8851015613add5760405162461bcd60e51b815260206004820152601e60248201527f50726f6a65637420616d6f756e742063616e6e6f7420626520656d70747900006044820152606401610bd2565b600060085486613aed9190615543565b90506000613afa826111d5565b905060008111613b4c5760405162461bcd60e51b815260206004820152601e60248201527f70726963652073686f756c642062652067726561746572207468616e203000006044820152606401610bd2565b606460075482613b5c9190615543565b613b66919061555a565b9350613b7284826156f4565b9250613b7e84826156f4565b341015613bcd5760405162461bcd60e51b815260206004820152601860248201527f696e73756666696369656e742045544820666f722066656500000000000000006044820152606401610bd2565b5050613ca5565b606460075460085487613be79190615543565b613bf19190615543565b613bfb919061555a565b91508160085486613c0c9190615543565b613c1691906156f4565b905080341015613c8d5760405162461bcd60e51b8152602060048201526024808201527f496e73756666696369656e742045544820666f722070726f6a65637420616e6460448201527f20666565000000000000000000000000000000000000000000000000000000006064820152608401610bd2565b8160056000828254613c9f91906156f4565b90915550505b60038054906000613cb5836156db565b90915550506040805161018081018252600354815233602082019081529181018b8152606082018b9052608082018a905260a0820189905260c08201889052600160e083018190526000610100840181905261012084018190526101408401819052881515610160850152600480549283018155905282517f8a35acfbc15ff81a39ae7d344fd709f28e8600b4aa8c65c6b64bfe7fe36bd19b600890920291820190815593517f8a35acfbc15ff81a39ae7d344fd709f28e8600b4aa8c65c6b64bfe7fe36bd19c820180546001600160a01b0319166001600160a01b0390921691909117905590519192839290917f8a35acfbc15ff81a39ae7d344fd709f28e8600b4aa8c65c6b64bfe7fe36bd19d0190613dd09082615605565b5060608201516003820190613de59082615605565b5060808201516004820190613dfa9082615605565b5060a0820151600582015560c0820151600682015560e082015160079091018054610100808501516101208601516101408701516101609097015161ffff1990941695151561ff001916959095179015159091021763ffff00001916620100009315159390930263ff0000001916929092176301000000931515939093029290921764ff000000001916640100000000911515919091021790556003546000908152600a602090815260409182902083518155908301516001820180546001600160a01b0319166001600160a01b03909216919091179055908201518291906002820190613ee89082615605565b5060608201516003820190613efd9082615605565b5060808201516004820190613f129082615605565b5060a0820151600582015560c0820151600682015560e082015160079091018054610100808501516101208601516101408701516101609097015115156401000000000264ff000000001997151563010000000263ff0000001992151562010000029290921663ffff00001993151590940261ff00199715159790971661ffff199095169490941795909517161792909217929092161790555050600380546000908152600b60205260409020805460ff19169055549150509695505050505050565b600060035482111561401e5760405162461bcd60e51b8152602060048201526012602482015271125b9d985b1a59081c1c9bda9958dd08125160721b6044820152606401610bd2565b506000908152600b602052604090205460ff1690565b6000818152600a602090815260408083206010909252909120546001600160a01b031633146140b15760405162461bcd60e51b8152602060048201526024808201527f796f7520617265206e6f74207468652073656c656374656420667265656c616e604482015263031b2b9160e51b6064820152608401610bd2565b60078101546301000000900460ff161561410d5760405162461bcd60e51b815260206004820152601c60248201527f50726f6a65637420697320616c726561647920636f6d706c65746564000000006044820152606401610bd2565b600781015462010000900460ff16156141685760405162461bcd60e51b815260206004820181905260248201527f43616e6e6f74207375626d697420612063616e63656c65642070726f6a6563746044820152606401610bd2565b806005015442106141bb5760405162461bcd60e51b815260206004820152601360248201527f446561646c696e652068617320706173736564000000000000000000000000006044820152606401610bd2565b600701805463ff0000001916630100000017905550565b6002546001600160a01b0316331461423a5760405162461bcd60e51b815260206004820152602560248201527f43616c6c6572206973206e6f742074686520676f7665726e616e636520636f6e6044820152641d1c9858dd60da1b6064820152608401610bd2565b6001600160a01b0381166142b65760405162461bcd60e51b815260206004820152602360248201527f496e76616c696420676f7665726e616e636520636f6e7472616374206164647260448201527f65737300000000000000000000000000000000000000000000000000000000006064820152608401610bd2565b600280546001600160a01b0319166001600160a01b0392909216919091179055565b60606000805480602002602001604051908101604052809291908181526020018280548015612cc0576020028201919060005260206000209081546001600160a01b03168152600190910190602001808311612ca2575050505050905090565b6143af6040518061018001604052806000815260200160006001600160a01b0316815260200160608152602001606081526020016060815260200160008152602001600081526020016000151581526020016000151581526020016000151581526020016000151581526020016000151581525090565b6003548211156143f65760405162461bcd60e51b8152602060048201526012602482015271125b9d985b1a59081c1c9bda9958dd08125160721b6044820152606401610bd2565b6000828152600a60209081526040918290208251610180810184528154815260018201546001600160a01b03169281019290925260028101805492939192918401916144419061557c565b80601f016020809104026020016040519081016040528092919081815260200182805461446d9061557c565b80156144ba5780601f1061448f576101008083540402835291602001916144ba565b820191906000526020600020905b81548152906001019060200180831161449d57829003601f168201915b505050505081526020016003820180546144d39061557c565b80601f01602080910402602001604051908101604052809291908181526020018280546144ff9061557c565b801561454c5780601f106145215761010080835404028352916020019161454c565b820191906000526020600020905b81548152906001019060200180831161452f57829003601f168201915b505050505081526020016004820180546145659061557c565b80601f01602080910402602001604051908101604052809291908181526020018280546145919061557c565b80156145de5780601f106145b3576101008083540402835291602001916145de565b820191906000526020600020905b8154815290600101906020018083116145c157829003601f168201915b5050509183525050600582015460208201526006820154604082015260079091015460ff8082161515606084015261010082048116151560808401526201000082048116151560a0840152630100000082048116151560c084015264010000000090910416151560e09091015292915050565b6000818152601060205260409020546001600160a01b031633146146c35760405162461bcd60e51b8152602060048201526024808201527f796f7520617265206e6f74207468652073656c656374656420667265656c616e604482015263031b2b9160e51b6064820152608401610bd2565b60008181526012602052604090205460ff166147475760405162461bcd60e51b815260206004820152602260248201527f4e6f20646973707574652072616973656420666f7220746869732070726f6a6560448201527f63740000000000000000000000000000000000000000000000000000000000006064820152608401610bd2565b6000908152601260205260409020805460ff19169055565b60606003548211156147a85760405162461bcd60e51b8152602060048201526012602482015271125b9d985b1a59081c1c9bda9958dd08125160721b6044820152606401610bd2565b6000828152600c60209081526040918290208054835181840281018401909452808452909183018282801561480657602002820191906000526020600020905b81546001600160a01b031681526001909101906020018083116147e8575b50505050509050919050565b6000613410826111d5565b600080600660009054906101000a90046001600160a01b03166001600160a01b031663feaf968c6040518163ffffffff1660e01b815260040160a060405180830381865afa158015614873573d6000803e3d6000fd5b505050506040513d601f19601f8201168201806040525081019061489791906154e9565b509195945050505050565b60606004805480602002602001604051908101604052809291908181526020016000905b82821015614b385760008481526020908190206040805161018081018252600886029092018054835260018101546001600160a01b0316938301939093526002830180549293929184019161491a9061557c565b80601f01602080910402602001604051908101604052809291908181526020018280546149469061557c565b80156149935780601f1061496857610100808354040283529160200191614993565b820191906000526020600020905b81548152906001019060200180831161497657829003601f168201915b505050505081526020016003820180546149ac9061557c565b80601f01602080910402602001604051908101604052809291908181526020018280546149d89061557c565b8015614a255780601f106149fa57610100808354040283529160200191614a25565b820191906000526020600020905b815481529060010190602001808311614a0857829003601f168201915b50505050508152602001600482018054614a3e9061557c565b80601f0160208091040260200160405190810160405280929190818152602001828054614a6a9061557c565b8015614ab75780601f10614a8c57610100808354040283529160200191614ab7565b820191906000526020600020905b815481529060010190602001808311614a9a57829003601f168201915b505050918352505060058201546020808301919091526006830154604083015260079092015460ff8082161515606084015261010082048116151560808401526201000082048116151560a0840152630100000082048116151560c084015264010000000090910416151560e09091015290825260019290920191016148c6565b50505050905090565b6000600354821115614b8a5760405162461bcd60e51b8152602060048201526012602482015271125b9d985b1a59081c1c9bda9958dd08125160721b6044820152606401610bd2565b506000908152600e602052604090205460ff1690565b6000600354821115614be95760405162461bcd60e51b8152602060048201526012602482015271125b9d985b1a59081c1c9bda9958dd08125160721b6044820152606401610bd2565b506000908152600a602052604090206007015462010000900460ff1690565b60018181548110610c5d57600080fd5b614c436040518060800160405280606081526020016060815260200160608152602001600081525090565b6001600160a01b03821660009081526011602052604090819020815160808101909252805482908290614c759061557c565b80601f0160208091040260200160405190810160405280929190818152602001828054614ca19061557c565b8015614cee5780601f10614cc357610100808354040283529160200191614cee565b820191906000526020600020905b815481529060010190602001808311614cd157829003601f168201915b50505050508152602001600182018054614d079061557c565b80601f0160208091040260200160405190810160405280929190818152602001828054614d339061557c565b8015614d805780601f10614d5557610100808354040283529160200191614d80565b820191906000526020600020905b815481529060010190602001808311614d6357829003601f168201915b50505050508152602001600282018054614d999061557c565b80601f0160208091040260200160405190810160405280929190818152602001828054614dc59061557c565b8015614e125780601f10614de757610100808354040283529160200191614e12565b820191906000526020600020905b815481529060010190602001808311614df557829003601f168201915b505050505081526020016003820154815250509050919050565b600060208284031215614e3e57600080fd5b5035919050565b6000815180845260005b81811015614e6b57602081850181015186830182015201614e4f565b506000602082860101526020601f19601f83011685010191505092915050565b60006101808e83526001600160a01b038e166020840152806040840152614eb48184018e614e45565b90508281036060840152614ec8818d614e45565b90508281036080840152614edc818c614e45565b9150508860a08301528760c083015286151560e0830152851515610100830152614f0b61012083018615159052565b921515610140820152901515610160909101529a9950505050505050505050565b80356001600160a01b0381168114614f4357600080fd5b919050565b600060208284031215614f5a57600080fd5b614f6382614f2c565b9392505050565b60008060408385031215614f7d57600080fd5b50508035926020909101359150565b634e487b7160e01b600052604160045260246000fd5b600082601f830112614fb357600080fd5b813567ffffffffffffffff80821115614fce57614fce614f8c565b604051601f8301601f19908116603f01168101908282118183101715614ff657614ff6614f8c565b8160405283815286602085880101111561500f57600080fd5b836020870160208301376000602085830101528094505050505092915050565b600080600080600060a0868803121561504757600080fd5b61505086614f2c565b9450602086013567ffffffffffffffff8082111561506d57600080fd5b61507989838a01614fa2565b9550604088013591508082111561508f57600080fd5b61509b89838a01614fa2565b945060608801359150808211156150b157600080fd5b506150be88828901614fa2565b95989497509295608001359392505050565b80358015158114614f4357600080fd5b600080600080600060a086880312156150f857600080fd5b853567ffffffffffffffff8082111561511057600080fd5b61511c89838a01614fa2565b9650602088013591508082111561513257600080fd5b61513e89838a01614fa2565b9550604088013591508082111561515457600080fd5b5061516188828901614fa2565b93505060608601359150615177608087016150d0565b90509295509295909350565b6020808252825182820181905260009190848201906040850190845b818110156151c45783516001600160a01b03168352928401929184019160010161519f565b50909695505050505050565b6080815260006151e36080830187614e45565b82810360208401526151f58187614e45565b905082810360408401526152098186614e45565b91505082606083015295945050505050565b6000806040838503121561522e57600080fd5b8235915061523e60208401614f2c565b90509250929050565b60008060008060008060c0878903121561526057600080fd5b863567ffffffffffffffff8082111561527857600080fd5b6152848a838b01614fa2565b9750602089013591508082111561529a57600080fd5b6152a68a838b01614fa2565b965060408901359150808211156152bc57600080fd5b506152c989828a01614fa2565b94505060608701359250608087013591506152e660a088016150d0565b90509295509295509295565b600061018082518452602083015161531560208601826001600160a01b03169052565b50604083015181604086015261532d82860182614e45565b915050606083015184820360608601526153478282614e45565b915050608083015184820360808601526153618282614e45565b91505060a083015160a085015260c083015160c085015260e083015161538b60e086018215159052565b5061010083810151151590850152610120808401511515908501526101408084015115159085015261016092830151151592909301919091525090565b602081526000614f6360208301846152f2565b600080604083850312156153ee57600080fd5b8235915061523e602084016150d0565b6000602080830181845280855180835260408601915060408160051b870101925083870160005b8281101561545357603f198886030184526154418583516152f2565b94509285019290850190600101615425565b5092979650505050505050565b60208152600082516080602084015261547c60a0840182614e45565b90506020840151601f198085840301604086015261549a8383614e45565b92506040860151915080858403016060860152506154b88282614e45565b915050606084015160808401528091505092915050565b805169ffffffffffffffffffff81168114614f4357600080fd5b600080600080600060a0868803121561550157600080fd5b61550a866154cf565b9450602086015193506040860151925060608601519150615177608087016154cf565b634e487b7160e01b600052601160045260246000fd5b80820281158282048414176134105761341061552d565b60008261557757634e487b7160e01b600052601260045260246000fd5b500490565b600181811c9082168061559057607f821691505b6020821081036155b057634e487b7160e01b600052602260045260246000fd5b50919050565b601f82111561560057600081815260208120601f850160051c810160208610156155dd5750805b601f850160051c820191505b818110156155fc578281556001016155e9565b5050505b505050565b815167ffffffffffffffff81111561561f5761561f614f8c565b6156338161562d845461557c565b846155b6565b602080601f83116001811461566857600084156156505750858301515b600019600386901b1c1916600185901b1785556155fc565b600085815260208120601f198616915b8281101561569757888601518255948401946001909101908401615678565b50858210156156b55787850151600019600388901b60f8161c191681555b5050505050600190811b01905550565b634e487b7160e01b600052603260045260246000fd5b6000600182016156ed576156ed61552d565b5060010190565b808201808211156134105761341061552d56fea264697066735822122041b5cc93a7c245d78d777030d3fb105b8783bfefd711e4f3d82f940552db468364736f6c63430008130033",
  "linkReferences": {},
  "deployedLinkReferences": {}
}